{
  "address": "0x4bf28b2cb7a42b4502fa6cb91ae50a865501da76",
  "abi": [
    {
      "inputs": [
        {
          "internalType": "address",
          "name": "_initialOwner",
          "type": "address"
        },
        {
          "internalType": "address",
          "name": "_energyToken",
          "type": "address"
        },
        {
          "internalType": "address",
          "name": "_recipientAddress",
          "type": "address"
        },
        {
          "internalType": "uint256",
          "name": "_maxMint",
          "type": "uint256"
        },
        {
          "internalType": "address[]",
          "name": "_fixedExchangeTokens",
          "type": "address[]"
        },
        {
          "internalType": "uint256[]",
          "name": "_fixedExchangeRates",
          "type": "uint256[]"
        },
        {
          "internalType": "address[]",
          "name": "_dynamicExchangeTokens",
          "type": "address[]"
        },
        {
          "internalType": "bytes32[]",
          "name": "_dynamicExchangePools",
          "type": "bytes32[]"
        },
        {
          "internalType": "address[]",
          "name": "_stableExchangeTokens",
          "type": "address[]"
        },
        {
          "internalType": "bytes32[]",
          "name": "_stableExchangePools",
          "type": "bytes32[]"
        }
      ],
      "stateMutability": "nonpayable",
      "type": "constructor"
    },
    {
      "inputs": [
        {
          "internalType": "address",
          "name": "target",
          "type": "address"
        }
      ],
      "name": "AddressEmptyCode",
      "type": "error"
    },
    {
      "inputs": [
        {
          "internalType": "address",
          "name": "account",
          "type": "address"
        }
      ],
      "name": "AddressInsufficientBalance",
      "type": "error"
    },
    {
      "inputs": [],
      "name": "FailedInnerCall",
      "type": "error"
    },
    {
      "inputs": [
        {
          "internalType": "string",
          "name": "message",
          "type": "string"
        }
      ],
      "name": "InvalidAmount",
      "type": "error"
    },
    {
      "inputs": [],
      "name": "InvalidParams",
      "type": "error"
    },
    {
      "inputs": [],
      "name": "InvalidParamsLength",
      "type": "error"
    },
    {
      "inputs": [],
      "name": "InvalidParamsZeroAddress",
      "type": "error"
    },
    {
      "inputs": [],
      "name": "InvalidParamsZeroValue",
      "type": "error"
    },
    {
      "inputs": [],
      "name": "InvalidSignature",
      "type": "error"
    },
    {
      "inputs": [],
      "name": "MaxMintAmount",
      "type": "error"
    },
    {
      "inputs": [],
      "name": "NotEnoughFunds",
      "type": "error"
    },
    {
      "inputs": [],
      "name": "OnlyEnergy",
      "type": "error"
    },
    {
      "inputs": [
        {
          "internalType": "address",
          "name": "owner",
          "type": "address"
        }
      ],
      "name": "OwnableInvalidOwner",
      "type": "error"
    },
    {
      "inputs": [
        {
          "internalType": "address",
          "name": "account",
          "type": "address"
        }
      ],
      "name": "OwnableUnauthorizedAccount",
      "type": "error"
    },
    {
      "inputs": [],
      "name": "ReentrancyGuardReentrantCall",
      "type": "error"
    },
    {
      "inputs": [
        {
          "internalType": "address",
          "name": "token",
          "type": "address"
        }
      ],
      "name": "SafeERC20FailedOperation",
      "type": "error"
    },
    {
      "inputs": [],
      "name": "UnacceptablePriceDeviation",
      "type": "error"
    },
    {
      "inputs": [],
      "name": "Underpaid",
      "type": "error"
    },
    {
      "anonymous": false,
      "inputs": [
        {
          "indexed": true,
          "internalType": "address",
          "name": "_from",
          "type": "address"
        },
        {
          "indexed": false,
          "internalType": "uint256",
          "name": "_amount",
          "type": "uint256"
        },
        {
          "indexed": true,
          "internalType": "address",
          "name": "_paymentToken",
          "type": "address"
        },
        {
          "indexed": false,
          "internalType": "uint256",
          "name": "_price",
          "type": "uint256"
        }
      ],
      "name": "Burn",
      "type": "event"
    },
    {
      "anonymous": false,
      "inputs": [
        {
          "indexed": true,
          "internalType": "address",
          "name": "stablecoin",
          "type": "address"
        },
        {
          "indexed": true,
          "internalType": "address",
          "name": "to",
          "type": "address"
        },
        {
          "indexed": false,
          "internalType": "uint256",
          "name": "amount",
          "type": "uint256"
        }
      ],
      "name": "Migration",
      "type": "event"
    },
    {
      "anonymous": false,
      "inputs": [
        {
          "indexed": true,
          "internalType": "address",
          "name": "_to",
          "type": "address"
        },
        {
          "indexed": false,
          "internalType": "uint256",
          "name": "_amount",
          "type": "uint256"
        },
        {
          "indexed": true,
          "internalType": "address",
          "name": "_paymentToken",
          "type": "address"
        },
        {
          "indexed": false,
          "internalType": "uint256",
          "name": "_price",
          "type": "uint256"
        }
      ],
      "name": "Mint",
      "type": "event"
    },
    {
      "anonymous": false,
      "inputs": [
        {
          "indexed": true,
          "internalType": "address",
          "name": "previousOwner",
          "type": "address"
        },
        {
          "indexed": true,
          "internalType": "address",
          "name": "newOwner",
          "type": "address"
        }
      ],
      "name": "OwnershipTransferred",
      "type": "event"
    },
    {
      "anonymous": false,
      "inputs": [
        {
          "indexed": false,
          "internalType": "uint256",
          "name": "amount",
          "type": "uint256"
        },
        {
          "indexed": false,
          "internalType": "address",
          "name": "paymentAddress",
          "type": "address"
        },
        {
          "indexed": false,
          "internalType": "uint256",
          "name": "price",
          "type": "uint256"
        }
      ],
      "name": "Price",
      "type": "event"
    },
    {
      "anonymous": false,
      "inputs": [
        {
          "indexed": false,
          "internalType": "uint256",
          "name": "amount",
          "type": "uint256"
        },
        {
          "indexed": false,
          "internalType": "address",
          "name": "erc20",
          "type": "address"
        },
        {
          "indexed": false,
          "internalType": "uint256",
          "name": "when",
          "type": "uint256"
        }
      ],
      "name": "Withdrawal",
      "type": "event"
    },
    {
      "inputs": [
        {
          "internalType": "uint256",
          "name": "_amount",
          "type": "uint256"
        },
        {
          "internalType": "address",
          "name": "_paymentTokenAddress",
          "type": "address"
        }
      ],
      "name": "burn",
      "outputs": [],
      "stateMutability": "nonpayable",
      "type": "function"
    },
    {
      "inputs": [],
      "name": "burningPrice",
      "outputs": [
        {
          "internalType": "uint256",
          "name": "",
          "type": "uint256"
        }
      ],
      "stateMutability": "view",
      "type": "function"
    },
    {
      "inputs": [],
      "name": "dynamicExchangeAcceptedDeviationPercentage",
      "outputs": [
        {
          "internalType": "uint8",
          "name": "",
          "type": "uint8"
        }
      ],
      "stateMutability": "view",
      "type": "function"
    },
    {
      "inputs": [
        {
          "internalType": "address",
          "name": "",
          "type": "address"
        }
      ],
      "name": "dynamicExchangeTokens",
      "outputs": [
        {
          "internalType": "bytes32",
          "name": "",
          "type": "bytes32"
        }
      ],
      "stateMutability": "view",
      "type": "function"
    },
    {
      "inputs": [],
      "name": "energyToken",
      "outputs": [
        {
          "internalType": "address",
          "name": "",
          "type": "address"
        }
      ],
      "stateMutability": "view",
      "type": "function"
    },
    {
      "inputs": [
        {
          "internalType": "address",
          "name": "",
          "type": "address"
        }
      ],
      "name": "fixedExchangeRate",
      "outputs": [
        {
          "internalType": "uint256",
          "name": "",
          "type": "uint256"
        }
      ],
      "stateMutability": "view",
      "type": "function"
    },
    {
      "inputs": [
        {
          "internalType": "uint256",
          "name": "",
          "type": "uint256"
        }
      ],
      "name": "fixedExchangeTokens",
      "outputs": [
        {
          "internalType": "address",
          "name": "",
          "type": "address"
        }
      ],
      "stateMutability": "view",
      "type": "function"
    },
    {
      "inputs": [
        {
          "internalType": "uint256",
          "name": "_amount",
          "type": "uint256"
        },
        {
          "internalType": "address",
          "name": "_paymentTokenAddress",
          "type": "address"
        }
      ],
      "name": "getPrice",
      "outputs": [
        {
          "internalType": "uint256",
          "name": "",
          "type": "uint256"
        }
      ],
      "stateMutability": "nonpayable",
      "type": "function"
    },
    {
      "inputs": [],
      "name": "maxMintAmount",
      "outputs": [
        {
          "internalType": "uint256",
          "name": "",
          "type": "uint256"
        }
      ],
      "stateMutability": "view",
      "type": "function"
    },
    {
      "inputs": [
        {
          "internalType": "address",
          "name": "_newContract",
          "type": "address"
        }
      ],
      "name": "migrate",
      "outputs": [],
      "stateMutability": "nonpayable",
      "type": "function"
    },
    {
      "inputs": [
        {
          "internalType": "uint256",
          "name": "_amount",
          "type": "uint256"
        },
        {
          "internalType": "address",
          "name": "_paymentTokenAddress",
          "type": "address"
        }
      ],
      "name": "mint",
      "outputs": [],
      "stateMutability": "nonpayable",
      "type": "function"
    },
    {
      "inputs": [
        {
          "internalType": "uint256",
          "name": "_amount",
          "type": "uint256"
        },
        {
          "internalType": "address",
          "name": "_paymentTokenAddress",
          "type": "address"
        },
        {
          "internalType": "uint256",
          "name": "_offlinePrice",
          "type": "uint256"
        },
        {
          "internalType": "bytes",
          "name": "_signature",
          "type": "bytes"
        }
      ],
      "name": "mintWithDynamic",
      "outputs": [],
      "stateMutability": "nonpayable",
      "type": "function"
    },
    {
      "inputs": [],
      "name": "owner",
      "outputs": [
        {
          "internalType": "address",
          "name": "",
          "type": "address"
        }
      ],
      "stateMutability": "view",
      "type": "function"
    },
    {
      "inputs": [],
      "name": "recipientAddress",
      "outputs": [
        {
          "internalType": "address",
          "name": "",
          "type": "address"
        }
      ],
      "stateMutability": "view",
      "type": "function"
    },
    {
      "inputs": [],
      "name": "renounceOwnership",
      "outputs": [],
      "stateMutability": "nonpayable",
      "type": "function"
    },
    {
      "inputs": [
        {
          "internalType": "uint256",
          "name": "_burningPrice",
          "type": "uint256"
        }
      ],
      "name": "setBurningPrice",
      "outputs": [],
      "stateMutability": "nonpayable",
      "type": "function"
    },
    {
      "inputs": [
        {
          "internalType": "uint8",
          "name": "_dynamicExchangeAcceptedDeviationPercentage",
          "type": "uint8"
        }
      ],
      "name": "setDynamicExchangeAcceptedDeviationPercentage",
      "outputs": [],
      "stateMutability": "nonpayable",
      "type": "function"
    },
    {
      "inputs": [
        {
          "internalType": "address[]",
          "name": "_dynamicExchangeTokens",
          "type": "address[]"
        },
        {
          "internalType": "bytes32[]",
          "name": "_dynamicExchangePools",
          "type": "bytes32[]"
        }
      ],
      "name": "setDynamicExchangeTokens",
      "outputs": [],
      "stateMutability": "nonpayable",
      "type": "function"
    },
    {
      "inputs": [
        {
          "internalType": "address[]",
          "name": "_fixedExchangeTokens",
          "type": "address[]"
        },
        {
          "internalType": "uint256[]",
          "name": "_fixedExchangeRates",
          "type": "uint256[]"
        }
      ],
      "name": "setFixedExchangeRates",
      "outputs": [],
      "stateMutability": "nonpayable",
      "type": "function"
    },
    {
      "inputs": [
        {
          "internalType": "address[]",
          "name": "_fixedExchangeTokens",
          "type": "address[]"
        },
        {
          "internalType": "uint256[]",
          "name": "_fixedExchangeRates",
          "type": "uint256[]"
        }
      ],
      "name": "setFixedExchangeTokens",
      "outputs": [],
      "stateMutability": "nonpayable",
      "type": "function"
    },
    {
      "inputs": [
        {
          "internalType": "uint256",
          "name": "_maxMintAmount",
          "type": "uint256"
        }
      ],
      "name": "setMaxMintAmount",
      "outputs": [],
      "stateMutability": "nonpayable",
      "type": "function"
    },
    {
      "inputs": [
        {
          "internalType": "address",
          "name": "_newRecipientAddress",
          "type": "address"
        }
      ],
      "name": "setRecipientAddress",
      "outputs": [],
      "stateMutability": "nonpayable",
      "type": "function"
    },
    {
      "inputs": [
        {
          "internalType": "address[]",
          "name": "_stableExchangeTokens",
          "type": "address[]"
        },
        {
          "internalType": "bytes32[]",
          "name": "_stableExchangePools",
          "type": "bytes32[]"
        }
      ],
      "name": "setStableExchangeTokens",
      "outputs": [],
      "stateMutability": "nonpayable",
      "type": "function"
    },
    {
      "inputs": [
        {
          "internalType": "address",
          "name": "_trustedSigner",
          "type": "address"
        }
      ],
      "name": "setTrustedSigner",
      "outputs": [],
      "stateMutability": "nonpayable",
      "type": "function"
    },
    {
      "inputs": [
        {
          "internalType": "address",
          "name": "",
          "type": "address"
        }
      ],
      "name": "stableExchangeTokens",
      "outputs": [
        {
          "internalType": "bytes32",
          "name": "",
          "type": "bytes32"
        }
      ],
      "stateMutability": "view",
      "type": "function"
    },
    {
      "inputs": [
        {
          "internalType": "address",
          "name": "newOwner",
          "type": "address"
        }
      ],
      "name": "transferOwnership",
      "outputs": [],
      "stateMutability": "nonpayable",
      "type": "function"
    },
    {
      "inputs": [],
      "name": "trustedSigner",
      "outputs": [
        {
          "internalType": "address",
          "name": "",
          "type": "address"
        }
      ],
      "stateMutability": "view",
      "type": "function"
    },
    {
      "inputs": [
        {
          "internalType": "address",
          "name": "_erc20",
          "type": "address"
        }
      ],
      "name": "withdraw",
      "outputs": [],
      "stateMutability": "nonpayable",
      "type": "function"
    }
  ],
  "transactionHash": "0x4aa752543aed7d99b17c9bd66c3b69d5573fcb57cf4fc0507145124b831aaa7e",
  "args": [
    "0x4aDD9cdF388F8062Cc2F73BF5166A1E21689A7a2",
    "0x5083b81a1ff47959264396739c8a93e00abb4529",
    "0x77693a5D3881dD7F99964219e2827883e66D7E9e",
    "300000",
    [
      "0x2791Bca1f2de4661ED88A30C99A7a9449Aa84174"
    ],
    [
      "2500000"
    ],
    [
      "0x72928d5436Ff65e57F72D5566dCd3BaEDC649A88"
    ],
    [
      "0xb53f4e2f1e7a1b8b9d09d2f2739ac6753f5ba5cb000200000000000000000137"
    ],
    [
      "0x2791Bca1f2de4661ED88A30C99A7a9449Aa84174"
    ],
    [
      "0x03cd191f589d12b0582a99808cf19851e468e6b500010000000000000000000a"
    ]
  ],
  "numDeployments": 3,
  "solcInputHash": "6ac432b775fb2f48386b1e996a1d3fd5",
  "bytecode": "0x6101806040527372928d5436ff65e57f72d5566dcd3baedc649a8873ffffffffffffffffffffffffffffffffffffffff1660809073ffffffffffffffffffffffffffffffffffffffff16815250732791bca1f2de4661ed88a30c99a7a9449aa8417473ffffffffffffffffffffffffffffffffffffffff1660a09073ffffffffffffffffffffffffffffffffffffffff16815250737ceb23fd6bc0add59e62ac25578270cff1b9f61973ffffffffffffffffffffffffffffffffffffffff1660c09073ffffffffffffffffffffffffffffffffffffffff168152507f03cd191f589d12b0582a99808cf19851e468e6b500010000000000000000000a60001b60e0908152507fb53f4e2f1e7a1b8b9d09d2f2739ac6753f5ba5cb00020000000000000000013760001b6101009081525073e39b5e3b6d74016b2f6a9673d7d7493b6df549d573ffffffffffffffffffffffffffffffffffffffff166101209073ffffffffffffffffffffffffffffffffffffffff1681525073ba12222222228d8ba445958a75a0704d566bf2c873ffffffffffffffffffffffffffffffffffffffff166101409073ffffffffffffffffffffffffffffffffffffffff16815250622625a061016090815250348015620001d757600080fd5b5060405162006b9938038062006b998339818101604052810190620001fd919062001118565b89600073ffffffffffffffffffffffffffffffffffffffff168173ffffffffffffffffffffffffffffffffffffffff1603620002735760006040517f1e4fbdf70000000000000000000000000000000000000000000000000000000081526004016200026a9190620012d9565b60405180910390fd5b6200028481620003ca60201b60201c565b506001808190555088600360006101000a81548173ffffffffffffffffffffffffffffffffffffffff021916908373ffffffffffffffffffffffffffffffffffffffff160217905550620002de876200048e60201b60201c565b620002f08686620004e360201b60201c565b620003028484620006d960201b60201c565b600a600960006101000a81548160ff021916908360ff16021790555089600260006101000a81548173ffffffffffffffffffffffffffffffffffffffff021916908373ffffffffffffffffffffffffffffffffffffffff1602179055506002600a8190555087600b60006101000a81548173ffffffffffffffffffffffffffffffffffffffff021916908373ffffffffffffffffffffffffffffffffffffffff160217905550620003ba82826200093060201b60201c565b505050505050505050506200138f565b60008060009054906101000a900473ffffffffffffffffffffffffffffffffffffffff169050816000806101000a81548173ffffffffffffffffffffffffffffffffffffffff021916908373ffffffffffffffffffffffffffffffffffffffff1602179055508173ffffffffffffffffffffffffffffffffffffffff168173ffffffffffffffffffffffffffffffffffffffff167f8be0079c531659141344cd1fd0a4f28419497f9722a3daafe3b4186f6b6457e060405160405180910390a35050565b6200049e62000b8760201b60201c565b60008103620004d9576040517f2aa244fe00000000000000000000000000000000000000000000000000000000815260040160405180910390fd5b8060048190555050565b620004f362000b8760201b60201c565b80518251146200052f576040517ff950c6c400000000000000000000000000000000000000000000000000000000815260040160405180910390fd5b81600890805190602001906200054792919062000c5a565b5060005b82518160ff161015620006d457600073ffffffffffffffffffffffffffffffffffffffff16838260ff1681518110620005895762000588620012f6565b5b602002602001015173ffffffffffffffffffffffffffffffffffffffff1603620005df576040517faa15487e00000000000000000000000000000000000000000000000000000000815260040160405180910390fd5b6000828260ff1681518110620005fa57620005f9620012f6565b5b6020026020010151036200063a576040517f2aa244fe00000000000000000000000000000000000000000000000000000000815260040160405180910390fd5b818160ff1681518110620006535762000652620012f6565b5b602002602001015160056000858460ff1681518110620006785762000677620012f6565b5b602002602001015173ffffffffffffffffffffffffffffffffffffffff1673ffffffffffffffffffffffffffffffffffffffff168152602001908152602001600020819055508080620006cb9062001361565b9150506200054b565b505050565b620006e962000b8760201b60201c565b600082510362000725576040517ff950c6c400000000000000000000000000000000000000000000000000000000815260040160405180910390fd5b600081510362000761576040517ff950c6c400000000000000000000000000000000000000000000000000000000815260040160405180910390fd5b80518251146200079d576040517ff950c6c400000000000000000000000000000000000000000000000000000000815260040160405180910390fd5b60005b82518160ff1610156200092b57600073ffffffffffffffffffffffffffffffffffffffff16838260ff1681518110620007de57620007dd620012f6565b5b602002602001015173ffffffffffffffffffffffffffffffffffffffff160362000834576040517faa15487e00000000000000000000000000000000000000000000000000000000815260040160405180910390fd5b6000801b828260ff1681518110620008515762000850620012f6565b5b60200260200101510362000891576040517f2aa244fe00000000000000000000000000000000000000000000000000000000815260040160405180910390fd5b818160ff1681518110620008aa57620008a9620012f6565b5b602002602001015160066000858460ff1681518110620008cf57620008ce620012f6565b5b602002602001015173ffffffffffffffffffffffffffffffffffffffff1673ffffffffffffffffffffffffffffffffffffffff168152602001908152602001600020819055508080620009229062001361565b915050620007a0565b505050565b6200094062000b8760201b60201c565b60008251036200097c576040517ff950c6c400000000000000000000000000000000000000000000000000000000815260040160405180910390fd5b6000815103620009b8576040517ff950c6c400000000000000000000000000000000000000000000000000000000815260040160405180910390fd5b8051825114620009f4576040517ff950c6c400000000000000000000000000000000000000000000000000000000815260040160405180910390fd5b60005b82518160ff16101562000b8257600073ffffffffffffffffffffffffffffffffffffffff16838260ff168151811062000a355762000a34620012f6565b5b602002602001015173ffffffffffffffffffffffffffffffffffffffff160362000a8b576040517faa15487e00000000000000000000000000000000000000000000000000000000815260040160405180910390fd5b6000801b828260ff168151811062000aa85762000aa7620012f6565b5b60200260200101510362000ae8576040517f2aa244fe00000000000000000000000000000000000000000000000000000000815260040160405180910390fd5b818160ff168151811062000b015762000b00620012f6565b5b602002602001015160076000858460ff168151811062000b265762000b25620012f6565b5b602002602001015173ffffffffffffffffffffffffffffffffffffffff1673ffffffffffffffffffffffffffffffffffffffff16815260200190815260200160002081905550808062000b799062001361565b915050620009f7565b505050565b62000b9762000c2960201b60201c565b73ffffffffffffffffffffffffffffffffffffffff1662000bbd62000c3160201b60201c565b73ffffffffffffffffffffffffffffffffffffffff161462000c275762000be962000c2960201b60201c565b6040517f118cdaa700000000000000000000000000000000000000000000000000000000815260040162000c1e9190620012d9565b60405180910390fd5b565b600033905090565b60008060009054906101000a900473ffffffffffffffffffffffffffffffffffffffff16905090565b82805482825590600052602060002090810192821562000cd6579160200282015b8281111562000cd55782518260006101000a81548173ffffffffffffffffffffffffffffffffffffffff021916908373ffffffffffffffffffffffffffffffffffffffff1602179055509160200191906001019062000c7b565b5b50905062000ce5919062000ce9565b5090565b5b8082111562000d0457600081600090555060010162000cea565b5090565b6000604051905090565b600080fd5b600080fd5b600073ffffffffffffffffffffffffffffffffffffffff82169050919050565b600062000d498262000d1c565b9050919050565b62000d5b8162000d3c565b811462000d6757600080fd5b50565b60008151905062000d7b8162000d50565b92915050565b6000819050919050565b62000d968162000d81565b811462000da257600080fd5b50565b60008151905062000db68162000d8b565b92915050565b600080fd5b6000601f19601f8301169050919050565b7f4e487b7100000000000000000000000000000000000000000000000000000000600052604160045260246000fd5b62000e0c8262000dc1565b810181811067ffffffffffffffff8211171562000e2e5762000e2d62000dd2565b5b80604052505050565b600062000e4362000d08565b905062000e51828262000e01565b919050565b600067ffffffffffffffff82111562000e745762000e7362000dd2565b5b602082029050602081019050919050565b600080fd5b600062000ea162000e9b8462000e56565b62000e37565b9050808382526020820190506020840283018581111562000ec75762000ec662000e85565b5b835b8181101562000ef4578062000edf888262000d6a565b84526020840193505060208101905062000ec9565b5050509392505050565b600082601f83011262000f165762000f1562000dbc565b5b815162000f2884826020860162000e8a565b91505092915050565b600067ffffffffffffffff82111562000f4f5762000f4e62000dd2565b5b602082029050602081019050919050565b600062000f7762000f718462000f31565b62000e37565b9050808382526020820190506020840283018581111562000f9d5762000f9c62000e85565b5b835b8181101562000fca578062000fb5888262000da5565b84526020840193505060208101905062000f9f565b5050509392505050565b600082601f83011262000fec5762000feb62000dbc565b5b815162000ffe84826020860162000f60565b91505092915050565b600067ffffffffffffffff82111562001025576200102462000dd2565b5b602082029050602081019050919050565b6000819050919050565b6200104b8162001036565b81146200105757600080fd5b50565b6000815190506200106b8162001040565b92915050565b600062001088620010828462001007565b62000e37565b90508083825260208201905060208402830185811115620010ae57620010ad62000e85565b5b835b81811015620010db5780620010c688826200105a565b845260208401935050602081019050620010b0565b5050509392505050565b600082601f830112620010fd57620010fc62000dbc565b5b81516200110f84826020860162001071565b91505092915050565b6000806000806000806000806000806101408b8d0312156200113f576200113e62000d12565b5b60006200114f8d828e0162000d6a565b9a50506020620011628d828e0162000d6a565b9950506040620011758d828e0162000d6a565b9850506060620011888d828e0162000da5565b97505060808b015167ffffffffffffffff811115620011ac57620011ab62000d17565b5b620011ba8d828e0162000efe565b96505060a08b015167ffffffffffffffff811115620011de57620011dd62000d17565b5b620011ec8d828e0162000fd4565b95505060c08b015167ffffffffffffffff81111562001210576200120f62000d17565b5b6200121e8d828e0162000efe565b94505060e08b015167ffffffffffffffff81111562001242576200124162000d17565b5b620012508d828e01620010e5565b9350506101008b015167ffffffffffffffff81111562001275576200127462000d17565b5b620012838d828e0162000efe565b9250506101208b015167ffffffffffffffff811115620012a857620012a762000d17565b5b620012b68d828e01620010e5565b9150509295989b9194979a5092959850565b620012d38162000d3c565b82525050565b6000602082019050620012f06000830184620012c8565b92915050565b7f4e487b7100000000000000000000000000000000000000000000000000000000600052603260045260246000fd5b7f4e487b7100000000000000000000000000000000000000000000000000000000600052601160045260246000fd5b600060ff82169050919050565b60006200136e8262001354565b915060ff820362001384576200138362001325565b5b600182019050919050565b60805160a05160c05160e0516101005161012051610140516101605161574162001458600039600081816109150152610995015260008181613023015281816130a6015281816135270152613a3001526000612bc50152600050506000818161070d015281816130ed01526132c701526000818161072e01528181610786015281816108b30152818161185701528181611add01528181612f8d015261380a01526000818161074f01528181611b900152818161314801526132a60152600050506157416000f3fe608060405234801561001057600080fd5b50600436106101c45760003560e01c8063813e47bf116100f9578063cd5edd3411610097578063f2fde38b11610071578063f2fde38b146104c7578063f74d5480146104e3578063f95a1f5c14610501578063fcd3533c1461051d576101c4565b8063cd5edd341461044b578063ce5494bb1461047b578063d675778314610497576101c4565b8063a4f84767116100d3578063a4f84767146103db578063b6895b5f146103f7578063be5e562914610413578063c61a20f31461042f576101c4565b8063813e47bf146103715780638da5cb5b146103a157806394bf804d146103bf576101c4565b80633db211e81161016657806356a1c7011161014057806356a1c701146103115780635aff59991461032d578063715018a61461034b57806378884dfb14610355576101c4565b80633db211e8146102bb5780634ec7fb81146102d757806351cff8d9146102f5576101c4565b8063239c70ae116101a2578063239c70ae1461022157806328297b3a1461023f5780632b57cfbb1461026f57806336bfc2641461029f576101c4565b806301f19a53146101c9578063088a4ed0146101e75780630d22282b14610203575b600080fd5b6101d1610539565b6040516101de9190613ea5565b60405180910390f35b61020160048036038101906101fc9190613f00565b61053f565b005b61020b61058b565b6040516102189190613f49565b60405180910390f35b61022961059e565b6040516102369190613ea5565b60405180910390f35b61025960048036038101906102549190613f00565b6105a4565b6040516102669190613fa5565b60405180910390f35b61028960048036038101906102849190613fec565b6105e3565b6040516102969190613ea5565b60405180910390f35b6102b960048036038101906102b4919061402c565b6109e9565b005b6102d560048036038101906102d09190614275565b610a9b565b005b6102df610c74565b6040516102ec9190613fa5565b60405180910390f35b61030f600480360381019061030a919061402c565b610c9a565b005b61032b6004803603810190610326919061402c565b610da7565b005b610335610e59565b6040516103429190613fa5565b60405180910390f35b610353610e7f565b005b61036f600480360381019061036a9190614319565b610e93565b005b61038b6004803603810190610386919061402c565b610ef6565b6040516103989190613ea5565b60405180910390f35b6103a9610f0e565b6040516103b69190613fa5565b60405180910390f35b6103d960048036038101906103d49190613fec565b610f37565b005b6103f560048036038101906103f09190614275565b611443565b005b610411600480360381019061040c91906143fb565b611692565b005b61042d60048036038101906104289190614577565b611ccc565b005b61044960048036038101906104449190614577565b611f06565b005b6104656004803603810190610460919061402c565b612140565b60405161047291906145fe565b60405180910390f35b6104956004803603810190610490919061402c565b612158565b005b6104b160048036038101906104ac919061402c565b6123fb565b6040516104be91906145fe565b60405180910390f35b6104e160048036038101906104dc919061402c565b612413565b005b6104eb612499565b6040516104f89190613fa5565b60405180910390f35b61051b60048036038101906105169190613f00565b6124bf565b005b61053760048036038101906105329190613fec565b61250b565b005b600a5481565b6105476128e5565b60008103610581576040517f2aa244fe00000000000000000000000000000000000000000000000000000000815260040160405180910390fd5b8060048190555050565b600960009054906101000a900460ff1681565b60045481565b600881815481106105b457600080fd5b906000526020600020016000915054906101000a900473ffffffffffffffffffffffffffffffffffffffff1681565b600080830361061e576040517f2aa244fe00000000000000000000000000000000000000000000000000000000815260040160405180910390fd5b600073ffffffffffffffffffffffffffffffffffffffff168273ffffffffffffffffffffffffffffffffffffffff1603610684576040517faa15487e00000000000000000000000000000000000000000000000000000000815260040160405180910390fd5b60008273ffffffffffffffffffffffffffffffffffffffff1663313ce5676040518163ffffffff1660e01b8152600401602060405180830381865afa1580156106d1573d6000803e3d6000fd5b505050506040513d601f19601f820116820180604052508101906106f5919061462e565b9050600064e8d4a51000610773670de0b6b3a76400007f00000000000000000000000000000000000000000000000000000000000000007f00000000000000000000000000000000000000000000000000000000000000007f000000000000000000000000000000000000000000000000000000000000000061296c565b61077d919061468a565b905060008190507f000000000000000000000000000000000000000000000000000000000000000073ffffffffffffffffffffffffffffffffffffffff168573ffffffffffffffffffffffffffffffffffffffff1614610984576000801b600660008773ffffffffffffffffffffffffffffffffffffffff1673ffffffffffffffffffffffffffffffffffffffff1681526020019081526020016000205403610852576040517f2aa244fe00000000000000000000000000000000000000000000000000000000815260040160405180910390fd5b60006108d784600a61086491906147ff565b6001610870919061468a565b600660008973ffffffffffffffffffffffffffffffffffffffff1673ffffffffffffffffffffffffffffffffffffffff16815260200190815260200160002054887f000000000000000000000000000000000000000000000000000000000000000061296c565b9050670de0b6b3a764000083826108ee919061468a565b6108f89190614879565b9150670de0b6b3a764000082670de0b6b3a764000064e8d4a510007f000000000000000000000000000000000000000000000000000000000000000061093e919061468a565b662386f26fc100008b610951919061468a565b61095b919061468a565b6109659190614879565b61096f9190614879565b610979919061468a565b9450505050506109e3565b80662386f26fc1000064e8d4a510007f00000000000000000000000000000000000000000000000000000000000000006109be919061468a565b886109c9919061468a565b6109d3919061468a565b6109dd9190614879565b93505050505b92915050565b6109f16128e5565b600073ffffffffffffffffffffffffffffffffffffffff168173ffffffffffffffffffffffffffffffffffffffff1603610a57576040517faa15487e00000000000000000000000000000000000000000000000000000000815260040160405180910390fd5b80600b60006101000a81548173ffffffffffffffffffffffffffffffffffffffff021916908373ffffffffffffffffffffffffffffffffffffffff16021790555050565b610aa36128e5565b8051825114610ade576040517ff950c6c400000000000000000000000000000000000000000000000000000000815260040160405180910390fd5b8160089080519060200190610af4929190613db3565b5060005b82518160ff161015610c6f57600073ffffffffffffffffffffffffffffffffffffffff16838260ff1681518110610b3257610b316148aa565b5b602002602001015173ffffffffffffffffffffffffffffffffffffffff1603610b87576040517faa15487e00000000000000000000000000000000000000000000000000000000815260040160405180910390fd5b6000828260ff1681518110610b9f57610b9e6148aa565b5b602002602001015103610bde576040517f2aa244fe00000000000000000000000000000000000000000000000000000000815260040160405180910390fd5b818160ff1681518110610bf457610bf36148aa565b5b602002602001015160056000858460ff1681518110610c1657610c156148aa565b5b602002602001015173ffffffffffffffffffffffffffffffffffffffff1673ffffffffffffffffffffffffffffffffffffffff168152602001908152602001600020819055508080610c67906148d9565b915050610af8565b505050565b600360009054906101000a900473ffffffffffffffffffffffffffffffffffffffff1681565b610ca26128e5565b610caa612c6d565b600081905060008173ffffffffffffffffffffffffffffffffffffffff166370a08231306040518263ffffffff1660e01b8152600401610cea9190613fa5565b602060405180830381865afa158015610d07573d6000803e3d6000fd5b505050506040513d601f19601f82011682018060405250810190610d2b9190614917565b9050610d5f610d38610f0e565b828473ffffffffffffffffffffffffffffffffffffffff16612cb39092919063ffffffff16565b7f37e8063b72a944a76de602f32b82fd8c2a1c6f99564c727ffaf913c7762cd420818442604051610d9293929190614944565b60405180910390a15050610da4612d32565b50565b610daf6128e5565b600073ffffffffffffffffffffffffffffffffffffffff168173ffffffffffffffffffffffffffffffffffffffff1603610e15576040517faa15487e00000000000000000000000000000000000000000000000000000000815260040160405180910390fd5b80600260006101000a81548173ffffffffffffffffffffffffffffffffffffffff021916908373ffffffffffffffffffffffffffffffffffffffff16021790555050565b600b60009054906101000a900473ffffffffffffffffffffffffffffffffffffffff1681565b610e876128e5565b610e916000612d3b565b565b610e9b6128e5565b60008160ff1603610ed8576040517f2aa244fe00000000000000000000000000000000000000000000000000000000815260040160405180910390fd5b80600960006101000a81548160ff021916908360ff16021790555050565b60056020528060005260406000206000915090505481565b60008060009054906101000a900473ffffffffffffffffffffffffffffffffffffffff16905090565b610f3f612c6d565b6005821015610f83576040517fb132ad4a000000000000000000000000000000000000000000000000000000008152600401610f7a906149fe565b60405180910390fd5b600454821115610fbf576040517fcaeeffdb00000000000000000000000000000000000000000000000000000000815260040160405180910390fd5b6000600583610fce9190614a1e565b1461100e576040517fb132ad4a00000000000000000000000000000000000000000000000000000000815260040161100590614a9b565b60405180910390fd5b600073ffffffffffffffffffffffffffffffffffffffff168173ffffffffffffffffffffffffffffffffffffffff1603611074576040517faa15487e00000000000000000000000000000000000000000000000000000000815260040160405180910390fd5b6000600560008373ffffffffffffffffffffffffffffffffffffffff1673ffffffffffffffffffffffffffffffffffffffff16815260200190815260200160002054036110ed576040517f2aa244fe00000000000000000000000000000000000000000000000000000000815260040160405180910390fd5b600081905060006110fc612dff565b9050600084600560008673ffffffffffffffffffffffffffffffffffffffff1673ffffffffffffffffffffffffffffffffffffffff1681526020019081526020016000205461114b919061468a565b90506000606460508361115e919061468a565b6111689190614879565b9050600081836111789190614abb565b905060008573ffffffffffffffffffffffffffffffffffffffff1663dd62ed3e86306040518363ffffffff1660e01b81526004016111b7929190614aef565b602060405180830381865afa1580156111d4573d6000803e3d6000fd5b505050506040513d601f19601f820116820180604052508101906111f89190614917565b90506064846112079190614879565b811015611249576040517f08c379a000000000000000000000000000000000000000000000000000000000815260040161124090614b64565b60405180910390fd5b611282853060648761125b9190614879565b8973ffffffffffffffffffffffffffffffffffffffff16612e07909392919063ffffffff16565b600360009054906101000a900473ffffffffffffffffffffffffffffffffffffffff1673ffffffffffffffffffffffffffffffffffffffff166340c10f19868a6040518363ffffffff1660e01b81526004016112df929190614b84565b600060405180830381600087803b1580156112f957600080fd5b505af115801561130d573d6000803e3d6000fd5b505050508573ffffffffffffffffffffffffffffffffffffffff1663a9059cbb600b60009054906101000a900473ffffffffffffffffffffffffffffffffffffffff1660648561135d9190614879565b6040518363ffffffff1660e01b815260040161137a929190614b84565b6020604051808303816000875af1158015611399573d6000803e3d6000fd5b505050506040513d601f19601f820116820180604052508101906113bd9190614be5565b508673ffffffffffffffffffffffffffffffffffffffff168573ffffffffffffffffffffffffffffffffffffffff167ff3f9b81b1aa7af42b83e33d01a22621ecf67d5ebeb4587a4d63e3737276076818a60648861141b9190614879565b604051611429929190614c12565b60405180910390a350505050505061143f612d32565b5050565b61144b6128e5565b6000825103611486576040517ff950c6c400000000000000000000000000000000000000000000000000000000815260040160405180910390fd5b60008151036114c1576040517ff950c6c400000000000000000000000000000000000000000000000000000000815260040160405180910390fd5b81518151146114fc576040517ff950c6c400000000000000000000000000000000000000000000000000000000815260040160405180910390fd5b8160089080519060200190611512929190613db3565b5060005b82518160ff16101561168d57600073ffffffffffffffffffffffffffffffffffffffff16838260ff16815181106115505761154f6148aa565b5b602002602001015173ffffffffffffffffffffffffffffffffffffffff16036115a5576040517faa15487e00000000000000000000000000000000000000000000000000000000815260040160405180910390fd5b6000828260ff16815181106115bd576115bc6148aa565b5b6020026020010151036115fc576040517f2aa244fe00000000000000000000000000000000000000000000000000000000815260040160405180910390fd5b818160ff1681518110611612576116116148aa565b5b602002602001015160056000858460ff1681518110611634576116336148aa565b5b602002602001015173ffffffffffffffffffffffffffffffffffffffff1673ffffffffffffffffffffffffffffffffffffffff168152602001908152602001600020819055508080611685906148d9565b915050611516565b505050565b61169a612c6d565b600084036116d4576040517f2aa244fe00000000000000000000000000000000000000000000000000000000815260040160405180910390fd5b600454841115611710576040517fcaeeffdb00000000000000000000000000000000000000000000000000000000815260040160405180910390fd5b6005841015611754576040517fb132ad4a00000000000000000000000000000000000000000000000000000000815260040161174b906149fe565b60405180910390fd5b60006005856117639190614a1e565b146117a3576040517fb132ad4a00000000000000000000000000000000000000000000000000000000815260040161179a90614a9b565b60405180910390fd5b600073ffffffffffffffffffffffffffffffffffffffff168373ffffffffffffffffffffffffffffffffffffffff1603611809576040517faa15487e00000000000000000000000000000000000000000000000000000000815260040160405180910390fd5b6000801b600660008573ffffffffffffffffffffffffffffffffffffffff1673ffffffffffffffffffffffffffffffffffffffff168152602001908152602001600020541480156118a657507f000000000000000000000000000000000000000000000000000000000000000073ffffffffffffffffffffffffffffffffffffffff168373ffffffffffffffffffffffffffffffffffffffff1614155b156118dd576040517f2aa244fe00000000000000000000000000000000000000000000000000000000815260040160405180910390fd5b60006118e7612dff565b90506000836040516020016118fc9190614c5c565b604051602081830303815290604052805190602001209050600061191f82612e89565b90506000611950600260009054906101000a900473ffffffffffffffffffffffffffffffffffffffff168387612ebf565b905080611989576040517f8baa579f00000000000000000000000000000000000000000000000000000000815260040160405180910390fd5b600061199589896105e3565b905060006064600960009054906101000a900460ff1660ff16836119b9919061468a565b6119c39190614879565b90508781836119d29190614c77565b10806119e857508781836119e69190614abb565b115b15611a1f576040517f76d2539a00000000000000000000000000000000000000000000000000000000815260040160405180910390fd5b611a4c8630848c73ffffffffffffffffffffffffffffffffffffffff16612e07909392919063ffffffff16565b600360009054906101000a900473ffffffffffffffffffffffffffffffffffffffff1673ffffffffffffffffffffffffffffffffffffffff166340c10f19878c6040518363ffffffff1660e01b8152600401611aa9929190614b84565b600060405180830381600087803b158015611ac357600080fd5b505af1158015611ad7573d6000803e3d6000fd5b505050507f000000000000000000000000000000000000000000000000000000000000000073ffffffffffffffffffffffffffffffffffffffff168973ffffffffffffffffffffffffffffffffffffffff1603611b3c57611b3782612f4f565b611b47565b611b46828a613265565b5b6000606461271060198d611b5b919061468a565b611b65919061468a565b611b6f9190614879565b90506000600a601483611b82919061468a565b611b8c9190614879565b90507f000000000000000000000000000000000000000000000000000000000000000073ffffffffffffffffffffffffffffffffffffffff1663a9059cbb600b60009054906101000a900473ffffffffffffffffffffffffffffffffffffffff16836040518363ffffffff1660e01b8152600401611c0b929190614b84565b6020604051808303816000875af1158015611c2a573d6000803e3d6000fd5b505050506040513d601f19601f82011682018060405250810190611c4e9190614be5565b508a73ffffffffffffffffffffffffffffffffffffffff168873ffffffffffffffffffffffffffffffffffffffff167ff3f9b81b1aa7af42b83e33d01a22621ecf67d5ebeb4587a4d63e3737276076818e87604051611cae929190614c12565b60405180910390a35050505050505050611cc6612d32565b50505050565b611cd46128e5565b6000825103611d0f576040517ff950c6c400000000000000000000000000000000000000000000000000000000815260040160405180910390fd5b6000815103611d4a576040517ff950c6c400000000000000000000000000000000000000000000000000000000815260040160405180910390fd5b8051825114611d85576040517ff950c6c400000000000000000000000000000000000000000000000000000000815260040160405180910390fd5b60005b82518160ff161015611f0157600073ffffffffffffffffffffffffffffffffffffffff16838260ff1681518110611dc257611dc16148aa565b5b602002602001015173ffffffffffffffffffffffffffffffffffffffff1603611e17576040517faa15487e00000000000000000000000000000000000000000000000000000000815260040160405180910390fd5b6000801b828260ff1681518110611e3157611e306148aa565b5b602002602001015103611e70576040517f2aa244fe00000000000000000000000000000000000000000000000000000000815260040160405180910390fd5b818160ff1681518110611e8657611e856148aa565b5b602002602001015160076000858460ff1681518110611ea857611ea76148aa565b5b602002602001015173ffffffffffffffffffffffffffffffffffffffff1673ffffffffffffffffffffffffffffffffffffffff168152602001908152602001600020819055508080611ef9906148d9565b915050611d88565b505050565b611f0e6128e5565b6000825103611f49576040517ff950c6c400000000000000000000000000000000000000000000000000000000815260040160405180910390fd5b6000815103611f84576040517ff950c6c400000000000000000000000000000000000000000000000000000000815260040160405180910390fd5b8051825114611fbf576040517ff950c6c400000000000000000000000000000000000000000000000000000000815260040160405180910390fd5b60005b82518160ff16101561213b57600073ffffffffffffffffffffffffffffffffffffffff16838260ff1681518110611ffc57611ffb6148aa565b5b602002602001015173ffffffffffffffffffffffffffffffffffffffff1603612051576040517faa15487e00000000000000000000000000000000000000000000000000000000815260040160405180910390fd5b6000801b828260ff168151811061206b5761206a6148aa565b5b6020026020010151036120aa576040517f2aa244fe00000000000000000000000000000000000000000000000000000000815260040160405180910390fd5b818160ff16815181106120c0576120bf6148aa565b5b602002602001015160066000858460ff16815181106120e2576120e16148aa565b5b602002602001015173ffffffffffffffffffffffffffffffffffffffff1673ffffffffffffffffffffffffffffffffffffffff168152602001908152602001600020819055508080612133906148d9565b915050611fc2565b505050565b60066020528060005260406000206000915090505481565b6121606128e5565b612168612c6d565b600073ffffffffffffffffffffffffffffffffffffffff168173ffffffffffffffffffffffffffffffffffffffff16036121d7576040517f08c379a00000000000000000000000000000000000000000000000000000000081526004016121ce90614cf7565b60405180910390fd5b60005b6008805490508110156123ef576000600882815481106121fd576121fc6148aa565b5b9060005260206000200160009054906101000a900473ffffffffffffffffffffffffffffffffffffffff16905060008173ffffffffffffffffffffffffffffffffffffffff166370a08231306040518263ffffffff1660e01b81526004016122659190613fa5565b602060405180830381865afa158015612282573d6000803e3d6000fd5b505050506040513d601f19601f820116820180604052508101906122a69190614917565b905060008111156123da5760008273ffffffffffffffffffffffffffffffffffffffff1663a9059cbb86846040518363ffffffff1660e01b81526004016122ee929190614b84565b6020604051808303816000875af115801561230d573d6000803e3d6000fd5b505050506040513d601f19601f820116820180604052508101906123319190614be5565b905080612373576040517f08c379a000000000000000000000000000000000000000000000000000000000815260040161236a90614d63565b60405180910390fd5b8473ffffffffffffffffffffffffffffffffffffffff168373ffffffffffffffffffffffffffffffffffffffff167f39ff1576caf5e264e5bbbacaebb8cc991095027fb6767760a6999f8a99da5c57846040516123d09190613ea5565b60405180910390a3505b505080806123e790614d83565b9150506121da565b506123f8612d32565b50565b60076020528060005260406000206000915090505481565b61241b6128e5565b600073ffffffffffffffffffffffffffffffffffffffff168173ffffffffffffffffffffffffffffffffffffffff160361248d5760006040517f1e4fbdf70000000000000000000000000000000000000000000000000000000081526004016124849190613fa5565b60405180910390fd5b61249681612d3b565b50565b600260009054906101000a900473ffffffffffffffffffffffffffffffffffffffff1681565b6124c76128e5565b60008103612501576040517f2aa244fe00000000000000000000000000000000000000000000000000000000815260040160405180910390fd5b80600a8190555050565b612513612c6d565b6000820361254d576040517f2aa244fe00000000000000000000000000000000000000000000000000000000815260040160405180910390fd5b600073ffffffffffffffffffffffffffffffffffffffff168173ffffffffffffffffffffffffffffffffffffffff16036125b3576040517faa15487e00000000000000000000000000000000000000000000000000000000815260040160405180910390fd5b60006125bd612dff565b905060008290506000600360009054906101000a900473ffffffffffffffffffffffffffffffffffffffff1673ffffffffffffffffffffffffffffffffffffffff1663313ce5676040518163ffffffff1660e01b8152600401602060405180830381865afa158015612633573d6000803e3d6000fd5b505050506040513d601f19601f82011682018060405250810190612657919061462e565b600a61266391906147ff565b8273ffffffffffffffffffffffffffffffffffffffff1663313ce5676040518163ffffffff1660e01b8152600401602060405180830381865afa1580156126ae573d6000803e3d6000fd5b505050506040513d601f19601f820116820180604052508101906126d2919061462e565b600a6126de91906147ff565b86600a546126ec919061468a565b6126f6919061468a565b6127009190614879565b9050808273ffffffffffffffffffffffffffffffffffffffff166370a08231306040518263ffffffff1660e01b815260040161273c9190613fa5565b602060405180830381865afa158015612759573d6000803e3d6000fd5b505050506040513d601f19601f8201168201806040525081019061277d9190614917565b10156127b5576040517f81b5ad6800000000000000000000000000000000000000000000000000000000815260040160405180910390fd5b600360009054906101000a900473ffffffffffffffffffffffffffffffffffffffff1673ffffffffffffffffffffffffffffffffffffffff16639dc29fac84876040518363ffffffff1660e01b8152600401612812929190614b84565b600060405180830381600087803b15801561282c57600080fd5b505af1158015612840573d6000803e3d6000fd5b5050505061286f83828473ffffffffffffffffffffffffffffffffffffffff16612cb39092919063ffffffff16565b8373ffffffffffffffffffffffffffffffffffffffff168373ffffffffffffffffffffffffffffffffffffffff167f9eaa2feeb3b37bf70a72e15de2e6e61b6f2060b2fb40839961c26bbc238dd20287846040516128ce929190614c12565b60405180910390a35050506128e1612d32565b5050565b6128ed612dff565b73ffffffffffffffffffffffffffffffffffffffff1661290b610f0e565b73ffffffffffffffffffffffffffffffffffffffff161461296a5761292e612dff565b6040517f118cdaa70000000000000000000000000000000000000000000000000000000081526004016129619190613fa5565b60405180910390fd5b565b60008085036129a7576040517f2aa244fe00000000000000000000000000000000000000000000000000000000815260040160405180910390fd5b6000801b84036129e3576040517f2aa244fe00000000000000000000000000000000000000000000000000000000815260040160405180910390fd5b600073ffffffffffffffffffffffffffffffffffffffff168373ffffffffffffffffffffffffffffffffffffffff1603612a49576040517faa15487e00000000000000000000000000000000000000000000000000000000815260040160405180910390fd5b600073ffffffffffffffffffffffffffffffffffffffff168273ffffffffffffffffffffffffffffffffffffffff1603612aaf576040517faa15487e00000000000000000000000000000000000000000000000000000000815260040160405180910390fd5b60006040518060c0016040528086815260200160006001811115612ad657612ad5614dcb565b5b81526020018573ffffffffffffffffffffffffffffffffffffffff1681526020018473ffffffffffffffffffffffffffffffffffffffff168152602001878152602001600067ffffffffffffffff811115612b3457612b3361406f565b5b6040519080825280601f01601f191660200182016040528015612b665781602001600182028036833780820191505090505b508152509050600060405180608001604052803073ffffffffffffffffffffffffffffffffffffffff1681526020016000151581526020013073ffffffffffffffffffffffffffffffffffffffff1681526020016000151581525090507f000000000000000000000000000000000000000000000000000000000000000073ffffffffffffffffffffffffffffffffffffffff1663e969f6b383836040518363ffffffff1660e01b8152600401612c1e92919061505b565b6020604051808303816000875af1158015612c3d573d6000803e3d6000fd5b505050506040513d601f19601f82011682018060405250810190612c619190614917565b92505050949350505050565b600260015403612ca9576040517f3ee5aeb500000000000000000000000000000000000000000000000000000000815260040160405180910390fd5b6002600181905550565b612d2d838473ffffffffffffffffffffffffffffffffffffffff1663a9059cbb8585604051602401612ce6929190614b84565b604051602081830303815290604052915060e01b6020820180517bffffffffffffffffffffffffffffffffffffffffffffffffffffffff83818316178352505050506132f0565b505050565b60018081905550565b60008060009054906101000a900473ffffffffffffffffffffffffffffffffffffffff169050816000806101000a81548173ffffffffffffffffffffffffffffffffffffffff021916908373ffffffffffffffffffffffffffffffffffffffff1602179055508173ffffffffffffffffffffffffffffffffffffffff168173ffffffffffffffffffffffffffffffffffffffff167f8be0079c531659141344cd1fd0a4f28419497f9722a3daafe3b4186f6b6457e060405160405180910390a35050565b600033905090565b612e83848573ffffffffffffffffffffffffffffffffffffffff166323b872dd868686604051602401612e3c9392919061508b565b604051602081830303815290604052915060e01b6020820180517bffffffffffffffffffffffffffffffffffffffffffffffffffffffff83818316178352505050506132f0565b50505050565b60007f19457468657265756d205369676e6564204d6573736167653a0a33320000000060005281601c52603c6000209050919050565b6000806000612ece8585613387565b509150915060006003811115612ee757612ee6614dcb565b5b816003811115612efa57612ef9614dcb565b5b148015612f3257508573ffffffffffffffffffffffffffffffffffffffff168273ffffffffffffffffffffffffffffffffffffffff16145b80612f445750612f438686866133e3565b5b925050509392505050565b60008103612f89576040517f2aa244fe00000000000000000000000000000000000000000000000000000000815260040160405180910390fd5b60007f00000000000000000000000000000000000000000000000000000000000000009050600060405180608001604052803073ffffffffffffffffffffffffffffffffffffffff1681526020016000151581526020013073ffffffffffffffffffffffffffffffffffffffff1681526020016000151581525090508173ffffffffffffffffffffffffffffffffffffffff1663095ea7b37f0000000000000000000000000000000000000000000000000000000000000000856040518363ffffffff1660e01b8152600401613060929190614b84565b6020604051808303816000875af115801561307f573d6000803e3d6000fd5b505050506040513d601f19601f820116820180604052508101906130a39190614be5565b507f000000000000000000000000000000000000000000000000000000000000000073ffffffffffffffffffffffffffffffffffffffff166352bbbe296040518060c001604052807f000000000000000000000000000000000000000000000000000000000000000081526020016000600181111561312557613124614dcb565b5b81526020018573ffffffffffffffffffffffffffffffffffffffff1681526020017f000000000000000000000000000000000000000000000000000000000000000073ffffffffffffffffffffffffffffffffffffffff168152602001868152602001600067ffffffffffffffff8111156131a3576131a261406f565b5b6040519080825280601f01601f1916602001820160405280156131d55781602001600182028036833780820191505090505b508152508360007fffffffffffffffffffffffffffffffffffffffffffffffffffffffffffffffff6040518563ffffffff1660e01b815260040161321c94939291906150fd565b6020604051808303816000875af115801561323b573d6000803e3d6000fd5b505050506040513d601f19601f8201168201806040525081019061325f9190614917565b50505050565b6000820361329f576040517f2aa244fe00000000000000000000000000000000000000000000000000000000815260040160405180910390fd5b6132eb82827f00000000000000000000000000000000000000000000000000000000000000007f0000000000000000000000000000000000000000000000000000000000000000613507565b505050565b600061331b828473ffffffffffffffffffffffffffffffffffffffff16613b0890919063ffffffff16565b9050600081511415801561334057508080602001905181019061333e9190614be5565b155b1561338257826040517f5274afe70000000000000000000000000000000000000000000000000000000081526004016133799190613fa5565b60405180910390fd5b505050565b600080600060418451036133cc5760008060006020870151925060408701519150606087015160001a90506133be88828585613b1e565b9550955095505050506133dc565b60006002855160001b9250925092505b9250925092565b60008060008573ffffffffffffffffffffffffffffffffffffffff168585604051602401613412929190615193565b604051602081830303815290604052631626ba7e60e01b6020820180517bffffffffffffffffffffffffffffffffffffffffffffffffffffffff838183161783525050505060405161346491906151ff565b600060405180830381855afa9150503d806000811461349f576040519150601f19603f3d011682016040523d82523d6000602084013e6134a4565b606091505b50915091508180156134b857506020815110155b80156134fc5750631626ba7e60e01b7bffffffffffffffffffffffffffffffffffffffffffffffffffffffff1916818060200190518101906134fa919061522b565b145b925050509392505050565b60608373ffffffffffffffffffffffffffffffffffffffff1663095ea7b37f0000000000000000000000000000000000000000000000000000000000000000876040518363ffffffff1660e01b8152600401613564929190614b84565b6020604051808303816000875af1158015613583573d6000803e3d6000fd5b505050506040513d601f19601f820116820180604052508101906135a79190614be5565b506000600267ffffffffffffffff8111156135c5576135c461406f565b5b6040519080825280602002602001820160405280156135fe57816020015b6135eb613e3d565b8152602001906001900390816135e35790505b5090506040518060a00160405280600660008873ffffffffffffffffffffffffffffffffffffffff1673ffffffffffffffffffffffffffffffffffffffff1681526020019081526020016000205481526020016000815260200160018152602001878152602001600067ffffffffffffffff8111156136805761367f61406f565b5b6040519080825280601f01601f1916602001820160405280156136b25781602001600182028036833780820191505090505b50815250816000815181106136ca576136c96148aa565b5b60200260200101819052506040518060a00160405280848152602001600181526020016002815260200160008152602001600067ffffffffffffffff8111156137165761371561406f565b5b6040519080825280601f01601f1916602001820160405280156137485781602001600182028036833780820191505090505b50815250816001815181106137605761375f6148aa565b5b60200260200101819052506000600367ffffffffffffffff8111156137885761378761406f565b5b6040519080825280602002602001820160405280156137b65781602001602082028036833780820191505090505b50905085816000815181106137ce576137cd6148aa565b5b602002602001019073ffffffffffffffffffffffffffffffffffffffff16908173ffffffffffffffffffffffffffffffffffffffff16815250507f00000000000000000000000000000000000000000000000000000000000000008160018151811061383d5761383c6148aa565b5b602002602001019073ffffffffffffffffffffffffffffffffffffffff16908173ffffffffffffffffffffffffffffffffffffffff1681525050848160028151811061388c5761388b6148aa565b5b602002602001019073ffffffffffffffffffffffffffffffffffffffff16908173ffffffffffffffffffffffffffffffffffffffff1681525050600060405180608001604052803073ffffffffffffffffffffffffffffffffffffffff1681526020016000151581526020013073ffffffffffffffffffffffffffffffffffffffff1681526020016000151581525090506000600367ffffffffffffffff81111561393a5761393961406f565b5b6040519080825280602002602001820160405280156139685781602001602082028036833780820191505090505b5090507f7fffffffffffffffffffffffffffffffffffffffffffffffffffffffffffffff816000815181106139a05761399f6148aa565b5b6020026020010181815250507f7fffffffffffffffffffffffffffffffffffffffffffffffffffffffffffffff816001815181106139e1576139e06148aa565b5b6020026020010181815250507f7fffffffffffffffffffffffffffffffffffffffffffffffffffffffffffffff81600281518110613a2257613a216148aa565b5b6020026020010181815250507f000000000000000000000000000000000000000000000000000000000000000073ffffffffffffffffffffffffffffffffffffffff1663945bcec96000868686867fffffffffffffffffffffffffffffffffffffffffffffffffffffffffffffffff6040518763ffffffff1660e01b8152600401613ab296959493929190615516565b6000604051808303816000875af1158015613ad1573d6000803e3d6000fd5b505050506040513d6000823e3d601f19601f82011682018060405250810190613afa919061567d565b945050505050949350505050565b6060613b1683836000613c12565b905092915050565b60008060007f7fffffffffffffffffffffffffffffff5d576e7357a4501ddfe92f46681b20a08460001c1115613b5e576000600385925092509250613c08565b600060018888888860405160008152602001604052604051613b8394939291906156c6565b6020604051602081039080840390855afa158015613ba5573d6000803e3d6000fd5b505050602060405103519050600073ffffffffffffffffffffffffffffffffffffffff168173ffffffffffffffffffffffffffffffffffffffff1603613bf957600060016000801b93509350935050613c08565b8060008060001b935093509350505b9450945094915050565b606081471015613c5957306040517fcd786059000000000000000000000000000000000000000000000000000000008152600401613c509190613fa5565b60405180910390fd5b6000808573ffffffffffffffffffffffffffffffffffffffff168486604051613c8291906151ff565b60006040518083038185875af1925050503d8060008114613cbf576040519150601f19603f3d011682016040523d82523d6000602084013e613cc4565b606091505b5091509150613cd4868383613cdf565b925050509392505050565b606082613cf457613cef82613d6e565b613d66565b60008251148015613d1c575060008473ffffffffffffffffffffffffffffffffffffffff163b145b15613d5e57836040517f9996b315000000000000000000000000000000000000000000000000000000008152600401613d559190613fa5565b60405180910390fd5b819050613d67565b5b9392505050565b600081511115613d815780518082602001fd5b6040517f1425ea4200000000000000000000000000000000000000000000000000000000815260040160405180910390fd5b828054828255906000526020600020908101928215613e2c579160200282015b82811115613e2b5782518260006101000a81548173ffffffffffffffffffffffffffffffffffffffff021916908373ffffffffffffffffffffffffffffffffffffffff16021790555091602001919060010190613dd3565b5b509050613e399190613e6f565b5090565b6040518060a0016040528060008019168152602001600081526020016000815260200160008152602001606081525090565b5b80821115613e88576000816000905550600101613e70565b5090565b6000819050919050565b613e9f81613e8c565b82525050565b6000602082019050613eba6000830184613e96565b92915050565b6000604051905090565b600080fd5b600080fd5b613edd81613e8c565b8114613ee857600080fd5b50565b600081359050613efa81613ed4565b92915050565b600060208284031215613f1657613f15613eca565b5b6000613f2484828501613eeb565b91505092915050565b600060ff82169050919050565b613f4381613f2d565b82525050565b6000602082019050613f5e6000830184613f3a565b92915050565b600073ffffffffffffffffffffffffffffffffffffffff82169050919050565b6000613f8f82613f64565b9050919050565b613f9f81613f84565b82525050565b6000602082019050613fba6000830184613f96565b92915050565b613fc981613f84565b8114613fd457600080fd5b50565b600081359050613fe681613fc0565b92915050565b6000806040838503121561400357614002613eca565b5b600061401185828601613eeb565b925050602061402285828601613fd7565b9150509250929050565b60006020828403121561404257614041613eca565b5b600061405084828501613fd7565b91505092915050565b600080fd5b6000601f19601f8301169050919050565b7f4e487b7100000000000000000000000000000000000000000000000000000000600052604160045260246000fd5b6140a78261405e565b810181811067ffffffffffffffff821117156140c6576140c561406f565b5b80604052505050565b60006140d9613ec0565b90506140e5828261409e565b919050565b600067ffffffffffffffff8211156141055761410461406f565b5b602082029050602081019050919050565b600080fd5b600061412e614129846140ea565b6140cf565b9050808382526020820190506020840283018581111561415157614150614116565b5b835b8181101561417a57806141668882613fd7565b845260208401935050602081019050614153565b5050509392505050565b600082601f83011261419957614198614059565b5b81356141a984826020860161411b565b91505092915050565b600067ffffffffffffffff8211156141cd576141cc61406f565b5b602082029050602081019050919050565b60006141f16141ec846141b2565b6140cf565b9050808382526020820190506020840283018581111561421457614213614116565b5b835b8181101561423d57806142298882613eeb565b845260208401935050602081019050614216565b5050509392505050565b600082601f83011261425c5761425b614059565b5b813561426c8482602086016141de565b91505092915050565b6000806040838503121561428c5761428b613eca565b5b600083013567ffffffffffffffff8111156142aa576142a9613ecf565b5b6142b685828601614184565b925050602083013567ffffffffffffffff8111156142d7576142d6613ecf565b5b6142e385828601614247565b9150509250929050565b6142f681613f2d565b811461430157600080fd5b50565b600081359050614313816142ed565b92915050565b60006020828403121561432f5761432e613eca565b5b600061433d84828501614304565b91505092915050565b600080fd5b600067ffffffffffffffff8211156143665761436561406f565b5b61436f8261405e565b9050602081019050919050565b82818337600083830152505050565b600061439e6143998461434b565b6140cf565b9050828152602081018484840111156143ba576143b9614346565b5b6143c584828561437c565b509392505050565b600082601f8301126143e2576143e1614059565b5b81356143f284826020860161438b565b91505092915050565b6000806000806080858703121561441557614414613eca565b5b600061442387828801613eeb565b945050602061443487828801613fd7565b935050604061444587828801613eeb565b925050606085013567ffffffffffffffff81111561446657614465613ecf565b5b614472878288016143cd565b91505092959194509250565b600067ffffffffffffffff8211156144995761449861406f565b5b602082029050602081019050919050565b6000819050919050565b6144bd816144aa565b81146144c857600080fd5b50565b6000813590506144da816144b4565b92915050565b60006144f36144ee8461447e565b6140cf565b9050808382526020820190506020840283018581111561451657614515614116565b5b835b8181101561453f578061452b88826144cb565b845260208401935050602081019050614518565b5050509392505050565b600082601f83011261455e5761455d614059565b5b813561456e8482602086016144e0565b91505092915050565b6000806040838503121561458e5761458d613eca565b5b600083013567ffffffffffffffff8111156145ac576145ab613ecf565b5b6145b885828601614184565b925050602083013567ffffffffffffffff8111156145d9576145d8613ecf565b5b6145e585828601614549565b9150509250929050565b6145f8816144aa565b82525050565b600060208201905061461360008301846145ef565b92915050565b600081519050614628816142ed565b92915050565b60006020828403121561464457614643613eca565b5b600061465284828501614619565b91505092915050565b7f4e487b7100000000000000000000000000000000000000000000000000000000600052601160045260246000fd5b600061469582613e8c565b91506146a083613e8c565b92508282026146ae81613e8c565b915082820484148315176146c5576146c461465b565b5b5092915050565b60008160011c9050919050565b6000808291508390505b6001851115614723578086048111156146ff576146fe61465b565b5b600185161561470e5780820291505b808102905061471c856146cc565b94506146e3565b94509492505050565b60008261473c57600190506147f8565b8161474a57600090506147f8565b8160018114614760576002811461476a57614799565b60019150506147f8565b60ff84111561477c5761477b61465b565b5b8360020a9150848211156147935761479261465b565b5b506147f8565b5060208310610133831016604e8410600b84101617156147ce5782820a9050838111156147c9576147c861465b565b5b6147f8565b6147db84848460016146d9565b925090508184048111156147f2576147f161465b565b5b81810290505b9392505050565b600061480a82613e8c565b915061481583613f2d565b92506148427fffffffffffffffffffffffffffffffffffffffffffffffffffffffffffffffff848461472c565b905092915050565b7f4e487b7100000000000000000000000000000000000000000000000000000000600052601260045260246000fd5b600061488482613e8c565b915061488f83613e8c565b92508261489f5761489e61484a565b5b828204905092915050565b7f4e487b7100000000000000000000000000000000000000000000000000000000600052603260045260246000fd5b60006148e482613f2d565b915060ff82036148f7576148f661465b565b5b600182019050919050565b60008151905061491181613ed4565b92915050565b60006020828403121561492d5761492c613eca565b5b600061493b84828501614902565b91505092915050565b60006060820190506149596000830186613e96565b6149666020830185613f96565b6149736040830184613e96565b949350505050565b600082825260208201905092915050565b7f416d6f756e74206d757374206265206174206c6561737420302e303520454e5260008201527f4700000000000000000000000000000000000000000000000000000000000000602082015250565b60006149e860218361497b565b91506149f38261498c565b604082019050919050565b60006020820190508181036000830152614a17816149db565b9050919050565b6000614a2982613e8c565b9150614a3483613e8c565b925082614a4457614a4361484a565b5b828206905092915050565b7f416d6f756e74206d75737420626520646976697369626c652062792035000000600082015250565b6000614a85601d8361497b565b9150614a9082614a4f565b602082019050919050565b60006020820190508181036000830152614ab481614a78565b9050919050565b6000614ac682613e8c565b9150614ad183613e8c565b9250828203905081811115614ae957614ae861465b565b5b92915050565b6000604082019050614b046000830185613f96565b614b116020830184613f96565b9392505050565b7f556e646572706169640000000000000000000000000000000000000000000000600082015250565b6000614b4e60098361497b565b9150614b5982614b18565b602082019050919050565b60006020820190508181036000830152614b7d81614b41565b9050919050565b6000604082019050614b996000830185613f96565b614ba66020830184613e96565b9392505050565b60008115159050919050565b614bc281614bad565b8114614bcd57600080fd5b50565b600081519050614bdf81614bb9565b92915050565b600060208284031215614bfb57614bfa613eca565b5b6000614c0984828501614bd0565b91505092915050565b6000604082019050614c276000830185613e96565b614c346020830184613e96565b9392505050565b6000819050919050565b614c56614c5182613e8c565b614c3b565b82525050565b6000614c688284614c45565b60208201915081905092915050565b6000614c8282613e8c565b9150614c8d83613e8c565b9250828201905080821115614ca557614ca461465b565b5b92915050565b7f496e76616c696420616464726573730000000000000000000000000000000000600082015250565b6000614ce1600f8361497b565b9150614cec82614cab565b602082019050919050565b60006020820190508181036000830152614d1081614cd4565b9050919050565b7f5472616e73666572206661696c65640000000000000000000000000000000000600082015250565b6000614d4d600f8361497b565b9150614d5882614d17565b602082019050919050565b60006020820190508181036000830152614d7c81614d40565b9050919050565b6000614d8e82613e8c565b91507fffffffffffffffffffffffffffffffffffffffffffffffffffffffffffffffff8203614dc057614dbf61465b565b5b600182019050919050565b7f4e487b7100000000000000000000000000000000000000000000000000000000600052602160045260246000fd5b614e03816144aa565b82525050565b60028110614e1a57614e19614dcb565b5b50565b6000819050614e2b82614e09565b919050565b6000614e3b82614e1d565b9050919050565b614e4b81614e30565b82525050565b6000819050919050565b6000614e76614e71614e6c84613f64565b614e51565b613f64565b9050919050565b6000614e8882614e5b565b9050919050565b6000614e9a82614e7d565b9050919050565b614eaa81614e8f565b82525050565b614eb981613e8c565b82525050565b600081519050919050565b600082825260208201905092915050565b60005b83811015614ef9578082015181840152602081019050614ede565b60008484015250505050565b6000614f1082614ebf565b614f1a8185614eca565b9350614f2a818560208601614edb565b614f338161405e565b840191505092915050565b600060c083016000830151614f566000860182614dfa565b506020830151614f696020860182614e42565b506040830151614f7c6040860182614ea1565b506060830151614f8f6060860182614ea1565b506080830151614fa26080860182614eb0565b5060a083015184820360a0860152614fba8282614f05565b9150508091505092915050565b614fd081613f84565b82525050565b614fdf81614bad565b82525050565b6000614ff082613f64565b9050919050565b61500081614fe5565b82525050565b60808201600082015161501c6000850182614fc7565b50602082015161502f6020850182614fd6565b5060408201516150426040850182614ff7565b5060608201516150556060850182614fd6565b50505050565b600060a08201905081810360008301526150758185614f3e565b90506150846020830184615006565b9392505050565b60006060820190506150a06000830186613f96565b6150ad6020830185613f96565b6150ba6040830184613e96565b949350505050565b6000819050919050565b60006150e76150e26150dd846150c2565b614e51565b613e8c565b9050919050565b6150f7816150cc565b82525050565b600060e08201905081810360008301526151178187614f3e565b90506151266020830186615006565b61513360a08301856150ee565b61514060c0830184613e96565b95945050505050565b600082825260208201905092915050565b600061516582614ebf565b61516f8185615149565b935061517f818560208601614edb565b6151888161405e565b840191505092915050565b60006040820190506151a860008301856145ef565b81810360208301526151ba818461515a565b90509392505050565b600081905092915050565b60006151d982614ebf565b6151e381856151c3565b93506151f3818560208601614edb565b80840191505092915050565b600061520b82846151ce565b915081905092915050565b600081519050615225816144b4565b92915050565b60006020828403121561524157615240613eca565b5b600061524f84828501615216565b91505092915050565b61526181614e30565b82525050565b600081519050919050565b600082825260208201905092915050565b6000819050602082019050919050565b600060a0830160008301516152ab6000860182614dfa565b5060208301516152be6020860182614eb0565b5060408301516152d16040860182614eb0565b5060608301516152e46060860182614eb0565b50608083015184820360808601526152fc8282614f05565b9150508091505092915050565b60006153158383615293565b905092915050565b6000602082019050919050565b600061533582615267565b61533f8185615272565b93508360208202850161535185615283565b8060005b8581101561538d578484038952815161536e8582615309565b94506153798361531d565b925060208a01995050600181019050615355565b50829750879550505050505092915050565b600081519050919050565b600082825260208201905092915050565b6000819050602082019050919050565b60006153d78383614ea1565b60208301905092915050565b6000602082019050919050565b60006153fb8261539f565b61540581856153aa565b9350615410836153bb565b8060005b8381101561544157815161542888826153cb565b9750615433836153e3565b925050600181019050615414565b5085935050505092915050565b600081519050919050565b600082825260208201905092915050565b6000819050602082019050919050565b6000819050919050565b61548d8161547a565b82525050565b600061549f8383615484565b60208301905092915050565b6000602082019050919050565b60006154c38261544e565b6154cd8185615459565b93506154d88361546a565b8060005b838110156155095781516154f08882615493565b97506154fb836154ab565b9250506001810190506154dc565b5085935050505092915050565b60006101208201905061552c6000830189615258565b818103602083015261553e818861532a565b9050818103604083015261555281876153f0565b90506155616060830186615006565b81810360e083015261557381856154b8565b9050615583610100830184613e96565b979650505050505050565b600067ffffffffffffffff8211156155a9576155a861406f565b5b602082029050602081019050919050565b6155c38161547a565b81146155ce57600080fd5b50565b6000815190506155e0816155ba565b92915050565b60006155f96155f48461558e565b6140cf565b9050808382526020820190506020840283018581111561561c5761561b614116565b5b835b81811015615645578061563188826155d1565b84526020840193505060208101905061561e565b5050509392505050565b600082601f83011261566457615663614059565b5b81516156748482602086016155e6565b91505092915050565b60006020828403121561569357615692613eca565b5b600082015167ffffffffffffffff8111156156b1576156b0613ecf565b5b6156bd8482850161564f565b91505092915050565b60006080820190506156db60008301876145ef565b6156e86020830186613f3a565b6156f560408301856145ef565b61570260608301846145ef565b9594505050505056fea26469706673582212201fc4282222a87fc626c8aca7f1099a97e6d74b2649bd8609b5cc4bef35315e3864736f6c63430008150033",
  "devdoc": {
    "errors": {
      "AddressEmptyCode(address)": [
        {
          "details": "There's no code at `target` (it is not a contract)."
        }
      ],
      "AddressInsufficientBalance(address)": [
        {
          "details": "The ETH balance of the account is not enough to perform the operation."
        }
      ],
      "FailedInnerCall()": [
        {
          "details": "A call to an address target failed. The target may have reverted."
        }
      ],
      "OwnableInvalidOwner(address)": [
        {
          "details": "The owner is not a valid owner account. (eg. `address(0)`)"
        }
      ],
      "OwnableUnauthorizedAccount(address)": [
        {
          "details": "The caller account is not authorized to perform an operation."
        }
      ],
      "ReentrancyGuardReentrantCall()": [
        {
          "details": "Unauthorized reentrant call."
        }
      ],
      "SafeERC20FailedOperation(address)": [
        {
          "details": "An operation with an ERC20 token failed."
        }
      ]
    },
    "kind": "dev",
    "methods": {
      "burn(uint256,address)": {
        "params": {
          "_amount": "ENRG to be burned",
          "_paymentTokenAddress": "token to receive as payment"
        }
      },
      "getPrice(uint256,address)": {
        "params": {
          "_amount": "of energy to be minted",
          "_paymentTokenAddress": "to be used for payment"
        }
      },
      "migrate(address)": {
        "params": {
          "_newContract": "The address of the new contract to transfer the stablecoin balances to."
        }
      },
      "mint(uint256,address)": {
        "params": {
          "_amount": "to be minted",
          "_paymentTokenAddress": "to be used for payment"
        }
      },
      "mintWithDynamic(uint256,address,uint256,bytes)": {
        "params": {
          "_amount": "to be minted",
          "_offlinePrice": "provided by an offline Oracle",
          "_paymentTokenAddress": "to be used for payment",
          "_signature": "that proves the Oracle's price data was provided by the owner"
        }
      },
      "owner()": {
        "details": "Returns the address of the current owner."
      },
      "renounceOwnership()": {
        "details": "Leaves the contract without owner. It will not be possible to call `onlyOwner` functions. Can only be called by the current owner. NOTE: Renouncing ownership will leave the contract without an owner, thereby disabling any functionality that is only available to the owner."
      },
      "setDynamicExchangeAcceptedDeviationPercentage(uint8)": {
        "params": {
          "_dynamicExchangeAcceptedDeviationPercentage": "percentage of deviation"
        }
      },
      "setDynamicExchangeTokens(address[],bytes32[])": {
        "params": {
          "_dynamicExchangePools": "array of Balancer pool ids (WETH-Token pools)",
          "_dynamicExchangeTokens": "array of token addresses"
        }
      },
      "setFixedExchangeRates(address[],uint256[])": {
        "params": {
          "_fixedExchangeRates": "array of exchage rates (price per 1 ENRG token)",
          "_fixedExchangeTokens": "array of token addresses"
        }
      },
      "setFixedExchangeTokens(address[],uint256[])": {
        "params": {
          "_fixedExchangeRates": "array of Balancer pool ids (WETH-Token pools)",
          "_fixedExchangeTokens": "array of token addresses"
        }
      },
      "setMaxMintAmount(uint256)": {
        "details": "Throws if called by any account other than the energy token."
      },
      "setRecipientAddress(address)": {
        "params": {
          "_newRecipientAddress": "target recipient address"
        }
      },
      "setStableExchangeTokens(address[],bytes32[])": {
        "params": {
          "_stableExchangePools": "array of Balancer pool ids (WETH-Token pools)",
          "_stableExchangeTokens": "array of token addresses"
        }
      },
      "setTrustedSigner(address)": {
        "params": {
          "_trustedSigner": "address of the trusted signer"
        }
      },
      "transferOwnership(address)": {
        "details": "Transfers ownership of the contract to a new account (`newOwner`). Can only be called by the current owner."
      },
      "withdraw(address)": {
        "params": {
          "_erc20": "token to withdraw"
        }
      }
    },
    "version": 1
  },
  "userdoc": {
    "kind": "user",
    "methods": {
      "burn(uint256,address)": {
        "notice": "Burns the desired ENRG amount, receiving the desired payment token in exchange (if available). "
      },
      "getPrice(uint256,address)": {
        "notice": "Calculates the price for the amount of ENRG in the payment token. Can be used from any external actor to calculate the price before minting. "
      },
      "migrate(address)": {
        "notice": "Migrates the entire balance of each supported stablecoin to a new contract address. This function is intended to be used in the event of contract upgrades."
      },
      "mint(uint256,address)": {
        "notice": "Minting with fixed exchange rate (stablecoin) "
      },
      "mintWithDynamic(uint256,address,uint256,bytes)": {
        "notice": "Minting with dynamic exchange rate (HDAO, BAL, AAVE, etc.). Sent tokens will be exchanged for WETH and then for USDC and HDAO. "
      },
      "setDynamicExchangeAcceptedDeviationPercentage(uint8)": {
        "notice": "Set the deviation percentage from the provided price and the price from Balancer.  If the deviation is higher than the provided percentage, the transaction will be reverted. "
      },
      "setDynamicExchangeTokens(address[],bytes32[])": {
        "notice": "Set the tokens that can be used for minting, with a dynamic exchange rate, from a Balancer pool. "
      },
      "setFixedExchangeRates(address[],uint256[])": {
        "notice": "Sets the fixed exchange rates for the tokens. "
      },
      "setFixedExchangeTokens(address[],uint256[])": {
        "notice": "Set the stablecoins that can be used for minting "
      },
      "setMaxMintAmount(uint256)": {
        "notice": "Sets the amount of energy that can be minted per transaction. "
      },
      "setRecipientAddress(address)": {
        "notice": "Sets the recipientAddress (20% fee) "
      },
      "setStableExchangeTokens(address[],bytes32[])": {
        "notice": "Set the tokens that can be used for minting, with a dynamic exchange rate, from a Balancer pool. "
      },
      "setTrustedSigner(address)": {
        "notice": "Set the trusted signer address. Will be used for offline price signature verification "
      },
      "withdraw(address)": {
        "notice": "Lets the contract owner to withdraw any ERC20 token from the contract. "
      }
    },
    "version": 1
  },
  "storageLayout": {
    "storage": [
      {
        "astId": 846,
        "contract": "contracts/Factory.sol:Factory",
        "label": "_owner",
        "offset": 0,
        "slot": "0",
        "type": "t_address"
      },
      {
        "astId": 2811,
        "contract": "contracts/Factory.sol:Factory",
        "label": "_status",
        "offset": 0,
        "slot": "1",
        "type": "t_uint256"
      },
      {
        "astId": 5588,
        "contract": "contracts/Factory.sol:Factory",
        "label": "trustedSigner",
        "offset": 0,
        "slot": "2",
        "type": "t_address"
      },
      {
        "astId": 5590,
        "contract": "contracts/Factory.sol:Factory",
        "label": "energyToken",
        "offset": 0,
        "slot": "3",
        "type": "t_address"
      },
      {
        "astId": 5592,
        "contract": "contracts/Factory.sol:Factory",
        "label": "maxMintAmount",
        "offset": 0,
        "slot": "4",
        "type": "t_uint256"
      },
      {
        "astId": 5596,
        "contract": "contracts/Factory.sol:Factory",
        "label": "fixedExchangeRate",
        "offset": 0,
        "slot": "5",
        "type": "t_mapping(t_address,t_uint256)"
      },
      {
        "astId": 5600,
        "contract": "contracts/Factory.sol:Factory",
        "label": "dynamicExchangeTokens",
        "offset": 0,
        "slot": "6",
        "type": "t_mapping(t_address,t_bytes32)"
      },
      {
        "astId": 5604,
        "contract": "contracts/Factory.sol:Factory",
        "label": "stableExchangeTokens",
        "offset": 0,
        "slot": "7",
        "type": "t_mapping(t_address,t_bytes32)"
      },
      {
        "astId": 5607,
        "contract": "contracts/Factory.sol:Factory",
        "label": "fixedExchangeTokens",
        "offset": 0,
        "slot": "8",
        "type": "t_array(t_address)dyn_storage"
      },
      {
        "astId": 5609,
        "contract": "contracts/Factory.sol:Factory",
        "label": "dynamicExchangeAcceptedDeviationPercentage",
        "offset": 0,
        "slot": "9",
        "type": "t_uint8"
      },
      {
        "astId": 5611,
        "contract": "contracts/Factory.sol:Factory",
        "label": "burningPrice",
        "offset": 0,
        "slot": "10",
        "type": "t_uint256"
      },
      {
        "astId": 5613,
        "contract": "contracts/Factory.sol:Factory",
        "label": "recipientAddress",
        "offset": 0,
        "slot": "11",
        "type": "t_address"
      }
    ],
    "types": {
      "t_address": {
        "encoding": "inplace",
        "label": "address",
        "numberOfBytes": "20"
      },
      "t_array(t_address)dyn_storage": {
        "base": "t_address",
        "encoding": "dynamic_array",
        "label": "address[]",
        "numberOfBytes": "32"
      },
      "t_bytes32": {
        "encoding": "inplace",
        "label": "bytes32",
        "numberOfBytes": "32"
      },
      "t_mapping(t_address,t_bytes32)": {
        "encoding": "mapping",
        "key": "t_address",
        "label": "mapping(address => bytes32)",
        "numberOfBytes": "32",
        "value": "t_bytes32"
      },
      "t_mapping(t_address,t_uint256)": {
        "encoding": "mapping",
        "key": "t_address",
        "label": "mapping(address => uint256)",
        "numberOfBytes": "32",
        "value": "t_uint256"
      },
      "t_uint256": {
        "encoding": "inplace",
        "label": "uint256",
        "numberOfBytes": "32"
      },
      "t_uint8": {
        "encoding": "inplace",
        "label": "uint8",
        "numberOfBytes": "1"
      }
    }
  }
}