{
  "address": "0xff1D2f839Dd793eAa0D46d4cF08F7498C2EcCC16",
  "abi": [
    {
      "inputs": [
        {
          "internalType": "address",
          "name": "_initialOwner",
          "type": "address"
        },
        {
          "internalType": "address",
          "name": "_energyToken",
          "type": "address"
        },
        {
          "internalType": "uint256",
          "name": "_maxMint",
          "type": "uint256"
        },
        {
          "internalType": "address[]",
          "name": "_fixedExchangeTokens",
          "type": "address[]"
        },
        {
          "internalType": "uint256[]",
          "name": "_fixedExchangeRates",
          "type": "uint256[]"
        },
        {
          "internalType": "address[]",
          "name": "_dynamicExchangeTokens",
          "type": "address[]"
        },
        {
          "internalType": "bytes32[]",
          "name": "_dynamicExchangePools",
          "type": "bytes32[]"
        },
        {
          "internalType": "address[]",
          "name": "_stableExchangeTokens",
          "type": "address[]"
        },
        {
          "internalType": "bytes32[]",
          "name": "_stableExchangePools",
          "type": "bytes32[]"
        }
      ],
      "stateMutability": "nonpayable",
      "type": "constructor"
    },
    {
      "inputs": [
        {
          "internalType": "address",
          "name": "target",
          "type": "address"
        }
      ],
      "name": "AddressEmptyCode",
      "type": "error"
    },
    {
      "inputs": [
        {
          "internalType": "address",
          "name": "account",
          "type": "address"
        }
      ],
      "name": "AddressInsufficientBalance",
      "type": "error"
    },
    {
      "inputs": [],
      "name": "FailedInnerCall",
      "type": "error"
    },
    {
      "inputs": [
        {
          "internalType": "string",
          "name": "message",
          "type": "string"
        }
      ],
      "name": "InvalidAmount",
      "type": "error"
    },
    {
      "inputs": [],
      "name": "InvalidParams",
      "type": "error"
    },
    {
      "inputs": [],
      "name": "InvalidParamsLength",
      "type": "error"
    },
    {
      "inputs": [],
      "name": "InvalidParamsZeroAddress",
      "type": "error"
    },
    {
      "inputs": [],
      "name": "InvalidParamsZeroValue",
      "type": "error"
    },
    {
      "inputs": [],
      "name": "InvalidSignature",
      "type": "error"
    },
    {
      "inputs": [],
      "name": "MaxMintAmount",
      "type": "error"
    },
    {
      "inputs": [],
      "name": "NotEnoughFunds",
      "type": "error"
    },
    {
      "inputs": [],
      "name": "OnlyEnergy",
      "type": "error"
    },
    {
      "inputs": [
        {
          "internalType": "address",
          "name": "owner",
          "type": "address"
        }
      ],
      "name": "OwnableInvalidOwner",
      "type": "error"
    },
    {
      "inputs": [
        {
          "internalType": "address",
          "name": "account",
          "type": "address"
        }
      ],
      "name": "OwnableUnauthorizedAccount",
      "type": "error"
    },
    {
      "inputs": [],
      "name": "ReentrancyGuardReentrantCall",
      "type": "error"
    },
    {
      "inputs": [
        {
          "internalType": "address",
          "name": "token",
          "type": "address"
        }
      ],
      "name": "SafeERC20FailedOperation",
      "type": "error"
    },
    {
      "inputs": [],
      "name": "UnacceptablePriceDeviation",
      "type": "error"
    },
    {
      "inputs": [],
      "name": "Underpaid",
      "type": "error"
    },
    {
      "anonymous": false,
      "inputs": [
        {
          "indexed": true,
          "internalType": "address",
          "name": "_from",
          "type": "address"
        },
        {
          "indexed": false,
          "internalType": "uint256",
          "name": "_amount",
          "type": "uint256"
        },
        {
          "indexed": true,
          "internalType": "address",
          "name": "_paymentToken",
          "type": "address"
        },
        {
          "indexed": false,
          "internalType": "uint256",
          "name": "_price",
          "type": "uint256"
        }
      ],
      "name": "Burn",
      "type": "event"
    },
    {
      "anonymous": false,
      "inputs": [
        {
          "indexed": true,
          "internalType": "address",
          "name": "_to",
          "type": "address"
        },
        {
          "indexed": false,
          "internalType": "uint256",
          "name": "_amount",
          "type": "uint256"
        },
        {
          "indexed": true,
          "internalType": "address",
          "name": "_paymentToken",
          "type": "address"
        },
        {
          "indexed": false,
          "internalType": "uint256",
          "name": "_price",
          "type": "uint256"
        }
      ],
      "name": "Mint",
      "type": "event"
    },
    {
      "anonymous": false,
      "inputs": [
        {
          "indexed": true,
          "internalType": "address",
          "name": "previousOwner",
          "type": "address"
        },
        {
          "indexed": true,
          "internalType": "address",
          "name": "newOwner",
          "type": "address"
        }
      ],
      "name": "OwnershipTransferred",
      "type": "event"
    },
    {
      "anonymous": false,
      "inputs": [
        {
          "indexed": false,
          "internalType": "uint256",
          "name": "amount",
          "type": "uint256"
        },
        {
          "indexed": false,
          "internalType": "address",
          "name": "paymentAddress",
          "type": "address"
        },
        {
          "indexed": false,
          "internalType": "uint256",
          "name": "price",
          "type": "uint256"
        }
      ],
      "name": "Price",
      "type": "event"
    },
    {
      "anonymous": false,
      "inputs": [
        {
          "indexed": false,
          "internalType": "uint256",
          "name": "amount",
          "type": "uint256"
        },
        {
          "indexed": false,
          "internalType": "address",
          "name": "erc20",
          "type": "address"
        },
        {
          "indexed": false,
          "internalType": "uint256",
          "name": "when",
          "type": "uint256"
        }
      ],
      "name": "Withdrawal",
      "type": "event"
    },
    {
      "inputs": [
        {
          "internalType": "uint256",
          "name": "_amount",
          "type": "uint256"
        },
        {
          "internalType": "address",
          "name": "_paymentTokenAddress",
          "type": "address"
        }
      ],
      "name": "burn",
      "outputs": [],
      "stateMutability": "nonpayable",
      "type": "function"
    },
    {
      "inputs": [],
      "name": "burningPrice",
      "outputs": [
        {
          "internalType": "uint256",
          "name": "",
          "type": "uint256"
        }
      ],
      "stateMutability": "view",
      "type": "function"
    },
    {
      "inputs": [],
      "name": "dynamicExchangeAcceptedDeviationPercentage",
      "outputs": [
        {
          "internalType": "uint8",
          "name": "",
          "type": "uint8"
        }
      ],
      "stateMutability": "view",
      "type": "function"
    },
    {
      "inputs": [
        {
          "internalType": "address",
          "name": "",
          "type": "address"
        }
      ],
      "name": "dynamicExchangeTokens",
      "outputs": [
        {
          "internalType": "bytes32",
          "name": "",
          "type": "bytes32"
        }
      ],
      "stateMutability": "view",
      "type": "function"
    },
    {
      "inputs": [],
      "name": "energyToken",
      "outputs": [
        {
          "internalType": "address",
          "name": "",
          "type": "address"
        }
      ],
      "stateMutability": "view",
      "type": "function"
    },
    {
      "inputs": [
        {
          "internalType": "address",
          "name": "",
          "type": "address"
        }
      ],
      "name": "fixedExchangeRate",
      "outputs": [
        {
          "internalType": "uint256",
          "name": "",
          "type": "uint256"
        }
      ],
      "stateMutability": "view",
      "type": "function"
    },
    {
      "inputs": [
        {
          "internalType": "uint256",
          "name": "",
          "type": "uint256"
        }
      ],
      "name": "fixedExchangeTokens",
      "outputs": [
        {
          "internalType": "address",
          "name": "",
          "type": "address"
        }
      ],
      "stateMutability": "view",
      "type": "function"
    },
    {
      "inputs": [
        {
          "internalType": "uint256",
          "name": "_amount",
          "type": "uint256"
        },
        {
          "internalType": "address",
          "name": "_paymentTokenAddress",
          "type": "address"
        }
      ],
      "name": "getPrice",
      "outputs": [
        {
          "internalType": "uint256",
          "name": "",
          "type": "uint256"
        }
      ],
      "stateMutability": "nonpayable",
      "type": "function"
    },
    {
      "inputs": [],
      "name": "maxMintAmount",
      "outputs": [
        {
          "internalType": "uint256",
          "name": "",
          "type": "uint256"
        }
      ],
      "stateMutability": "view",
      "type": "function"
    },
    {
      "inputs": [
        {
          "internalType": "uint256",
          "name": "_amount",
          "type": "uint256"
        },
        {
          "internalType": "address",
          "name": "_paymentTokenAddress",
          "type": "address"
        }
      ],
      "name": "mint",
      "outputs": [],
      "stateMutability": "nonpayable",
      "type": "function"
    },
    {
      "inputs": [
        {
          "internalType": "uint256",
          "name": "_amount",
          "type": "uint256"
        },
        {
          "internalType": "address",
          "name": "_paymentTokenAddress",
          "type": "address"
        },
        {
          "internalType": "uint256",
          "name": "_offlinePrice",
          "type": "uint256"
        },
        {
          "internalType": "bytes",
          "name": "_signature",
          "type": "bytes"
        }
      ],
      "name": "mintWithDynamic",
      "outputs": [],
      "stateMutability": "nonpayable",
      "type": "function"
    },
    {
      "inputs": [],
      "name": "owner",
      "outputs": [
        {
          "internalType": "address",
          "name": "",
          "type": "address"
        }
      ],
      "stateMutability": "view",
      "type": "function"
    },
    {
      "inputs": [],
      "name": "renounceOwnership",
      "outputs": [],
      "stateMutability": "nonpayable",
      "type": "function"
    },
    {
      "inputs": [
        {
          "internalType": "uint256",
          "name": "_burningPrice",
          "type": "uint256"
        }
      ],
      "name": "setBurningPrice",
      "outputs": [],
      "stateMutability": "nonpayable",
      "type": "function"
    },
    {
      "inputs": [
        {
          "internalType": "uint8",
          "name": "_dynamicExchangeAcceptedDeviationPercentage",
          "type": "uint8"
        }
      ],
      "name": "setDynamicExchangeAcceptedDeviationPercentage",
      "outputs": [],
      "stateMutability": "nonpayable",
      "type": "function"
    },
    {
      "inputs": [
        {
          "internalType": "address[]",
          "name": "_dynamicExchangeTokens",
          "type": "address[]"
        },
        {
          "internalType": "bytes32[]",
          "name": "_dynamicExchangePools",
          "type": "bytes32[]"
        }
      ],
      "name": "setDynamicExchangeTokens",
      "outputs": [],
      "stateMutability": "nonpayable",
      "type": "function"
    },
    {
      "inputs": [
        {
          "internalType": "address[]",
          "name": "_fixedExchangeTokens",
          "type": "address[]"
        },
        {
          "internalType": "uint256[]",
          "name": "_fixedExchangeRates",
          "type": "uint256[]"
        }
      ],
      "name": "setFixedExchangeRates",
      "outputs": [],
      "stateMutability": "nonpayable",
      "type": "function"
    },
    {
      "inputs": [
        {
          "internalType": "address[]",
          "name": "_fixedExchangeTokens",
          "type": "address[]"
        },
        {
          "internalType": "uint256[]",
          "name": "_fixedExchangeRates",
          "type": "uint256[]"
        }
      ],
      "name": "setFixedExchangeTokens",
      "outputs": [],
      "stateMutability": "nonpayable",
      "type": "function"
    },
    {
      "inputs": [
        {
          "internalType": "uint256",
          "name": "_maxMintAmount",
          "type": "uint256"
        }
      ],
      "name": "setMaxMintAmount",
      "outputs": [],
      "stateMutability": "nonpayable",
      "type": "function"
    },
    {
      "inputs": [
        {
          "internalType": "address[]",
          "name": "_stableExchangeTokens",
          "type": "address[]"
        },
        {
          "internalType": "bytes32[]",
          "name": "_stableExchangePools",
          "type": "bytes32[]"
        }
      ],
      "name": "setStableExchangeTokens",
      "outputs": [],
      "stateMutability": "nonpayable",
      "type": "function"
    },
    {
      "inputs": [
        {
          "internalType": "address",
          "name": "_trustedSigner",
          "type": "address"
        }
      ],
      "name": "setTrustedSigner",
      "outputs": [],
      "stateMutability": "nonpayable",
      "type": "function"
    },
    {
      "inputs": [
        {
          "internalType": "address",
          "name": "",
          "type": "address"
        }
      ],
      "name": "stableExchangeTokens",
      "outputs": [
        {
          "internalType": "bytes32",
          "name": "",
          "type": "bytes32"
        }
      ],
      "stateMutability": "view",
      "type": "function"
    },
    {
      "inputs": [
        {
          "internalType": "address",
          "name": "newOwner",
          "type": "address"
        }
      ],
      "name": "transferOwnership",
      "outputs": [],
      "stateMutability": "nonpayable",
      "type": "function"
    },
    {
      "inputs": [],
      "name": "trustedSigner",
      "outputs": [
        {
          "internalType": "address",
          "name": "",
          "type": "address"
        }
      ],
      "stateMutability": "view",
      "type": "function"
    },
    {
      "inputs": [
        {
          "internalType": "address",
          "name": "_erc20",
          "type": "address"
        }
      ],
      "name": "withdraw",
      "outputs": [],
      "stateMutability": "nonpayable",
      "type": "function"
    }
  ],
  "transactionHash": "0xcd4dfbea36ec57ba3f4c64d5ff0b62c9c86195a1b96c3dd49fe753427a4d8b7a",
  "args": [
    "0x77693a5D3881dD7F99964219e2827883e66D7E9e",
    "0xfFc49340f8dbB699f0677e6Fa9f31d9ab7292Fac",
    "300000",
    [
      "0x23e259cFf0404d90FCDA231eDE0c350fb509bDd7",
      "0x753e0F7Fb8556fC274B0699417dfAbB6d6eBf38b"
    ],
    [
      "2500000",
      "2500000"
    ],
    [
      "0x10e6f5debFd4A66A1C1dDa6Ba68CfAfcC879eab2",
      "0x3de2E4c495C82A9BE050FB4615fA5223F88c1751"
    ],
    [
      "0xc59df746f926663744ab3d10f9e71dc87a2f94e000020000000000000000005b",
      "0x8e67c75354f9019bc561a8ba613ee36ccdd6dd3e00020000000000000000005c"
    ],
    [
      "0x23e259cFf0404d90FCDA231eDE0c350fb509bDd7",
      "0x753e0F7Fb8556fC274B0699417dfAbB6d6eBf38b"
    ],
    [
      "0x20f69a6fe6b518423c6d78845daa36770e5ed3fa000200000000000000000059",
      "0x72f927ecde1b2168a24d988ecf6fa926d674a01500020000000000000000005a"
    ]
  ],
  "numDeployments": 4,
  "solcInputHash": "2bf6eb6d489a2d979985a49beb3a28b9",
  "bytecode": "0x6101806040527310e6f5debfd4a66a1c1dda6ba68cfafcc879eab273ffffffffffffffffffffffffffffffffffffffff1660809073ffffffffffffffffffffffffffffffffffffffff168152507323e259cff0404d90fcda231ede0c350fb509bdd773ffffffffffffffffffffffffffffffffffffffff1660a09073ffffffffffffffffffffffffffffffffffffffff1681525073303d53087abbbe343e2360bb288275ddba47a6b673ffffffffffffffffffffffffffffffffffffffff1660c09073ffffffffffffffffffffffffffffffffffffffff168152507f20f69a6fe6b518423c6d78845daa36770e5ed3fa00020000000000000000005960001b60e0908152507fc59df746f926663744ab3d10f9e71dc87a2f94e000020000000000000000005b60001b61010090815250731802953277fd955f9a254b80aa0582f193cf1d7773ffffffffffffffffffffffffffffffffffffffff166101209073ffffffffffffffffffffffffffffffffffffffff1681525073ba12222222228d8ba445958a75a0704d566bf2c873ffffffffffffffffffffffffffffffffffffffff166101409073ffffffffffffffffffffffffffffffffffffffff16815250622625a061016090815250348015620001d757600080fd5b5060405162006d8e38038062006d8e8339818101604052810190620001fd9190620010d6565b88600073ffffffffffffffffffffffffffffffffffffffff168173ffffffffffffffffffffffffffffffffffffffff1603620002735760006040517f1e4fbdf70000000000000000000000000000000000000000000000000000000081526004016200026a919062001280565b60405180910390fd5b62000284816200038860201b60201c565b506001808190555087600360006101000a81548173ffffffffffffffffffffffffffffffffffffffff021916908373ffffffffffffffffffffffffffffffffffffffff160217905550620002de876200044c60201b60201c565b620002f08686620004a160201b60201c565b6200030284846200069760201b60201c565b600a600960006101000a81548160ff021916908360ff16021790555088600260006101000a81548173ffffffffffffffffffffffffffffffffffffffff021916908373ffffffffffffffffffffffffffffffffffffffff1602179055506002600a81905550620003798282620008ee60201b60201c565b50505050505050505062001336565b60008060009054906101000a900473ffffffffffffffffffffffffffffffffffffffff169050816000806101000a81548173ffffffffffffffffffffffffffffffffffffffff021916908373ffffffffffffffffffffffffffffffffffffffff1602179055508173ffffffffffffffffffffffffffffffffffffffff168173ffffffffffffffffffffffffffffffffffffffff167f8be0079c531659141344cd1fd0a4f28419497f9722a3daafe3b4186f6b6457e060405160405180910390a35050565b6200045c62000b4560201b60201c565b6000810362000497576040517f2aa244fe00000000000000000000000000000000000000000000000000000000815260040160405180910390fd5b8060048190555050565b620004b162000b4560201b60201c565b8051825114620004ed576040517ff950c6c400000000000000000000000000000000000000000000000000000000815260040160405180910390fd5b81600890805190602001906200050592919062000c18565b5060005b82518160ff1610156200069257600073ffffffffffffffffffffffffffffffffffffffff16838260ff16815181106200054757620005466200129d565b5b602002602001015173ffffffffffffffffffffffffffffffffffffffff16036200059d576040517faa15487e00000000000000000000000000000000000000000000000000000000815260040160405180910390fd5b6000828260ff1681518110620005b857620005b76200129d565b5b602002602001015103620005f8576040517f2aa244fe00000000000000000000000000000000000000000000000000000000815260040160405180910390fd5b818160ff16815181106200061157620006106200129d565b5b602002602001015160056000858460ff16815181106200063657620006356200129d565b5b602002602001015173ffffffffffffffffffffffffffffffffffffffff1673ffffffffffffffffffffffffffffffffffffffff168152602001908152602001600020819055508080620006899062001308565b91505062000509565b505050565b620006a762000b4560201b60201c565b6000825103620006e3576040517ff950c6c400000000000000000000000000000000000000000000000000000000815260040160405180910390fd5b60008151036200071f576040517ff950c6c400000000000000000000000000000000000000000000000000000000815260040160405180910390fd5b80518251146200075b576040517ff950c6c400000000000000000000000000000000000000000000000000000000815260040160405180910390fd5b60005b82518160ff161015620008e957600073ffffffffffffffffffffffffffffffffffffffff16838260ff16815181106200079c576200079b6200129d565b5b602002602001015173ffffffffffffffffffffffffffffffffffffffff1603620007f2576040517faa15487e00000000000000000000000000000000000000000000000000000000815260040160405180910390fd5b6000801b828260ff16815181106200080f576200080e6200129d565b5b6020026020010151036200084f576040517f2aa244fe00000000000000000000000000000000000000000000000000000000815260040160405180910390fd5b818160ff16815181106200086857620008676200129d565b5b602002602001015160066000858460ff16815181106200088d576200088c6200129d565b5b602002602001015173ffffffffffffffffffffffffffffffffffffffff1673ffffffffffffffffffffffffffffffffffffffff168152602001908152602001600020819055508080620008e09062001308565b9150506200075e565b505050565b620008fe62000b4560201b60201c565b60008251036200093a576040517ff950c6c400000000000000000000000000000000000000000000000000000000815260040160405180910390fd5b600081510362000976576040517ff950c6c400000000000000000000000000000000000000000000000000000000815260040160405180910390fd5b8051825114620009b2576040517ff950c6c400000000000000000000000000000000000000000000000000000000815260040160405180910390fd5b60005b82518160ff16101562000b4057600073ffffffffffffffffffffffffffffffffffffffff16838260ff1681518110620009f357620009f26200129d565b5b602002602001015173ffffffffffffffffffffffffffffffffffffffff160362000a49576040517faa15487e00000000000000000000000000000000000000000000000000000000815260040160405180910390fd5b6000801b828260ff168151811062000a665762000a656200129d565b5b60200260200101510362000aa6576040517f2aa244fe00000000000000000000000000000000000000000000000000000000815260040160405180910390fd5b818160ff168151811062000abf5762000abe6200129d565b5b602002602001015160076000858460ff168151811062000ae45762000ae36200129d565b5b602002602001015173ffffffffffffffffffffffffffffffffffffffff1673ffffffffffffffffffffffffffffffffffffffff16815260200190815260200160002081905550808062000b379062001308565b915050620009b5565b505050565b62000b5562000be760201b60201c565b73ffffffffffffffffffffffffffffffffffffffff1662000b7b62000bef60201b60201c565b73ffffffffffffffffffffffffffffffffffffffff161462000be55762000ba762000be760201b60201c565b6040517f118cdaa700000000000000000000000000000000000000000000000000000000815260040162000bdc919062001280565b60405180910390fd5b565b600033905090565b60008060009054906101000a900473ffffffffffffffffffffffffffffffffffffffff16905090565b82805482825590600052602060002090810192821562000c94579160200282015b8281111562000c935782518260006101000a81548173ffffffffffffffffffffffffffffffffffffffff021916908373ffffffffffffffffffffffffffffffffffffffff1602179055509160200191906001019062000c39565b5b50905062000ca3919062000ca7565b5090565b5b8082111562000cc257600081600090555060010162000ca8565b5090565b6000604051905090565b600080fd5b600080fd5b600073ffffffffffffffffffffffffffffffffffffffff82169050919050565b600062000d078262000cda565b9050919050565b62000d198162000cfa565b811462000d2557600080fd5b50565b60008151905062000d398162000d0e565b92915050565b6000819050919050565b62000d548162000d3f565b811462000d6057600080fd5b50565b60008151905062000d748162000d49565b92915050565b600080fd5b6000601f19601f8301169050919050565b7f4e487b7100000000000000000000000000000000000000000000000000000000600052604160045260246000fd5b62000dca8262000d7f565b810181811067ffffffffffffffff8211171562000dec5762000deb62000d90565b5b80604052505050565b600062000e0162000cc6565b905062000e0f828262000dbf565b919050565b600067ffffffffffffffff82111562000e325762000e3162000d90565b5b602082029050602081019050919050565b600080fd5b600062000e5f62000e598462000e14565b62000df5565b9050808382526020820190506020840283018581111562000e855762000e8462000e43565b5b835b8181101562000eb2578062000e9d888262000d28565b84526020840193505060208101905062000e87565b5050509392505050565b600082601f83011262000ed45762000ed362000d7a565b5b815162000ee684826020860162000e48565b91505092915050565b600067ffffffffffffffff82111562000f0d5762000f0c62000d90565b5b602082029050602081019050919050565b600062000f3562000f2f8462000eef565b62000df5565b9050808382526020820190506020840283018581111562000f5b5762000f5a62000e43565b5b835b8181101562000f88578062000f73888262000d63565b84526020840193505060208101905062000f5d565b5050509392505050565b600082601f83011262000faa5762000fa962000d7a565b5b815162000fbc84826020860162000f1e565b91505092915050565b600067ffffffffffffffff82111562000fe35762000fe262000d90565b5b602082029050602081019050919050565b6000819050919050565b620010098162000ff4565b81146200101557600080fd5b50565b600081519050620010298162000ffe565b92915050565b600062001046620010408462000fc5565b62000df5565b905080838252602082019050602084028301858111156200106c576200106b62000e43565b5b835b8181101562001099578062001084888262001018565b8452602084019350506020810190506200106e565b5050509392505050565b600082601f830112620010bb57620010ba62000d7a565b5b8151620010cd8482602086016200102f565b91505092915050565b60008060008060008060008060006101208a8c031215620010fc57620010fb62000cd0565b5b60006200110c8c828d0162000d28565b99505060206200111f8c828d0162000d28565b9850506040620011328c828d0162000d63565b97505060608a015167ffffffffffffffff81111562001156576200115562000cd5565b5b620011648c828d0162000ebc565b96505060808a015167ffffffffffffffff81111562001188576200118762000cd5565b5b620011968c828d0162000f92565b95505060a08a015167ffffffffffffffff811115620011ba57620011b962000cd5565b5b620011c88c828d0162000ebc565b94505060c08a015167ffffffffffffffff811115620011ec57620011eb62000cd5565b5b620011fa8c828d01620010a3565b93505060e08a015167ffffffffffffffff8111156200121e576200121d62000cd5565b5b6200122c8c828d0162000ebc565b9250506101008a015167ffffffffffffffff81111562001251576200125062000cd5565b5b6200125f8c828d01620010a3565b9150509295985092959850929598565b6200127a8162000cfa565b82525050565b60006020820190506200129760008301846200126f565b92915050565b7f4e487b7100000000000000000000000000000000000000000000000000000000600052603260045260246000fd5b7f4e487b7100000000000000000000000000000000000000000000000000000000600052601160045260246000fd5b600060ff82169050919050565b60006200131582620012fb565b915060ff82036200132b576200132a620012cc565b5b600182019050919050565b60805160a05160c05160e051610100516101205161014051610160516159516200143d6000396000818161086e01526108ee01526000818161292901528181612e32015281816130c1015281816131440152818161330b015281816138570152613d60015260006126450152600081816111370152818161318b01526135a80152600081816106660152818161335201526135f6015260008181610687015281816106df0152818161080c015281816116840152818161190a01528181612c0c0152818161300e0152613b3a0152600081816106a8015281816133ad01526135d5015260008181611116015281816131e601528181613524015261358701526159516000f3fe608060405234801561001057600080fd5b50600436106101735760003560e01c8063813e47bf116100de578063c61a20f311610097578063f2fde38b11610071578063f2fde38b14610420578063f74d54801461043c578063f95a1f5c1461045a578063fcd3533c1461047657610173565b8063c61a20f3146103a4578063cd5edd34146103c0578063d6757783146103f057610173565b8063813e47bf146102e65780638da5cb5b1461031657806394bf804d14610334578063a4f8476714610350578063b6895b5f1461036c578063be5e56291461038857610173565b80633db211e8116101305780633db211e81461024e5780634ec7fb811461026a57806351cff8d91461028857806356a1c701146102a4578063715018a6146102c057806378884dfb146102ca57610173565b806301f19a5314610178578063088a4ed0146101965780630d22282b146101b2578063239c70ae146101d057806328297b3a146101ee5780632b57cfbb1461021e575b600080fd5b610180610492565b60405161018d91906141d5565b60405180910390f35b6101b060048036038101906101ab9190614230565b610498565b005b6101ba6104e4565b6040516101c79190614279565b60405180910390f35b6101d86104f7565b6040516101e591906141d5565b60405180910390f35b61020860048036038101906102039190614230565b6104fd565b60405161021591906142d5565b60405180910390f35b6102386004803603810190610233919061431c565b61053c565b60405161024591906141d5565b60405180910390f35b61026860048036038101906102639190614578565b610942565b005b610272610b1b565b60405161027f91906142d5565b60405180910390f35b6102a2600480360381019061029d91906145f0565b610b41565b005b6102be60048036038101906102b991906145f0565b610c4e565b005b6102c8610d00565b005b6102e460048036038101906102df9190614649565b610d14565b005b61030060048036038101906102fb91906145f0565b610d77565b60405161030d91906141d5565b60405180910390f35b61031e610d8f565b60405161032b91906142d5565b60405180910390f35b61034e6004803603810190610349919061431c565b610db8565b005b61036a60048036038101906103659190614578565b611270565b005b6103866004803603810190610381919061472b565b6114bf565b005b6103a2600480360381019061039d91906148a7565b6119ef565b005b6103be60048036038101906103b991906148a7565b611c29565b005b6103da60048036038101906103d591906145f0565b611e63565b6040516103e7919061492e565b60405180910390f35b61040a600480360381019061040591906145f0565b611e7b565b604051610417919061492e565b60405180910390f35b61043a600480360381019061043591906145f0565b611e93565b005b610444611f19565b60405161045191906142d5565b60405180910390f35b610474600480360381019061046f9190614230565b611f3f565b005b610490600480360381019061048b919061431c565b611f8b565b005b600a5481565b6104a0612365565b600081036104da576040517f2aa244fe00000000000000000000000000000000000000000000000000000000815260040160405180910390fd5b8060048190555050565b600960009054906101000a900460ff1681565b60045481565b6008818154811061050d57600080fd5b906000526020600020016000915054906101000a900473ffffffffffffffffffffffffffffffffffffffff1681565b6000808303610577576040517f2aa244fe00000000000000000000000000000000000000000000000000000000815260040160405180910390fd5b600073ffffffffffffffffffffffffffffffffffffffff168273ffffffffffffffffffffffffffffffffffffffff16036105dd576040517faa15487e00000000000000000000000000000000000000000000000000000000815260040160405180910390fd5b60008273ffffffffffffffffffffffffffffffffffffffff1663313ce5676040518163ffffffff1660e01b8152600401602060405180830381865afa15801561062a573d6000803e3d6000fd5b505050506040513d601f19601f8201168201806040525081019061064e919061495e565b9050600064e8d4a510006106cc670de0b6b3a76400007f00000000000000000000000000000000000000000000000000000000000000007f00000000000000000000000000000000000000000000000000000000000000007f00000000000000000000000000000000000000000000000000000000000000006123ec565b6106d691906149ba565b905060008190507f000000000000000000000000000000000000000000000000000000000000000073ffffffffffffffffffffffffffffffffffffffff168573ffffffffffffffffffffffffffffffffffffffff16146108dd576000801b600660008773ffffffffffffffffffffffffffffffffffffffff1673ffffffffffffffffffffffffffffffffffffffff16815260200190815260200160002054036107ab576040517f2aa244fe00000000000000000000000000000000000000000000000000000000815260040160405180910390fd5b600061083084600a6107bd9190614b2f565b60016107c991906149ba565b600660008973ffffffffffffffffffffffffffffffffffffffff1673ffffffffffffffffffffffffffffffffffffffff16815260200190815260200160002054887f00000000000000000000000000000000000000000000000000000000000000006123ec565b9050670de0b6b3a7640000838261084791906149ba565b6108519190614ba9565b9150670de0b6b3a764000082670de0b6b3a764000064e8d4a510007f000000000000000000000000000000000000000000000000000000000000000061089791906149ba565b662386f26fc100008b6108aa91906149ba565b6108b491906149ba565b6108be9190614ba9565b6108c89190614ba9565b6108d291906149ba565b94505050505061093c565b80662386f26fc1000064e8d4a510007f000000000000000000000000000000000000000000000000000000000000000061091791906149ba565b8861092291906149ba565b61092c91906149ba565b6109369190614ba9565b93505050505b92915050565b61094a612365565b8051825114610985576040517ff950c6c400000000000000000000000000000000000000000000000000000000815260040160405180910390fd5b816008908051906020019061099b9291906140e3565b5060005b82518160ff161015610b1657600073ffffffffffffffffffffffffffffffffffffffff16838260ff16815181106109d9576109d8614bda565b5b602002602001015173ffffffffffffffffffffffffffffffffffffffff1603610a2e576040517faa15487e00000000000000000000000000000000000000000000000000000000815260040160405180910390fd5b6000828260ff1681518110610a4657610a45614bda565b5b602002602001015103610a85576040517f2aa244fe00000000000000000000000000000000000000000000000000000000815260040160405180910390fd5b818160ff1681518110610a9b57610a9a614bda565b5b602002602001015160056000858460ff1681518110610abd57610abc614bda565b5b602002602001015173ffffffffffffffffffffffffffffffffffffffff1673ffffffffffffffffffffffffffffffffffffffff168152602001908152602001600020819055508080610b0e90614c09565b91505061099f565b505050565b600360009054906101000a900473ffffffffffffffffffffffffffffffffffffffff1681565b610b49612365565b610b516126ed565b600081905060008173ffffffffffffffffffffffffffffffffffffffff166370a08231306040518263ffffffff1660e01b8152600401610b9191906142d5565b602060405180830381865afa158015610bae573d6000803e3d6000fd5b505050506040513d601f19601f82011682018060405250810190610bd29190614c47565b9050610c06610bdf610d8f565b828473ffffffffffffffffffffffffffffffffffffffff166127339092919063ffffffff16565b7f37e8063b72a944a76de602f32b82fd8c2a1c6f99564c727ffaf913c7762cd420818442604051610c3993929190614c74565b60405180910390a15050610c4b6127b2565b50565b610c56612365565b600073ffffffffffffffffffffffffffffffffffffffff168173ffffffffffffffffffffffffffffffffffffffff1603610cbc576040517faa15487e00000000000000000000000000000000000000000000000000000000815260040160405180910390fd5b80600260006101000a81548173ffffffffffffffffffffffffffffffffffffffff021916908373ffffffffffffffffffffffffffffffffffffffff16021790555050565b610d08612365565b610d1260006127bb565b565b610d1c612365565b60008160ff1603610d59576040517f2aa244fe00000000000000000000000000000000000000000000000000000000815260040160405180910390fd5b80600960006101000a81548160ff021916908360ff16021790555050565b60056020528060005260406000206000915090505481565b60008060009054906101000a900473ffffffffffffffffffffffffffffffffffffffff16905090565b610dc06126ed565b6005821015610e04576040517fb132ad4a000000000000000000000000000000000000000000000000000000008152600401610dfb90614d2e565b60405180910390fd5b600454821115610e40576040517fcaeeffdb00000000000000000000000000000000000000000000000000000000815260040160405180910390fd5b6000600583610e4f9190614d4e565b14610e8f576040517fb132ad4a000000000000000000000000000000000000000000000000000000008152600401610e8690614dcb565b60405180910390fd5b600073ffffffffffffffffffffffffffffffffffffffff168173ffffffffffffffffffffffffffffffffffffffff1603610ef5576040517faa15487e00000000000000000000000000000000000000000000000000000000815260040160405180910390fd5b6000600560008373ffffffffffffffffffffffffffffffffffffffff1673ffffffffffffffffffffffffffffffffffffffff1681526020019081526020016000205403610f6e576040517f2aa244fe00000000000000000000000000000000000000000000000000000000815260040160405180910390fd5b60008190506000610f7d61287f565b9050600084600560008673ffffffffffffffffffffffffffffffffffffffff1673ffffffffffffffffffffffffffffffffffffffff16815260200190815260200160002054610fcc91906149ba565b905060006064605083610fdf91906149ba565b610fe99190614ba9565b905060008183610ff99190614deb565b905060008573ffffffffffffffffffffffffffffffffffffffff1663dd62ed3e86306040518363ffffffff1660e01b8152600401611038929190614e1f565b602060405180830381865afa158015611055573d6000803e3d6000fd5b505050506040513d601f19601f820116820180604052508101906110799190614c47565b90506064846110889190614ba9565b8110156110ca576040517f08c379a00000000000000000000000000000000000000000000000000000000081526004016110c190614e94565b60405180910390fd5b61110385306064876110dc9190614ba9565b8973ffffffffffffffffffffffffffffffffffffffff16612887909392919063ffffffff16565b61115b6064836111139190614ba9565b887f00000000000000000000000000000000000000000000000000000000000000007f0000000000000000000000000000000000000000000000000000000000000000612909565b50600360009054906101000a900473ffffffffffffffffffffffffffffffffffffffff1673ffffffffffffffffffffffffffffffffffffffff166340c10f19868a6040518363ffffffff1660e01b81526004016111b9929190614eb4565b600060405180830381600087803b1580156111d357600080fd5b505af11580156111e7573d6000803e3d6000fd5b505050508673ffffffffffffffffffffffffffffffffffffffff168573ffffffffffffffffffffffffffffffffffffffff167ff3f9b81b1aa7af42b83e33d01a22621ecf67d5ebeb4587a4d63e3737276076818a6064886112489190614ba9565b604051611256929190614edd565b60405180910390a350505050505061126c6127b2565b5050565b611278612365565b60008251036112b3576040517ff950c6c400000000000000000000000000000000000000000000000000000000815260040160405180910390fd5b60008151036112ee576040517ff950c6c400000000000000000000000000000000000000000000000000000000815260040160405180910390fd5b8151815114611329576040517ff950c6c400000000000000000000000000000000000000000000000000000000815260040160405180910390fd5b816008908051906020019061133f9291906140e3565b5060005b82518160ff1610156114ba57600073ffffffffffffffffffffffffffffffffffffffff16838260ff168151811061137d5761137c614bda565b5b602002602001015173ffffffffffffffffffffffffffffffffffffffff16036113d2576040517faa15487e00000000000000000000000000000000000000000000000000000000815260040160405180910390fd5b6000828260ff16815181106113ea576113e9614bda565b5b602002602001015103611429576040517f2aa244fe00000000000000000000000000000000000000000000000000000000815260040160405180910390fd5b818160ff168151811061143f5761143e614bda565b5b602002602001015160056000858460ff168151811061146157611460614bda565b5b602002602001015173ffffffffffffffffffffffffffffffffffffffff1673ffffffffffffffffffffffffffffffffffffffff1681526020019081526020016000208190555080806114b290614c09565b915050611343565b505050565b6114c76126ed565b60008403611501576040517f2aa244fe00000000000000000000000000000000000000000000000000000000815260040160405180910390fd5b60045484111561153d576040517fcaeeffdb00000000000000000000000000000000000000000000000000000000815260040160405180910390fd5b6005841015611581576040517fb132ad4a00000000000000000000000000000000000000000000000000000000815260040161157890614d2e565b60405180910390fd5b60006005856115909190614d4e565b146115d0576040517fb132ad4a0000000000000000000000000000000000000000000000000000000081526004016115c790614dcb565b60405180910390fd5b600073ffffffffffffffffffffffffffffffffffffffff168373ffffffffffffffffffffffffffffffffffffffff1603611636576040517faa15487e00000000000000000000000000000000000000000000000000000000815260040160405180910390fd5b6000801b600660008573ffffffffffffffffffffffffffffffffffffffff1673ffffffffffffffffffffffffffffffffffffffff168152602001908152602001600020541480156116d357507f000000000000000000000000000000000000000000000000000000000000000073ffffffffffffffffffffffffffffffffffffffff168373ffffffffffffffffffffffffffffffffffffffff1614155b1561170a576040517f2aa244fe00000000000000000000000000000000000000000000000000000000815260040160405180910390fd5b600061171461287f565b90506000836040516020016117299190614f27565b604051602081830303815290604052805190602001209050600061174c82612f0a565b9050600061177d600260009054906101000a900473ffffffffffffffffffffffffffffffffffffffff168387612f40565b9050806117b6576040517f8baa579f00000000000000000000000000000000000000000000000000000000815260040160405180910390fd5b60006117c2898961053c565b905060006064600960009054906101000a900460ff1660ff16836117e691906149ba565b6117f09190614ba9565b90508781836117ff9190614f42565b108061181557508781836118139190614deb565b115b1561184c576040517f76d2539a00000000000000000000000000000000000000000000000000000000815260040160405180910390fd5b6118798630848c73ffffffffffffffffffffffffffffffffffffffff16612887909392919063ffffffff16565b600360009054906101000a900473ffffffffffffffffffffffffffffffffffffffff1673ffffffffffffffffffffffffffffffffffffffff166340c10f19878c6040518363ffffffff1660e01b81526004016118d6929190614eb4565b600060405180830381600087803b1580156118f057600080fd5b505af1158015611904573d6000803e3d6000fd5b505050507f000000000000000000000000000000000000000000000000000000000000000073ffffffffffffffffffffffffffffffffffffffff168973ffffffffffffffffffffffffffffffffffffffff16036119695761196482612fd0565b611974565b611973828a6134cb565b5b8873ffffffffffffffffffffffffffffffffffffffff168673ffffffffffffffffffffffffffffffffffffffff167ff3f9b81b1aa7af42b83e33d01a22621ecf67d5ebeb4587a4d63e3737276076818c856040516119d3929190614edd565b60405180910390a35050505050506119e96127b2565b50505050565b6119f7612365565b6000825103611a32576040517ff950c6c400000000000000000000000000000000000000000000000000000000815260040160405180910390fd5b6000815103611a6d576040517ff950c6c400000000000000000000000000000000000000000000000000000000815260040160405180910390fd5b8051825114611aa8576040517ff950c6c400000000000000000000000000000000000000000000000000000000815260040160405180910390fd5b60005b82518160ff161015611c2457600073ffffffffffffffffffffffffffffffffffffffff16838260ff1681518110611ae557611ae4614bda565b5b602002602001015173ffffffffffffffffffffffffffffffffffffffff1603611b3a576040517faa15487e00000000000000000000000000000000000000000000000000000000815260040160405180910390fd5b6000801b828260ff1681518110611b5457611b53614bda565b5b602002602001015103611b93576040517f2aa244fe00000000000000000000000000000000000000000000000000000000815260040160405180910390fd5b818160ff1681518110611ba957611ba8614bda565b5b602002602001015160076000858460ff1681518110611bcb57611bca614bda565b5b602002602001015173ffffffffffffffffffffffffffffffffffffffff1673ffffffffffffffffffffffffffffffffffffffff168152602001908152602001600020819055508080611c1c90614c09565b915050611aab565b505050565b611c31612365565b6000825103611c6c576040517ff950c6c400000000000000000000000000000000000000000000000000000000815260040160405180910390fd5b6000815103611ca7576040517ff950c6c400000000000000000000000000000000000000000000000000000000815260040160405180910390fd5b8051825114611ce2576040517ff950c6c400000000000000000000000000000000000000000000000000000000815260040160405180910390fd5b60005b82518160ff161015611e5e57600073ffffffffffffffffffffffffffffffffffffffff16838260ff1681518110611d1f57611d1e614bda565b5b602002602001015173ffffffffffffffffffffffffffffffffffffffff1603611d74576040517faa15487e00000000000000000000000000000000000000000000000000000000815260040160405180910390fd5b6000801b828260ff1681518110611d8e57611d8d614bda565b5b602002602001015103611dcd576040517f2aa244fe00000000000000000000000000000000000000000000000000000000815260040160405180910390fd5b818160ff1681518110611de357611de2614bda565b5b602002602001015160066000858460ff1681518110611e0557611e04614bda565b5b602002602001015173ffffffffffffffffffffffffffffffffffffffff1673ffffffffffffffffffffffffffffffffffffffff168152602001908152602001600020819055508080611e5690614c09565b915050611ce5565b505050565b60066020528060005260406000206000915090505481565b60076020528060005260406000206000915090505481565b611e9b612365565b600073ffffffffffffffffffffffffffffffffffffffff168173ffffffffffffffffffffffffffffffffffffffff1603611f0d5760006040517f1e4fbdf7000000000000000000000000000000000000000000000000000000008152600401611f0491906142d5565b60405180910390fd5b611f16816127bb565b50565b600260009054906101000a900473ffffffffffffffffffffffffffffffffffffffff1681565b611f47612365565b60008103611f81576040517f2aa244fe00000000000000000000000000000000000000000000000000000000815260040160405180910390fd5b80600a8190555050565b611f936126ed565b60008203611fcd576040517f2aa244fe00000000000000000000000000000000000000000000000000000000815260040160405180910390fd5b600073ffffffffffffffffffffffffffffffffffffffff168173ffffffffffffffffffffffffffffffffffffffff1603612033576040517faa15487e00000000000000000000000000000000000000000000000000000000815260040160405180910390fd5b600061203d61287f565b905060008290506000600360009054906101000a900473ffffffffffffffffffffffffffffffffffffffff1673ffffffffffffffffffffffffffffffffffffffff1663313ce5676040518163ffffffff1660e01b8152600401602060405180830381865afa1580156120b3573d6000803e3d6000fd5b505050506040513d601f19601f820116820180604052508101906120d7919061495e565b600a6120e39190614b2f565b8273ffffffffffffffffffffffffffffffffffffffff1663313ce5676040518163ffffffff1660e01b8152600401602060405180830381865afa15801561212e573d6000803e3d6000fd5b505050506040513d601f19601f82011682018060405250810190612152919061495e565b600a61215e9190614b2f565b86600a5461216c91906149ba565b61217691906149ba565b6121809190614ba9565b9050808273ffffffffffffffffffffffffffffffffffffffff166370a08231306040518263ffffffff1660e01b81526004016121bc91906142d5565b602060405180830381865afa1580156121d9573d6000803e3d6000fd5b505050506040513d601f19601f820116820180604052508101906121fd9190614c47565b1015612235576040517f81b5ad6800000000000000000000000000000000000000000000000000000000815260040160405180910390fd5b600360009054906101000a900473ffffffffffffffffffffffffffffffffffffffff1673ffffffffffffffffffffffffffffffffffffffff16639dc29fac84876040518363ffffffff1660e01b8152600401612292929190614eb4565b600060405180830381600087803b1580156122ac57600080fd5b505af11580156122c0573d6000803e3d6000fd5b505050506122ef83828473ffffffffffffffffffffffffffffffffffffffff166127339092919063ffffffff16565b8373ffffffffffffffffffffffffffffffffffffffff168373ffffffffffffffffffffffffffffffffffffffff167f9eaa2feeb3b37bf70a72e15de2e6e61b6f2060b2fb40839961c26bbc238dd202878460405161234e929190614edd565b60405180910390a35050506123616127b2565b5050565b61236d61287f565b73ffffffffffffffffffffffffffffffffffffffff1661238b610d8f565b73ffffffffffffffffffffffffffffffffffffffff16146123ea576123ae61287f565b6040517f118cdaa70000000000000000000000000000000000000000000000000000000081526004016123e191906142d5565b60405180910390fd5b565b6000808503612427576040517f2aa244fe00000000000000000000000000000000000000000000000000000000815260040160405180910390fd5b6000801b8403612463576040517f2aa244fe00000000000000000000000000000000000000000000000000000000815260040160405180910390fd5b600073ffffffffffffffffffffffffffffffffffffffff168373ffffffffffffffffffffffffffffffffffffffff16036124c9576040517faa15487e00000000000000000000000000000000000000000000000000000000815260040160405180910390fd5b600073ffffffffffffffffffffffffffffffffffffffff168273ffffffffffffffffffffffffffffffffffffffff160361252f576040517faa15487e00000000000000000000000000000000000000000000000000000000815260040160405180910390fd5b60006040518060c001604052808681526020016000600181111561255657612555614f76565b5b81526020018573ffffffffffffffffffffffffffffffffffffffff1681526020018473ffffffffffffffffffffffffffffffffffffffff168152602001878152602001600067ffffffffffffffff8111156125b4576125b3614372565b5b6040519080825280601f01601f1916602001820160405280156125e65781602001600182028036833780820191505090505b508152509050600060405180608001604052803073ffffffffffffffffffffffffffffffffffffffff1681526020016000151581526020013073ffffffffffffffffffffffffffffffffffffffff1681526020016000151581525090507f000000000000000000000000000000000000000000000000000000000000000073ffffffffffffffffffffffffffffffffffffffff1663e969f6b383836040518363ffffffff1660e01b815260040161269e929190615212565b6020604051808303816000875af11580156126bd573d6000803e3d6000fd5b505050506040513d601f19601f820116820180604052508101906126e19190614c47565b92505050949350505050565b600260015403612729576040517f3ee5aeb500000000000000000000000000000000000000000000000000000000815260040160405180910390fd5b6002600181905550565b6127ad838473ffffffffffffffffffffffffffffffffffffffff1663a9059cbb8585604051602401612766929190614eb4565b604051602081830303815290604052915060e01b6020820180517bffffffffffffffffffffffffffffffffffffffffffffffffffffffff8381831617835250505050613620565b505050565b60018081905550565b60008060009054906101000a900473ffffffffffffffffffffffffffffffffffffffff169050816000806101000a81548173ffffffffffffffffffffffffffffffffffffffff021916908373ffffffffffffffffffffffffffffffffffffffff1602179055508173ffffffffffffffffffffffffffffffffffffffff168173ffffffffffffffffffffffffffffffffffffffff167f8be0079c531659141344cd1fd0a4f28419497f9722a3daafe3b4186f6b6457e060405160405180910390a35050565b600033905090565b612903848573ffffffffffffffffffffffffffffffffffffffff166323b872dd8686866040516024016128bc93929190615242565b604051602081830303815290604052915060e01b6020820180517bffffffffffffffffffffffffffffffffffffffffffffffffffffffff8381831617835250505050613620565b50505050565b60608373ffffffffffffffffffffffffffffffffffffffff1663095ea7b37f0000000000000000000000000000000000000000000000000000000000000000876040518363ffffffff1660e01b8152600401612966929190614eb4565b6020604051808303816000875af1158015612985573d6000803e3d6000fd5b505050506040513d601f19601f820116820180604052508101906129a991906152a5565b506000600267ffffffffffffffff8111156129c7576129c6614372565b5b604051908082528060200260200182016040528015612a0057816020015b6129ed61416d565b8152602001906001900390816129e55790505b5090506040518060a00160405280600760008873ffffffffffffffffffffffffffffffffffffffff1673ffffffffffffffffffffffffffffffffffffffff1681526020019081526020016000205481526020016000815260200160018152602001878152602001600067ffffffffffffffff811115612a8257612a81614372565b5b6040519080825280601f01601f191660200182016040528015612ab45781602001600182028036833780820191505090505b5081525081600081518110612acc57612acb614bda565b5b60200260200101819052506040518060a00160405280848152602001600181526020016002815260200160008152602001600067ffffffffffffffff811115612b1857612b17614372565b5b6040519080825280601f01601f191660200182016040528015612b4a5781602001600182028036833780820191505090505b5081525081600181518110612b6257612b61614bda565b5b60200260200101819052506000600367ffffffffffffffff811115612b8a57612b89614372565b5b604051908082528060200260200182016040528015612bb85781602001602082028036833780820191505090505b5090508581600081518110612bd057612bcf614bda565b5b602002602001019073ffffffffffffffffffffffffffffffffffffffff16908173ffffffffffffffffffffffffffffffffffffffff16815250507f000000000000000000000000000000000000000000000000000000000000000081600181518110612c3f57612c3e614bda565b5b602002602001019073ffffffffffffffffffffffffffffffffffffffff16908173ffffffffffffffffffffffffffffffffffffffff16815250508481600281518110612c8e57612c8d614bda565b5b602002602001019073ffffffffffffffffffffffffffffffffffffffff16908173ffffffffffffffffffffffffffffffffffffffff1681525050600060405180608001604052803073ffffffffffffffffffffffffffffffffffffffff1681526020016000151581526020013073ffffffffffffffffffffffffffffffffffffffff1681526020016000151581525090506000600367ffffffffffffffff811115612d3c57612d3b614372565b5b604051908082528060200260200182016040528015612d6a5781602001602082028036833780820191505090505b5090507f7fffffffffffffffffffffffffffffffffffffffffffffffffffffffffffffff81600081518110612da257612da1614bda565b5b6020026020010181815250507f7fffffffffffffffffffffffffffffffffffffffffffffffffffffffffffffff81600181518110612de357612de2614bda565b5b6020026020010181815250507f7fffffffffffffffffffffffffffffffffffffffffffffffffffffffffffffff81600281518110612e2457612e23614bda565b5b6020026020010181815250507f000000000000000000000000000000000000000000000000000000000000000073ffffffffffffffffffffffffffffffffffffffff1663945bcec96000868686867fffffffffffffffffffffffffffffffffffffffffffffffffffffffffffffffff6040518763ffffffff1660e01b8152600401612eb496959493929190615590565b6000604051808303816000875af1158015612ed3573d6000803e3d6000fd5b505050506040513d6000823e3d601f19601f82011682018060405250810190612efc91906156f7565b945050505050949350505050565b60007f19457468657265756d205369676e6564204d6573736167653a0a33320000000060005281601c52603c6000209050919050565b6000806000612f4f85856136b7565b509150915060006003811115612f6857612f67614f76565b5b816003811115612f7b57612f7a614f76565b5b148015612fb357508573ffffffffffffffffffffffffffffffffffffffff168273ffffffffffffffffffffffffffffffffffffffff16145b80612fc55750612fc4868686613713565b5b925050509392505050565b6000810361300a576040517f2aa244fe00000000000000000000000000000000000000000000000000000000815260040160405180910390fd5b60007f000000000000000000000000000000000000000000000000000000000000000090506000606460508461304091906149ba565b61304a9190614ba9565b9050600060405180608001604052803073ffffffffffffffffffffffffffffffffffffffff1681526020016000151581526020013073ffffffffffffffffffffffffffffffffffffffff1681526020016000151581525090508273ffffffffffffffffffffffffffffffffffffffff1663095ea7b37f0000000000000000000000000000000000000000000000000000000000000000866040518363ffffffff1660e01b81526004016130fe929190614eb4565b6020604051808303816000875af115801561311d573d6000803e3d6000fd5b505050506040513d601f19601f8201168201806040525081019061314191906152a5565b507f000000000000000000000000000000000000000000000000000000000000000073ffffffffffffffffffffffffffffffffffffffff166352bbbe296040518060c001604052807f00000000000000000000000000000000000000000000000000000000000000008152602001600060018111156131c3576131c2614f76565b5b81526020018673ffffffffffffffffffffffffffffffffffffffff1681526020017f000000000000000000000000000000000000000000000000000000000000000073ffffffffffffffffffffffffffffffffffffffff168152602001858861322c9190614deb565b8152602001600067ffffffffffffffff81111561324c5761324b614372565b5b6040519080825280601f01601f19166020018201604052801561327e5781602001600182028036833780820191505090505b508152508360007fffffffffffffffffffffffffffffffffffffffffffffffffffffffffffffffff6040518563ffffffff1660e01b81526004016132c5949392919061577b565b6020604051808303816000875af11580156132e4573d6000803e3d6000fd5b505050506040513d601f19601f820116820180604052508101906133089190614c47565b507f000000000000000000000000000000000000000000000000000000000000000073ffffffffffffffffffffffffffffffffffffffff166352bbbe296040518060c001604052807f000000000000000000000000000000000000000000000000000000000000000081526020016000600181111561338a57613389614f76565b5b81526020018673ffffffffffffffffffffffffffffffffffffffff1681526020017f000000000000000000000000000000000000000000000000000000000000000073ffffffffffffffffffffffffffffffffffffffff168152602001858152602001600067ffffffffffffffff81111561340857613407614372565b5b6040519080825280601f01601f19166020018201604052801561343a5781602001600182028036833780820191505090505b508152508360007fffffffffffffffffffffffffffffffffffffffffffffffffffffffffffffffff6040518563ffffffff1660e01b8152600401613481949392919061577b565b6020604051808303816000875af11580156134a0573d6000803e3d6000fd5b505050506040513d601f19601f820116820180604052508101906134c49190614c47565b5050505050565b60008203613505576040517f2aa244fe00000000000000000000000000000000000000000000000000000000815260040160405180910390fd5b6000606460508461351691906149ba565b6135209190614ba9565b90507f000000000000000000000000000000000000000000000000000000000000000073ffffffffffffffffffffffffffffffffffffffff168273ffffffffffffffffffffffffffffffffffffffff16146135ce576135cc81846135849190614deb565b837f00000000000000000000000000000000000000000000000000000000000000007f0000000000000000000000000000000000000000000000000000000000000000613837565b505b61361a81837f00000000000000000000000000000000000000000000000000000000000000007f0000000000000000000000000000000000000000000000000000000000000000613837565b50505050565b600061364b828473ffffffffffffffffffffffffffffffffffffffff16613e3890919063ffffffff16565b9050600081511415801561367057508080602001905181019061366e91906152a5565b155b156136b257826040517f5274afe70000000000000000000000000000000000000000000000000000000081526004016136a991906142d5565b60405180910390fd5b505050565b600080600060418451036136fc5760008060006020870151925060408701519150606087015160001a90506136ee88828585613e4e565b95509550955050505061370c565b60006002855160001b9250925092505b9250925092565b60008060008573ffffffffffffffffffffffffffffffffffffffff168585604051602401613742929190615811565b604051602081830303815290604052631626ba7e60e01b6020820180517bffffffffffffffffffffffffffffffffffffffffffffffffffffffff8381831617835250505050604051613794919061587d565b600060405180830381855afa9150503d80600081146137cf576040519150601f19603f3d011682016040523d82523d6000602084013e6137d4565b606091505b50915091508180156137e857506020815110155b801561382c5750631626ba7e60e01b7bffffffffffffffffffffffffffffffffffffffffffffffffffffffff19168180602001905181019061382a91906158a9565b145b925050509392505050565b60608373ffffffffffffffffffffffffffffffffffffffff1663095ea7b37f0000000000000000000000000000000000000000000000000000000000000000876040518363ffffffff1660e01b8152600401613894929190614eb4565b6020604051808303816000875af11580156138b3573d6000803e3d6000fd5b505050506040513d601f19601f820116820180604052508101906138d791906152a5565b506000600267ffffffffffffffff8111156138f5576138f4614372565b5b60405190808252806020026020018201604052801561392e57816020015b61391b61416d565b8152602001906001900390816139135790505b5090506040518060a00160405280600660008873ffffffffffffffffffffffffffffffffffffffff1673ffffffffffffffffffffffffffffffffffffffff1681526020019081526020016000205481526020016000815260200160018152602001878152602001600067ffffffffffffffff8111156139b0576139af614372565b5b6040519080825280601f01601f1916602001820160405280156139e25781602001600182028036833780820191505090505b50815250816000815181106139fa576139f9614bda565b5b60200260200101819052506040518060a00160405280848152602001600181526020016002815260200160008152602001600067ffffffffffffffff811115613a4657613a45614372565b5b6040519080825280601f01601f191660200182016040528015613a785781602001600182028036833780820191505090505b5081525081600181518110613a9057613a8f614bda565b5b60200260200101819052506000600367ffffffffffffffff811115613ab857613ab7614372565b5b604051908082528060200260200182016040528015613ae65781602001602082028036833780820191505090505b5090508581600081518110613afe57613afd614bda565b5b602002602001019073ffffffffffffffffffffffffffffffffffffffff16908173ffffffffffffffffffffffffffffffffffffffff16815250507f000000000000000000000000000000000000000000000000000000000000000081600181518110613b6d57613b6c614bda565b5b602002602001019073ffffffffffffffffffffffffffffffffffffffff16908173ffffffffffffffffffffffffffffffffffffffff16815250508481600281518110613bbc57613bbb614bda565b5b602002602001019073ffffffffffffffffffffffffffffffffffffffff16908173ffffffffffffffffffffffffffffffffffffffff1681525050600060405180608001604052803073ffffffffffffffffffffffffffffffffffffffff1681526020016000151581526020013073ffffffffffffffffffffffffffffffffffffffff1681526020016000151581525090506000600367ffffffffffffffff811115613c6a57613c69614372565b5b604051908082528060200260200182016040528015613c985781602001602082028036833780820191505090505b5090507f7fffffffffffffffffffffffffffffffffffffffffffffffffffffffffffffff81600081518110613cd057613ccf614bda565b5b6020026020010181815250507f7fffffffffffffffffffffffffffffffffffffffffffffffffffffffffffffff81600181518110613d1157613d10614bda565b5b6020026020010181815250507f7fffffffffffffffffffffffffffffffffffffffffffffffffffffffffffffff81600281518110613d5257613d51614bda565b5b6020026020010181815250507f000000000000000000000000000000000000000000000000000000000000000073ffffffffffffffffffffffffffffffffffffffff1663945bcec96000868686867fffffffffffffffffffffffffffffffffffffffffffffffffffffffffffffffff6040518763ffffffff1660e01b8152600401613de296959493929190615590565b6000604051808303816000875af1158015613e01573d6000803e3d6000fd5b505050506040513d6000823e3d601f19601f82011682018060405250810190613e2a91906156f7565b945050505050949350505050565b6060613e4683836000613f42565b905092915050565b60008060007f7fffffffffffffffffffffffffffffff5d576e7357a4501ddfe92f46681b20a08460001c1115613e8e576000600385925092509250613f38565b600060018888888860405160008152602001604052604051613eb394939291906158d6565b6020604051602081039080840390855afa158015613ed5573d6000803e3d6000fd5b505050602060405103519050600073ffffffffffffffffffffffffffffffffffffffff168173ffffffffffffffffffffffffffffffffffffffff1603613f2957600060016000801b93509350935050613f38565b8060008060001b935093509350505b9450945094915050565b606081471015613f8957306040517fcd786059000000000000000000000000000000000000000000000000000000008152600401613f8091906142d5565b60405180910390fd5b6000808573ffffffffffffffffffffffffffffffffffffffff168486604051613fb2919061587d565b60006040518083038185875af1925050503d8060008114613fef576040519150601f19603f3d011682016040523d82523d6000602084013e613ff4565b606091505b509150915061400486838361400f565b925050509392505050565b6060826140245761401f8261409e565b614096565b6000825114801561404c575060008473ffffffffffffffffffffffffffffffffffffffff163b145b1561408e57836040517f9996b31500000000000000000000000000000000000000000000000000000000815260040161408591906142d5565b60405180910390fd5b819050614097565b5b9392505050565b6000815111156140b15780518082602001fd5b6040517f1425ea4200000000000000000000000000000000000000000000000000000000815260040160405180910390fd5b82805482825590600052602060002090810192821561415c579160200282015b8281111561415b5782518260006101000a81548173ffffffffffffffffffffffffffffffffffffffff021916908373ffffffffffffffffffffffffffffffffffffffff16021790555091602001919060010190614103565b5b509050614169919061419f565b5090565b6040518060a0016040528060008019168152602001600081526020016000815260200160008152602001606081525090565b5b808211156141b85760008160009055506001016141a0565b5090565b6000819050919050565b6141cf816141bc565b82525050565b60006020820190506141ea60008301846141c6565b92915050565b6000604051905090565b600080fd5b600080fd5b61420d816141bc565b811461421857600080fd5b50565b60008135905061422a81614204565b92915050565b600060208284031215614246576142456141fa565b5b60006142548482850161421b565b91505092915050565b600060ff82169050919050565b6142738161425d565b82525050565b600060208201905061428e600083018461426a565b92915050565b600073ffffffffffffffffffffffffffffffffffffffff82169050919050565b60006142bf82614294565b9050919050565b6142cf816142b4565b82525050565b60006020820190506142ea60008301846142c6565b92915050565b6142f9816142b4565b811461430457600080fd5b50565b600081359050614316816142f0565b92915050565b60008060408385031215614333576143326141fa565b5b60006143418582860161421b565b925050602061435285828601614307565b9150509250929050565b600080fd5b6000601f19601f8301169050919050565b7f4e487b7100000000000000000000000000000000000000000000000000000000600052604160045260246000fd5b6143aa82614361565b810181811067ffffffffffffffff821117156143c9576143c8614372565b5b80604052505050565b60006143dc6141f0565b90506143e882826143a1565b919050565b600067ffffffffffffffff82111561440857614407614372565b5b602082029050602081019050919050565b600080fd5b600061443161442c846143ed565b6143d2565b9050808382526020820190506020840283018581111561445457614453614419565b5b835b8181101561447d57806144698882614307565b845260208401935050602081019050614456565b5050509392505050565b600082601f83011261449c5761449b61435c565b5b81356144ac84826020860161441e565b91505092915050565b600067ffffffffffffffff8211156144d0576144cf614372565b5b602082029050602081019050919050565b60006144f46144ef846144b5565b6143d2565b9050808382526020820190506020840283018581111561451757614516614419565b5b835b81811015614540578061452c888261421b565b845260208401935050602081019050614519565b5050509392505050565b600082601f83011261455f5761455e61435c565b5b813561456f8482602086016144e1565b91505092915050565b6000806040838503121561458f5761458e6141fa565b5b600083013567ffffffffffffffff8111156145ad576145ac6141ff565b5b6145b985828601614487565b925050602083013567ffffffffffffffff8111156145da576145d96141ff565b5b6145e68582860161454a565b9150509250929050565b600060208284031215614606576146056141fa565b5b600061461484828501614307565b91505092915050565b6146268161425d565b811461463157600080fd5b50565b6000813590506146438161461d565b92915050565b60006020828403121561465f5761465e6141fa565b5b600061466d84828501614634565b91505092915050565b600080fd5b600067ffffffffffffffff82111561469657614695614372565b5b61469f82614361565b9050602081019050919050565b82818337600083830152505050565b60006146ce6146c98461467b565b6143d2565b9050828152602081018484840111156146ea576146e9614676565b5b6146f58482856146ac565b509392505050565b600082601f8301126147125761471161435c565b5b81356147228482602086016146bb565b91505092915050565b60008060008060808587031215614745576147446141fa565b5b60006147538782880161421b565b945050602061476487828801614307565b93505060406147758782880161421b565b925050606085013567ffffffffffffffff811115614796576147956141ff565b5b6147a2878288016146fd565b91505092959194509250565b600067ffffffffffffffff8211156147c9576147c8614372565b5b602082029050602081019050919050565b6000819050919050565b6147ed816147da565b81146147f857600080fd5b50565b60008135905061480a816147e4565b92915050565b600061482361481e846147ae565b6143d2565b9050808382526020820190506020840283018581111561484657614845614419565b5b835b8181101561486f578061485b88826147fb565b845260208401935050602081019050614848565b5050509392505050565b600082601f83011261488e5761488d61435c565b5b813561489e848260208601614810565b91505092915050565b600080604083850312156148be576148bd6141fa565b5b600083013567ffffffffffffffff8111156148dc576148db6141ff565b5b6148e885828601614487565b925050602083013567ffffffffffffffff811115614909576149086141ff565b5b61491585828601614879565b9150509250929050565b614928816147da565b82525050565b6000602082019050614943600083018461491f565b92915050565b6000815190506149588161461d565b92915050565b600060208284031215614974576149736141fa565b5b600061498284828501614949565b91505092915050565b7f4e487b7100000000000000000000000000000000000000000000000000000000600052601160045260246000fd5b60006149c5826141bc565b91506149d0836141bc565b92508282026149de816141bc565b915082820484148315176149f5576149f461498b565b5b5092915050565b60008160011c9050919050565b6000808291508390505b6001851115614a5357808604811115614a2f57614a2e61498b565b5b6001851615614a3e5780820291505b8081029050614a4c856149fc565b9450614a13565b94509492505050565b600082614a6c5760019050614b28565b81614a7a5760009050614b28565b8160018114614a905760028114614a9a57614ac9565b6001915050614b28565b60ff841115614aac57614aab61498b565b5b8360020a915084821115614ac357614ac261498b565b5b50614b28565b5060208310610133831016604e8410600b8410161715614afe5782820a905083811115614af957614af861498b565b5b614b28565b614b0b8484846001614a09565b92509050818404811115614b2257614b2161498b565b5b81810290505b9392505050565b6000614b3a826141bc565b9150614b458361425d565b9250614b727fffffffffffffffffffffffffffffffffffffffffffffffffffffffffffffffff8484614a5c565b905092915050565b7f4e487b7100000000000000000000000000000000000000000000000000000000600052601260045260246000fd5b6000614bb4826141bc565b9150614bbf836141bc565b925082614bcf57614bce614b7a565b5b828204905092915050565b7f4e487b7100000000000000000000000000000000000000000000000000000000600052603260045260246000fd5b6000614c148261425d565b915060ff8203614c2757614c2661498b565b5b600182019050919050565b600081519050614c4181614204565b92915050565b600060208284031215614c5d57614c5c6141fa565b5b6000614c6b84828501614c32565b91505092915050565b6000606082019050614c8960008301866141c6565b614c9660208301856142c6565b614ca360408301846141c6565b949350505050565b600082825260208201905092915050565b7f416d6f756e74206d757374206265206174206c6561737420302e303520454e5260008201527f4700000000000000000000000000000000000000000000000000000000000000602082015250565b6000614d18602183614cab565b9150614d2382614cbc565b604082019050919050565b60006020820190508181036000830152614d4781614d0b565b9050919050565b6000614d59826141bc565b9150614d64836141bc565b925082614d7457614d73614b7a565b5b828206905092915050565b7f416d6f756e74206d75737420626520646976697369626c652062792035000000600082015250565b6000614db5601d83614cab565b9150614dc082614d7f565b602082019050919050565b60006020820190508181036000830152614de481614da8565b9050919050565b6000614df6826141bc565b9150614e01836141bc565b9250828203905081811115614e1957614e1861498b565b5b92915050565b6000604082019050614e3460008301856142c6565b614e4160208301846142c6565b9392505050565b7f556e646572706169640000000000000000000000000000000000000000000000600082015250565b6000614e7e600983614cab565b9150614e8982614e48565b602082019050919050565b60006020820190508181036000830152614ead81614e71565b9050919050565b6000604082019050614ec960008301856142c6565b614ed660208301846141c6565b9392505050565b6000604082019050614ef260008301856141c6565b614eff60208301846141c6565b9392505050565b6000819050919050565b614f21614f1c826141bc565b614f06565b82525050565b6000614f338284614f10565b60208201915081905092915050565b6000614f4d826141bc565b9150614f58836141bc565b9250828201905080821115614f7057614f6f61498b565b5b92915050565b7f4e487b7100000000000000000000000000000000000000000000000000000000600052602160045260246000fd5b614fae816147da565b82525050565b60028110614fc557614fc4614f76565b5b50565b6000819050614fd682614fb4565b919050565b6000614fe682614fc8565b9050919050565b614ff681614fdb565b82525050565b6000819050919050565b600061502161501c61501784614294565b614ffc565b614294565b9050919050565b600061503382615006565b9050919050565b600061504582615028565b9050919050565b6150558161503a565b82525050565b615064816141bc565b82525050565b600081519050919050565b600082825260208201905092915050565b60005b838110156150a4578082015181840152602081019050615089565b60008484015250505050565b60006150bb8261506a565b6150c58185615075565b93506150d5818560208601615086565b6150de81614361565b840191505092915050565b600060c0830160008301516151016000860182614fa5565b5060208301516151146020860182614fed565b506040830151615127604086018261504c565b50606083015161513a606086018261504c565b50608083015161514d608086018261505b565b5060a083015184820360a086015261516582826150b0565b9150508091505092915050565b61517b816142b4565b82525050565b60008115159050919050565b61519681615181565b82525050565b60006151a782614294565b9050919050565b6151b78161519c565b82525050565b6080820160008201516151d36000850182615172565b5060208201516151e6602085018261518d565b5060408201516151f960408501826151ae565b50606082015161520c606085018261518d565b50505050565b600060a082019050818103600083015261522c81856150e9565b905061523b60208301846151bd565b9392505050565b600060608201905061525760008301866142c6565b61526460208301856142c6565b61527160408301846141c6565b949350505050565b61528281615181565b811461528d57600080fd5b50565b60008151905061529f81615279565b92915050565b6000602082840312156152bb576152ba6141fa565b5b60006152c984828501615290565b91505092915050565b6152db81614fdb565b82525050565b600081519050919050565b600082825260208201905092915050565b6000819050602082019050919050565b600060a0830160008301516153256000860182614fa5565b506020830151615338602086018261505b565b50604083015161534b604086018261505b565b50606083015161535e606086018261505b565b506080830151848203608086015261537682826150b0565b9150508091505092915050565b600061538f838361530d565b905092915050565b6000602082019050919050565b60006153af826152e1565b6153b981856152ec565b9350836020820285016153cb856152fd565b8060005b8581101561540757848403895281516153e88582615383565b94506153f383615397565b925060208a019950506001810190506153cf565b50829750879550505050505092915050565b600081519050919050565b600082825260208201905092915050565b6000819050602082019050919050565b6000615451838361504c565b60208301905092915050565b6000602082019050919050565b600061547582615419565b61547f8185615424565b935061548a83615435565b8060005b838110156154bb5781516154a28882615445565b97506154ad8361545d565b92505060018101905061548e565b5085935050505092915050565b600081519050919050565b600082825260208201905092915050565b6000819050602082019050919050565b6000819050919050565b615507816154f4565b82525050565b600061551983836154fe565b60208301905092915050565b6000602082019050919050565b600061553d826154c8565b61554781856154d3565b9350615552836154e4565b8060005b8381101561558357815161556a888261550d565b975061557583615525565b925050600181019050615556565b5085935050505092915050565b6000610120820190506155a660008301896152d2565b81810360208301526155b881886153a4565b905081810360408301526155cc818761546a565b90506155db60608301866151bd565b81810360e08301526155ed8185615532565b90506155fd6101008301846141c6565b979650505050505050565b600067ffffffffffffffff82111561562357615622614372565b5b602082029050602081019050919050565b61563d816154f4565b811461564857600080fd5b50565b60008151905061565a81615634565b92915050565b600061567361566e84615608565b6143d2565b9050808382526020820190506020840283018581111561569657615695614419565b5b835b818110156156bf57806156ab888261564b565b845260208401935050602081019050615698565b5050509392505050565b600082601f8301126156de576156dd61435c565b5b81516156ee848260208601615660565b91505092915050565b60006020828403121561570d5761570c6141fa565b5b600082015167ffffffffffffffff81111561572b5761572a6141ff565b5b615737848285016156c9565b91505092915050565b6000819050919050565b600061576561576061575b84615740565b614ffc565b6141bc565b9050919050565b6157758161574a565b82525050565b600060e082019050818103600083015261579581876150e9565b90506157a460208301866151bd565b6157b160a083018561576c565b6157be60c08301846141c6565b95945050505050565b600082825260208201905092915050565b60006157e38261506a565b6157ed81856157c7565b93506157fd818560208601615086565b61580681614361565b840191505092915050565b6000604082019050615826600083018561491f565b818103602083015261583881846157d8565b90509392505050565b600081905092915050565b60006158578261506a565b6158618185615841565b9350615871818560208601615086565b80840191505092915050565b6000615889828461584c565b915081905092915050565b6000815190506158a3816147e4565b92915050565b6000602082840312156158bf576158be6141fa565b5b60006158cd84828501615894565b91505092915050565b60006080820190506158eb600083018761491f565b6158f8602083018661426a565b615905604083018561491f565b615912606083018461491f565b9594505050505056fea26469706673582212205db1a582f684e509e094b29b907b00408dfc7693755414bd455e7d97536395ba64736f6c63430008150033",
  "devdoc": {
    "errors": {
      "AddressEmptyCode(address)": [
        {
          "details": "There's no code at `target` (it is not a contract)."
        }
      ],
      "AddressInsufficientBalance(address)": [
        {
          "details": "The ETH balance of the account is not enough to perform the operation."
        }
      ],
      "FailedInnerCall()": [
        {
          "details": "A call to an address target failed. The target may have reverted."
        }
      ],
      "OwnableInvalidOwner(address)": [
        {
          "details": "The owner is not a valid owner account. (eg. `address(0)`)"
        }
      ],
      "OwnableUnauthorizedAccount(address)": [
        {
          "details": "The caller account is not authorized to perform an operation."
        }
      ],
      "ReentrancyGuardReentrantCall()": [
        {
          "details": "Unauthorized reentrant call."
        }
      ],
      "SafeERC20FailedOperation(address)": [
        {
          "details": "An operation with an ERC20 token failed."
        }
      ]
    },
    "kind": "dev",
    "methods": {
      "burn(uint256,address)": {
        "params": {
          "_amount": "ENRG to be burned",
          "_paymentTokenAddress": "token to receive as payment"
        }
      },
      "getPrice(uint256,address)": {
        "params": {
          "_amount": "of energy to be minted",
          "_paymentTokenAddress": "to be used for payment"
        }
      },
      "mint(uint256,address)": {
        "params": {
          "_amount": "to be minted",
          "_paymentTokenAddress": "to be used for payment"
        }
      },
      "mintWithDynamic(uint256,address,uint256,bytes)": {
        "params": {
          "_amount": "to be minted",
          "_offlinePrice": "provided by an offline Oracle",
          "_paymentTokenAddress": "to be used for payment",
          "_signature": "that proves the Oracle's price data was provided by the owner"
        }
      },
      "owner()": {
        "details": "Returns the address of the current owner."
      },
      "renounceOwnership()": {
        "details": "Leaves the contract without owner. It will not be possible to call `onlyOwner` functions. Can only be called by the current owner. NOTE: Renouncing ownership will leave the contract without an owner, thereby disabling any functionality that is only available to the owner."
      },
      "setDynamicExchangeAcceptedDeviationPercentage(uint8)": {
        "params": {
          "_dynamicExchangeAcceptedDeviationPercentage": "percentage of deviation"
        }
      },
      "setDynamicExchangeTokens(address[],bytes32[])": {
        "params": {
          "_dynamicExchangePools": "array of Balancer pool ids (WETH-Token pools)",
          "_dynamicExchangeTokens": "array of token addresses"
        }
      },
      "setFixedExchangeRates(address[],uint256[])": {
        "params": {
          "_fixedExchangeRates": "array of exchage rates (price per 1 ENRG token)",
          "_fixedExchangeTokens": "array of token addresses"
        }
      },
      "setFixedExchangeTokens(address[],uint256[])": {
        "params": {
          "_fixedExchangeRates": "array of Balancer pool ids (WETH-Token pools)",
          "_fixedExchangeTokens": "array of token addresses"
        }
      },
      "setMaxMintAmount(uint256)": {
        "details": "Throws if called by any account other than the energy token."
      },
      "setStableExchangeTokens(address[],bytes32[])": {
        "params": {
          "_stableExchangePools": "array of Balancer pool ids (WETH-Token pools)",
          "_stableExchangeTokens": "array of token addresses"
        }
      },
      "setTrustedSigner(address)": {
        "params": {
          "_trustedSigner": "address of the trusted signer"
        }
      },
      "transferOwnership(address)": {
        "details": "Transfers ownership of the contract to a new account (`newOwner`). Can only be called by the current owner."
      },
      "withdraw(address)": {
        "params": {
          "_erc20": "token to withdraw"
        }
      }
    },
    "version": 1
  },
  "userdoc": {
    "kind": "user",
    "methods": {
      "burn(uint256,address)": {
        "notice": "Burns the desired ENRG amount, receiving the desired payment token in exchange (if available). "
      },
      "getPrice(uint256,address)": {
        "notice": "Calculates the price for the amount of ENRG in the payment token. Can be used from any external actor to calculate the price before minting. "
      },
      "mint(uint256,address)": {
        "notice": "Minting with fixed exchange rate (stablecoin) "
      },
      "mintWithDynamic(uint256,address,uint256,bytes)": {
        "notice": "Minting with dynamic exchange rate (HDAO, BAL, AAVE, etc.). Sent tokens will be exchanged for WETH and then for USDC and HDAO. "
      },
      "setDynamicExchangeAcceptedDeviationPercentage(uint8)": {
        "notice": "Set the deviation percentage from the provided price and the price from Balancer.  If the deviation is higher than the provided percentage, the transaction will be reverted. "
      },
      "setDynamicExchangeTokens(address[],bytes32[])": {
        "notice": "Set the tokens that can be used for minting, with a dynamic exchange rate, from a Balancer pool. "
      },
      "setFixedExchangeRates(address[],uint256[])": {
        "notice": "Sets the fixed exchange rates for the tokens. "
      },
      "setFixedExchangeTokens(address[],uint256[])": {
        "notice": "Set the stablecoins that can be used for minting "
      },
      "setMaxMintAmount(uint256)": {
        "notice": "Sets the amount of energy that can be minted per transaction. "
      },
      "setStableExchangeTokens(address[],bytes32[])": {
        "notice": "Set the tokens that can be used for minting, with a dynamic exchange rate, from a Balancer pool. "
      },
      "setTrustedSigner(address)": {
        "notice": "Set the trusted signer address. Will be used for offline price signature verification "
      },
      "withdraw(address)": {
        "notice": "Lets the contract owner to withdraw any ERC20 token from the contract. "
      }
    },
    "version": 1
  },
  "storageLayout": {
    "storage": [
      {
        "astId": 846,
        "contract": "contracts/Factory.sol:Factory",
        "label": "_owner",
        "offset": 0,
        "slot": "0",
        "type": "t_address"
      },
      {
        "astId": 2811,
        "contract": "contracts/Factory.sol:Factory",
        "label": "_status",
        "offset": 0,
        "slot": "1",
        "type": "t_uint256"
      },
      {
        "astId": 5588,
        "contract": "contracts/Factory.sol:Factory",
        "label": "trustedSigner",
        "offset": 0,
        "slot": "2",
        "type": "t_address"
      },
      {
        "astId": 5590,
        "contract": "contracts/Factory.sol:Factory",
        "label": "energyToken",
        "offset": 0,
        "slot": "3",
        "type": "t_address"
      },
      {
        "astId": 5592,
        "contract": "contracts/Factory.sol:Factory",
        "label": "maxMintAmount",
        "offset": 0,
        "slot": "4",
        "type": "t_uint256"
      },
      {
        "astId": 5596,
        "contract": "contracts/Factory.sol:Factory",
        "label": "fixedExchangeRate",
        "offset": 0,
        "slot": "5",
        "type": "t_mapping(t_address,t_uint256)"
      },
      {
        "astId": 5600,
        "contract": "contracts/Factory.sol:Factory",
        "label": "dynamicExchangeTokens",
        "offset": 0,
        "slot": "6",
        "type": "t_mapping(t_address,t_bytes32)"
      },
      {
        "astId": 5604,
        "contract": "contracts/Factory.sol:Factory",
        "label": "stableExchangeTokens",
        "offset": 0,
        "slot": "7",
        "type": "t_mapping(t_address,t_bytes32)"
      },
      {
        "astId": 5607,
        "contract": "contracts/Factory.sol:Factory",
        "label": "fixedExchangeTokens",
        "offset": 0,
        "slot": "8",
        "type": "t_array(t_address)dyn_storage"
      },
      {
        "astId": 5609,
        "contract": "contracts/Factory.sol:Factory",
        "label": "dynamicExchangeAcceptedDeviationPercentage",
        "offset": 0,
        "slot": "9",
        "type": "t_uint8"
      },
      {
        "astId": 5611,
        "contract": "contracts/Factory.sol:Factory",
        "label": "burningPrice",
        "offset": 0,
        "slot": "10",
        "type": "t_uint256"
      }
    ],
    "types": {
      "t_address": {
        "encoding": "inplace",
        "label": "address",
        "numberOfBytes": "20"
      },
      "t_array(t_address)dyn_storage": {
        "base": "t_address",
        "encoding": "dynamic_array",
        "label": "address[]",
        "numberOfBytes": "32"
      },
      "t_bytes32": {
        "encoding": "inplace",
        "label": "bytes32",
        "numberOfBytes": "32"
      },
      "t_mapping(t_address,t_bytes32)": {
        "encoding": "mapping",
        "key": "t_address",
        "label": "mapping(address => bytes32)",
        "numberOfBytes": "32",
        "value": "t_bytes32"
      },
      "t_mapping(t_address,t_uint256)": {
        "encoding": "mapping",
        "key": "t_address",
        "label": "mapping(address => uint256)",
        "numberOfBytes": "32",
        "value": "t_uint256"
      },
      "t_uint256": {
        "encoding": "inplace",
        "label": "uint256",
        "numberOfBytes": "32"
      },
      "t_uint8": {
        "encoding": "inplace",
        "label": "uint8",
        "numberOfBytes": "1"
      }
    }
  }
}