{
  "address": "0xbec40Bfa1737DeC7fE8Edba9BD559f211D33E3f6",
  "abi": [
    {
      "inputs": [
        {
          "internalType": "address",
          "name": "_initialOwner",
          "type": "address"
        },
        {
          "internalType": "address",
          "name": "_energyToken",
          "type": "address"
        },
        {
          "internalType": "uint256",
          "name": "_maxMint",
          "type": "uint256"
        },
        {
          "internalType": "address[]",
          "name": "_fixedExchangeTokens",
          "type": "address[]"
        },
        {
          "internalType": "uint256[]",
          "name": "_fixedExchangeRates",
          "type": "uint256[]"
        },
        {
          "internalType": "address[]",
          "name": "_dynamicExchangeTokens",
          "type": "address[]"
        },
        {
          "internalType": "bytes32[]",
          "name": "_dynamicExchangePools",
          "type": "bytes32[]"
        }
      ],
      "stateMutability": "nonpayable",
      "type": "constructor"
    },
    {
      "inputs": [
        {
          "internalType": "address",
          "name": "target",
          "type": "address"
        }
      ],
      "name": "AddressEmptyCode",
      "type": "error"
    },
    {
      "inputs": [
        {
          "internalType": "address",
          "name": "account",
          "type": "address"
        }
      ],
      "name": "AddressInsufficientBalance",
      "type": "error"
    },
    {
      "inputs": [],
      "name": "FailedInnerCall",
      "type": "error"
    },
    {
      "inputs": [],
      "name": "InvalidParams",
      "type": "error"
    },
    {
      "inputs": [],
      "name": "InvalidParamsLength",
      "type": "error"
    },
    {
      "inputs": [],
      "name": "InvalidParamsZeroAddress",
      "type": "error"
    },
    {
      "inputs": [],
      "name": "InvalidParamsZeroValue",
      "type": "error"
    },
    {
      "inputs": [],
      "name": "InvalidSignature",
      "type": "error"
    },
    {
      "inputs": [],
      "name": "MaxMintAmount",
      "type": "error"
    },
    {
      "inputs": [],
      "name": "NotEnoughFunds",
      "type": "error"
    },
    {
      "inputs": [],
      "name": "OnlyEnergy",
      "type": "error"
    },
    {
      "inputs": [
        {
          "internalType": "address",
          "name": "owner",
          "type": "address"
        }
      ],
      "name": "OwnableInvalidOwner",
      "type": "error"
    },
    {
      "inputs": [
        {
          "internalType": "address",
          "name": "account",
          "type": "address"
        }
      ],
      "name": "OwnableUnauthorizedAccount",
      "type": "error"
    },
    {
      "inputs": [],
      "name": "ReentrancyGuardReentrantCall",
      "type": "error"
    },
    {
      "inputs": [
        {
          "internalType": "address",
          "name": "token",
          "type": "address"
        }
      ],
      "name": "SafeERC20FailedOperation",
      "type": "error"
    },
    {
      "inputs": [],
      "name": "UnacceptablePriceDeviation",
      "type": "error"
    },
    {
      "inputs": [],
      "name": "Underpaid",
      "type": "error"
    },
    {
      "anonymous": false,
      "inputs": [
        {
          "indexed": true,
          "internalType": "address",
          "name": "_from",
          "type": "address"
        },
        {
          "indexed": false,
          "internalType": "uint256",
          "name": "_amount",
          "type": "uint256"
        },
        {
          "indexed": true,
          "internalType": "address",
          "name": "_paymentToken",
          "type": "address"
        },
        {
          "indexed": false,
          "internalType": "uint256",
          "name": "_price",
          "type": "uint256"
        }
      ],
      "name": "Burn",
      "type": "event"
    },
    {
      "anonymous": false,
      "inputs": [
        {
          "indexed": true,
          "internalType": "address",
          "name": "_to",
          "type": "address"
        },
        {
          "indexed": false,
          "internalType": "uint256",
          "name": "_amount",
          "type": "uint256"
        },
        {
          "indexed": true,
          "internalType": "address",
          "name": "_paymentToken",
          "type": "address"
        },
        {
          "indexed": false,
          "internalType": "uint256",
          "name": "_price",
          "type": "uint256"
        }
      ],
      "name": "Mint",
      "type": "event"
    },
    {
      "anonymous": false,
      "inputs": [
        {
          "indexed": true,
          "internalType": "address",
          "name": "previousOwner",
          "type": "address"
        },
        {
          "indexed": true,
          "internalType": "address",
          "name": "newOwner",
          "type": "address"
        }
      ],
      "name": "OwnershipTransferred",
      "type": "event"
    },
    {
      "anonymous": false,
      "inputs": [
        {
          "indexed": false,
          "internalType": "uint256",
          "name": "amount",
          "type": "uint256"
        },
        {
          "indexed": false,
          "internalType": "address",
          "name": "erc20",
          "type": "address"
        },
        {
          "indexed": false,
          "internalType": "uint256",
          "name": "when",
          "type": "uint256"
        }
      ],
      "name": "Withdrawal",
      "type": "event"
    },
    {
      "inputs": [
        {
          "internalType": "uint256",
          "name": "_amount",
          "type": "uint256"
        },
        {
          "internalType": "address",
          "name": "_paymentTokenAddress",
          "type": "address"
        }
      ],
      "name": "burn",
      "outputs": [],
      "stateMutability": "nonpayable",
      "type": "function"
    },
    {
      "inputs": [],
      "name": "dynamicExchangeAcceptedDeviationPercentage",
      "outputs": [
        {
          "internalType": "uint8",
          "name": "",
          "type": "uint8"
        }
      ],
      "stateMutability": "view",
      "type": "function"
    },
    {
      "inputs": [
        {
          "internalType": "address",
          "name": "",
          "type": "address"
        }
      ],
      "name": "dynamicExchangeTokens",
      "outputs": [
        {
          "internalType": "bytes32",
          "name": "",
          "type": "bytes32"
        }
      ],
      "stateMutability": "view",
      "type": "function"
    },
    {
      "inputs": [],
      "name": "energyToken",
      "outputs": [
        {
          "internalType": "address",
          "name": "",
          "type": "address"
        }
      ],
      "stateMutability": "view",
      "type": "function"
    },
    {
      "inputs": [
        {
          "internalType": "address",
          "name": "",
          "type": "address"
        }
      ],
      "name": "fixedExchangeRate",
      "outputs": [
        {
          "internalType": "uint256",
          "name": "",
          "type": "uint256"
        }
      ],
      "stateMutability": "view",
      "type": "function"
    },
    {
      "inputs": [
        {
          "internalType": "uint256",
          "name": "",
          "type": "uint256"
        }
      ],
      "name": "fixedExchangeTokens",
      "outputs": [
        {
          "internalType": "address",
          "name": "",
          "type": "address"
        }
      ],
      "stateMutability": "view",
      "type": "function"
    },
    {
      "inputs": [
        {
          "internalType": "uint256",
          "name": "_amount",
          "type": "uint256"
        },
        {
          "internalType": "address",
          "name": "_paymentTokenAddress",
          "type": "address"
        }
      ],
      "name": "getPrice",
      "outputs": [
        {
          "internalType": "uint256",
          "name": "",
          "type": "uint256"
        }
      ],
      "stateMutability": "nonpayable",
      "type": "function"
    },
    {
      "inputs": [],
      "name": "maxMintAmount",
      "outputs": [
        {
          "internalType": "uint256",
          "name": "",
          "type": "uint256"
        }
      ],
      "stateMutability": "view",
      "type": "function"
    },
    {
      "inputs": [
        {
          "internalType": "uint256",
          "name": "_amount",
          "type": "uint256"
        },
        {
          "internalType": "address",
          "name": "_paymentTokenAddress",
          "type": "address"
        }
      ],
      "name": "mint",
      "outputs": [],
      "stateMutability": "nonpayable",
      "type": "function"
    },
    {
      "inputs": [
        {
          "internalType": "uint256",
          "name": "_amount",
          "type": "uint256"
        },
        {
          "internalType": "address",
          "name": "_paymentTokenAddress",
          "type": "address"
        },
        {
          "internalType": "uint256",
          "name": "_offlinePrice",
          "type": "uint256"
        },
        {
          "internalType": "bytes",
          "name": "_signature",
          "type": "bytes"
        }
      ],
      "name": "mintWithDynamic",
      "outputs": [],
      "stateMutability": "nonpayable",
      "type": "function"
    },
    {
      "inputs": [],
      "name": "owner",
      "outputs": [
        {
          "internalType": "address",
          "name": "",
          "type": "address"
        }
      ],
      "stateMutability": "view",
      "type": "function"
    },
    {
      "inputs": [],
      "name": "renounceOwnership",
      "outputs": [],
      "stateMutability": "nonpayable",
      "type": "function"
    },
    {
      "inputs": [
        {
          "internalType": "uint8",
          "name": "_dynamicExchangeAcceptedDeviationPercentage",
          "type": "uint8"
        }
      ],
      "name": "setDynamicExchangeAcceptedDeviationPercentage",
      "outputs": [],
      "stateMutability": "nonpayable",
      "type": "function"
    },
    {
      "inputs": [
        {
          "internalType": "address[]",
          "name": "_dynamicExchangeTokens",
          "type": "address[]"
        },
        {
          "internalType": "bytes32[]",
          "name": "_dynamicExchangePools",
          "type": "bytes32[]"
        }
      ],
      "name": "setDynamicExchangeTokens",
      "outputs": [],
      "stateMutability": "nonpayable",
      "type": "function"
    },
    {
      "inputs": [
        {
          "internalType": "address[]",
          "name": "_fixedExchangeTokens",
          "type": "address[]"
        },
        {
          "internalType": "uint256[]",
          "name": "_fixedExchangeRates",
          "type": "uint256[]"
        }
      ],
      "name": "setFixedExchangeRates",
      "outputs": [],
      "stateMutability": "nonpayable",
      "type": "function"
    },
    {
      "inputs": [
        {
          "internalType": "uint256",
          "name": "_maxMintAmount",
          "type": "uint256"
        }
      ],
      "name": "setMaxMintAmount",
      "outputs": [],
      "stateMutability": "nonpayable",
      "type": "function"
    },
    {
      "inputs": [
        {
          "internalType": "address",
          "name": "_trustedSigner",
          "type": "address"
        }
      ],
      "name": "setTrustedSigner",
      "outputs": [],
      "stateMutability": "nonpayable",
      "type": "function"
    },
    {
      "inputs": [
        {
          "internalType": "address",
          "name": "newOwner",
          "type": "address"
        }
      ],
      "name": "transferOwnership",
      "outputs": [],
      "stateMutability": "nonpayable",
      "type": "function"
    },
    {
      "inputs": [],
      "name": "trustedSigner",
      "outputs": [
        {
          "internalType": "address",
          "name": "",
          "type": "address"
        }
      ],
      "stateMutability": "view",
      "type": "function"
    },
    {
      "inputs": [
        {
          "internalType": "address",
          "name": "_erc20",
          "type": "address"
        }
      ],
      "name": "withdraw",
      "outputs": [],
      "stateMutability": "nonpayable",
      "type": "function"
    }
  ],
  "transactionHash": "0x5c9776fd313795564856c85c942b4afa51cfe30410d244cd1c970cb4995b0a60",
  "args": [
    "0xD7A3890eF91ce568eFA1A52ff0B83123caD70514",
    "0x5f48A76306f3f9efbF4B1AdF3a73d0Af1ebfA074",
    "3000",
    [
      "0x2791Bca1f2de4661ED88A30C99A7a9449Aa84174",
      "0xc2132D05D31c914a87C6611C10748AEb04B58e8F"
    ],
    [
      4,
      4
    ],
    [
      "0x72928d5436Ff65e57F72D5566dCd3BaEDC649A88",
      "0x9a71012b13ca4d3d0cdc72a177df3ef03b0e76a3"
    ],
    [
      "0xb53f4e2f1e7a1b8b9d09d2f2739ac6753f5ba5cb000200000000000000000137",
      "0x3d468ab2329f296e1b9d8476bb54dd77d8c2320f000200000000000000000426"
    ]
  ],
  "numDeployments": 1,
  "solcInputHash": "78fdeb733a3f8e252938211ea6abf706",
  "bytecode": "0x6101806040527372928d5436ff65e57f72d5566dcd3baedc649a8873ffffffffffffffffffffffffffffffffffffffff1660809073ffffffffffffffffffffffffffffffffffffffff16815250732791bca1f2de4661ed88a30c99a7a9449aa8417473ffffffffffffffffffffffffffffffffffffffff1660a09073ffffffffffffffffffffffffffffffffffffffff16815250737ceb23fd6bc0add59e62ac25578270cff1b9f61973ffffffffffffffffffffffffffffffffffffffff1660c09073ffffffffffffffffffffffffffffffffffffffff168152507f10f21c9bd8128a29aa785ab2de0d044dcdd7943600020000000000000000005960001b60e0908152507fb53f4e2f1e7a1b8b9d09d2f2739ac6753f5ba5cb00020000000000000000013760001b6101009081525073e39b5e3b6d74016b2f6a9673d7d7493b6df549d573ffffffffffffffffffffffffffffffffffffffff166101209073ffffffffffffffffffffffffffffffffffffffff1681525073ba12222222228d8ba445958a75a0704d566bf2c873ffffffffffffffffffffffffffffffffffffffff166101409073ffffffffffffffffffffffffffffffffffffffff168152506724150e398004000061016090815250348015620001dc57600080fd5b506040516200536d3803806200536d833981810160405281019062000202919062000e68565b86600073ffffffffffffffffffffffffffffffffffffffff168173ffffffffffffffffffffffffffffffffffffffff1603620002785760006040517f1e4fbdf70000000000000000000000000000000000000000000000000000000081526004016200026f919062000fa8565b60405180910390fd5b62000289816200037160201b60201c565b506001808190555085600360006101000a81548173ffffffffffffffffffffffffffffffffffffffff021916908373ffffffffffffffffffffffffffffffffffffffff160217905550620002e3856200043560201b60201c565b620002f584846200048a60201b60201c565b6200030782826200068060201b60201c565b600a600860006101000a81548160ff021916908360ff16021790555086600260006101000a81548173ffffffffffffffffffffffffffffffffffffffff021916908373ffffffffffffffffffffffffffffffffffffffff160217905550505050505050506200105e565b60008060009054906101000a900473ffffffffffffffffffffffffffffffffffffffff169050816000806101000a81548173ffffffffffffffffffffffffffffffffffffffff021916908373ffffffffffffffffffffffffffffffffffffffff1602179055508173ffffffffffffffffffffffffffffffffffffffff168173ffffffffffffffffffffffffffffffffffffffff167f8be0079c531659141344cd1fd0a4f28419497f9722a3daafe3b4186f6b6457e060405160405180910390a35050565b62000445620008d760201b60201c565b6000810362000480576040517f2aa244fe00000000000000000000000000000000000000000000000000000000815260040160405180910390fd5b8060048190555050565b6200049a620008d760201b60201c565b8051825114620004d6576040517ff950c6c400000000000000000000000000000000000000000000000000000000815260040160405180910390fd5b8160079080519060200190620004ee929190620009aa565b5060005b82518160ff1610156200067b57600073ffffffffffffffffffffffffffffffffffffffff16838260ff168151811062000530576200052f62000fc5565b5b602002602001015173ffffffffffffffffffffffffffffffffffffffff160362000586576040517faa15487e00000000000000000000000000000000000000000000000000000000815260040160405180910390fd5b6000828260ff1681518110620005a157620005a062000fc5565b5b602002602001015103620005e1576040517f2aa244fe00000000000000000000000000000000000000000000000000000000815260040160405180910390fd5b818160ff1681518110620005fa57620005f962000fc5565b5b602002602001015160056000858460ff16815181106200061f576200061e62000fc5565b5b602002602001015173ffffffffffffffffffffffffffffffffffffffff1673ffffffffffffffffffffffffffffffffffffffff168152602001908152602001600020819055508080620006729062001030565b915050620004f2565b505050565b62000690620008d760201b60201c565b6000825103620006cc576040517ff950c6c400000000000000000000000000000000000000000000000000000000815260040160405180910390fd5b600081510362000708576040517ff950c6c400000000000000000000000000000000000000000000000000000000815260040160405180910390fd5b805182511462000744576040517ff950c6c400000000000000000000000000000000000000000000000000000000815260040160405180910390fd5b60005b82518160ff161015620008d257600073ffffffffffffffffffffffffffffffffffffffff16838260ff168151811062000785576200078462000fc5565b5b602002602001015173ffffffffffffffffffffffffffffffffffffffff1603620007db576040517faa15487e00000000000000000000000000000000000000000000000000000000815260040160405180910390fd5b6000801b828260ff1681518110620007f857620007f762000fc5565b5b60200260200101510362000838576040517f2aa244fe00000000000000000000000000000000000000000000000000000000815260040160405180910390fd5b818160ff168151811062000851576200085062000fc5565b5b602002602001015160066000858460ff168151811062000876576200087562000fc5565b5b602002602001015173ffffffffffffffffffffffffffffffffffffffff1673ffffffffffffffffffffffffffffffffffffffff168152602001908152602001600020819055508080620008c99062001030565b91505062000747565b505050565b620008e76200097960201b60201c565b73ffffffffffffffffffffffffffffffffffffffff166200090d6200098160201b60201c565b73ffffffffffffffffffffffffffffffffffffffff16146200097757620009396200097960201b60201c565b6040517f118cdaa70000000000000000000000000000000000000000000000000000000081526004016200096e919062000fa8565b60405180910390fd5b565b600033905090565b60008060009054906101000a900473ffffffffffffffffffffffffffffffffffffffff16905090565b82805482825590600052602060002090810192821562000a26579160200282015b8281111562000a255782518260006101000a81548173ffffffffffffffffffffffffffffffffffffffff021916908373ffffffffffffffffffffffffffffffffffffffff16021790555091602001919060010190620009cb565b5b50905062000a35919062000a39565b5090565b5b8082111562000a5457600081600090555060010162000a3a565b5090565b6000604051905090565b600080fd5b600080fd5b600073ffffffffffffffffffffffffffffffffffffffff82169050919050565b600062000a998262000a6c565b9050919050565b62000aab8162000a8c565b811462000ab757600080fd5b50565b60008151905062000acb8162000aa0565b92915050565b6000819050919050565b62000ae68162000ad1565b811462000af257600080fd5b50565b60008151905062000b068162000adb565b92915050565b600080fd5b6000601f19601f8301169050919050565b7f4e487b7100000000000000000000000000000000000000000000000000000000600052604160045260246000fd5b62000b5c8262000b11565b810181811067ffffffffffffffff8211171562000b7e5762000b7d62000b22565b5b80604052505050565b600062000b9362000a58565b905062000ba1828262000b51565b919050565b600067ffffffffffffffff82111562000bc45762000bc362000b22565b5b602082029050602081019050919050565b600080fd5b600062000bf162000beb8462000ba6565b62000b87565b9050808382526020820190506020840283018581111562000c175762000c1662000bd5565b5b835b8181101562000c44578062000c2f888262000aba565b84526020840193505060208101905062000c19565b5050509392505050565b600082601f83011262000c665762000c6562000b0c565b5b815162000c7884826020860162000bda565b91505092915050565b600067ffffffffffffffff82111562000c9f5762000c9e62000b22565b5b602082029050602081019050919050565b600062000cc762000cc18462000c81565b62000b87565b9050808382526020820190506020840283018581111562000ced5762000cec62000bd5565b5b835b8181101562000d1a578062000d05888262000af5565b84526020840193505060208101905062000cef565b5050509392505050565b600082601f83011262000d3c5762000d3b62000b0c565b5b815162000d4e84826020860162000cb0565b91505092915050565b600067ffffffffffffffff82111562000d755762000d7462000b22565b5b602082029050602081019050919050565b6000819050919050565b62000d9b8162000d86565b811462000da757600080fd5b50565b60008151905062000dbb8162000d90565b92915050565b600062000dd862000dd28462000d57565b62000b87565b9050808382526020820190506020840283018581111562000dfe5762000dfd62000bd5565b5b835b8181101562000e2b578062000e16888262000daa565b84526020840193505060208101905062000e00565b5050509392505050565b600082601f83011262000e4d5762000e4c62000b0c565b5b815162000e5f84826020860162000dc1565b91505092915050565b600080600080600080600060e0888a03121562000e8a5762000e8962000a62565b5b600062000e9a8a828b0162000aba565b975050602062000ead8a828b0162000aba565b965050604062000ec08a828b0162000af5565b955050606088015167ffffffffffffffff81111562000ee45762000ee362000a67565b5b62000ef28a828b0162000c4e565b945050608088015167ffffffffffffffff81111562000f165762000f1562000a67565b5b62000f248a828b0162000d24565b93505060a088015167ffffffffffffffff81111562000f485762000f4762000a67565b5b62000f568a828b0162000c4e565b92505060c088015167ffffffffffffffff81111562000f7a5762000f7962000a67565b5b62000f888a828b0162000e35565b91505092959891949750929550565b62000fa28162000a8c565b82525050565b600060208201905062000fbf600083018462000f97565b92915050565b7f4e487b7100000000000000000000000000000000000000000000000000000000600052603260045260246000fd5b7f4e487b7100000000000000000000000000000000000000000000000000000000600052601160045260246000fd5b600060ff82169050919050565b60006200103d8262001023565b915060ff820362001053576200105262000ff4565b5b600182019050919050565b60805160a05160c05160e0516101005161012051610140516101605161427f620010ee600039600061071a0152600081816123b801526128c101526000611ca201526000612109015260008181610679015261215701526000818161063d0152818161069a015261269b0152600081816106bb015261213601526000818161208501526120e8015261427f6000f3fe608060405234801561001057600080fd5b506004361061012c5760003560e01c806378884dfb116100ad578063c61a20f311610071578063c61a20f314610307578063cd5edd3414610323578063f2fde38b14610353578063f74d54801461036f578063fcd3533c1461038d5761012c565b806378884dfb14610265578063813e47bf146102815780638da5cb5b146102b157806394bf804d146102cf578063b6895b5f146102eb5761012c565b80633db211e8116100f45780633db211e8146101e95780634ec7fb811461020557806351cff8d91461022357806356a1c7011461023f578063715018a61461025b5761012c565b8063088a4ed0146101315780630d22282b1461014d578063239c70ae1461016b57806328297b3a146101895780632b57cfbb146101b9575b600080fd5b61014b60048036038101906101469190612d67565b6103a9565b005b6101556103f5565b6040516101629190612db0565b60405180910390f35b610173610408565b6040516101809190612dda565b60405180910390f35b6101a3600480360381019061019e9190612d67565b61040e565b6040516101b09190612e36565b60405180910390f35b6101d360048036038101906101ce9190612e7d565b61044d565b6040516101e09190612dda565b60405180910390f35b61020360048036038101906101fe91906130d9565b610764565b005b61020d61093d565b60405161021a9190612e36565b60405180910390f35b61023d60048036038101906102389190613151565b610963565b005b61025960048036038101906102549190613151565b610a70565b005b610263610b22565b005b61027f600480360381019061027a91906131aa565b610b36565b005b61029b60048036038101906102969190613151565b610b99565b6040516102a89190612dda565b60405180910390f35b6102b9610bb1565b6040516102c69190612e36565b60405180910390f35b6102e960048036038101906102e49190612e7d565b610bda565b005b6103056004803603810190610300919061328c565b610f7e565b005b610321600480360381019061031c9190613408565b611360565b005b61033d60048036038101906103389190613151565b61159a565b60405161034a919061348f565b60405180910390f35b61036d60048036038101906103689190613151565b6115b2565b005b610377611638565b6040516103849190612e36565b60405180910390f35b6103a760048036038101906103a29190612e7d565b61165e565b005b6103b16119c2565b600081036103eb576040517f2aa244fe00000000000000000000000000000000000000000000000000000000815260040160405180910390fd5b8060048190555050565b600860009054906101000a900460ff1681565b60045481565b6007818154811061041e57600080fd5b906000526020600020016000915054906101000a900473ffffffffffffffffffffffffffffffffffffffff1681565b6000808303610488576040517f2aa244fe00000000000000000000000000000000000000000000000000000000815260040160405180910390fd5b600073ffffffffffffffffffffffffffffffffffffffff168273ffffffffffffffffffffffffffffffffffffffff16036104ee576040517faa15487e00000000000000000000000000000000000000000000000000000000815260040160405180910390fd5b6000801b600660008473ffffffffffffffffffffffffffffffffffffffff1673ffffffffffffffffffffffffffffffffffffffff1681526020019081526020016000205403610569576040517f2aa244fe00000000000000000000000000000000000000000000000000000000815260040160405180910390fd5b60008273ffffffffffffffffffffffffffffffffffffffff1663313ce5676040518163ffffffff1660e01b8152600401602060405180830381865afa1580156105b6573d6000803e3d6000fd5b505050506040513d601f19601f820116820180604052508101906105da91906134bf565b9050600061066182600a6105ee919061364e565b60016105fa9190613699565b600660008773ffffffffffffffffffffffffffffffffffffffff1673ffffffffffffffffffffffffffffffffffffffff16815260200190815260200160002054867f0000000000000000000000000000000000000000000000000000000000000000611a49565b9050600064e8d4a510006106df670de0b6b3a76400007f00000000000000000000000000000000000000000000000000000000000000007f00000000000000000000000000000000000000000000000000000000000000007f0000000000000000000000000000000000000000000000000000000000000000611a49565b6106e99190613699565b90506000670de0b6b3a764000082846107029190613699565b61070c919061370a565b9050670de0b6b3a7640000817f0000000000000000000000000000000000000000000000000000000000000000896107449190613699565b61074e919061370a565b6107589190613699565b94505050505092915050565b61076c6119c2565b80518251146107a7576040517ff950c6c400000000000000000000000000000000000000000000000000000000815260040160405180910390fd5b81600790805190602001906107bd929190612c44565b5060005b82518160ff16101561093857600073ffffffffffffffffffffffffffffffffffffffff16838260ff16815181106107fb576107fa61373b565b5b602002602001015173ffffffffffffffffffffffffffffffffffffffff1603610850576040517faa15487e00000000000000000000000000000000000000000000000000000000815260040160405180910390fd5b6000828260ff16815181106108685761086761373b565b5b6020026020010151036108a7576040517f2aa244fe00000000000000000000000000000000000000000000000000000000815260040160405180910390fd5b818160ff16815181106108bd576108bc61373b565b5b602002602001015160056000858460ff16815181106108df576108de61373b565b5b602002602001015173ffffffffffffffffffffffffffffffffffffffff1673ffffffffffffffffffffffffffffffffffffffff1681526020019081526020016000208190555080806109309061376a565b9150506107c1565b505050565b600360009054906101000a900473ffffffffffffffffffffffffffffffffffffffff1681565b61096b6119c2565b610973611d4a565b600081905060008173ffffffffffffffffffffffffffffffffffffffff166370a08231306040518263ffffffff1660e01b81526004016109b39190612e36565b602060405180830381865afa1580156109d0573d6000803e3d6000fd5b505050506040513d601f19601f820116820180604052508101906109f491906137a8565b9050610a28610a01610bb1565b828473ffffffffffffffffffffffffffffffffffffffff16611d909092919063ffffffff16565b7f37e8063b72a944a76de602f32b82fd8c2a1c6f99564c727ffaf913c7762cd420818442604051610a5b939291906137d5565b60405180910390a15050610a6d611e0f565b50565b610a786119c2565b600073ffffffffffffffffffffffffffffffffffffffff168173ffffffffffffffffffffffffffffffffffffffff1603610ade576040517faa15487e00000000000000000000000000000000000000000000000000000000815260040160405180910390fd5b80600260006101000a81548173ffffffffffffffffffffffffffffffffffffffff021916908373ffffffffffffffffffffffffffffffffffffffff16021790555050565b610b2a6119c2565b610b346000611e18565b565b610b3e6119c2565b60008160ff1603610b7b576040517f2aa244fe00000000000000000000000000000000000000000000000000000000815260040160405180910390fd5b80600860006101000a81548160ff021916908360ff16021790555050565b60056020528060005260406000206000915090505481565b60008060009054906101000a900473ffffffffffffffffffffffffffffffffffffffff16905090565b610be2611d4a565b60008203610c1c576040517f2aa244fe00000000000000000000000000000000000000000000000000000000815260040160405180910390fd5b600454821115610c58576040517fcaeeffdb00000000000000000000000000000000000000000000000000000000815260040160405180910390fd5b600073ffffffffffffffffffffffffffffffffffffffff168173ffffffffffffffffffffffffffffffffffffffff1603610cbe576040517faa15487e00000000000000000000000000000000000000000000000000000000815260040160405180910390fd5b6000600560008373ffffffffffffffffffffffffffffffffffffffff1673ffffffffffffffffffffffffffffffffffffffff1681526020019081526020016000205403610d37576040517f2aa244fe00000000000000000000000000000000000000000000000000000000815260040160405180910390fd5b6000610d41611edc565b9050600083600560008573ffffffffffffffffffffffffffffffffffffffff1673ffffffffffffffffffffffffffffffffffffffff16815260200190815260200160002054610d909190613699565b90506000839050818173ffffffffffffffffffffffffffffffffffffffff1663dd62ed3e85306040518363ffffffff1660e01b8152600401610dd392919061380c565b602060405180830381865afa158015610df0573d6000803e3d6000fd5b505050506040513d601f19601f82011682018060405250810190610e1491906137a8565b1015610e4c576040517f949ce24100000000000000000000000000000000000000000000000000000000815260040160405180910390fd5b610e798330848473ffffffffffffffffffffffffffffffffffffffff16611ee4909392919063ffffffff16565b600360009054906101000a900473ffffffffffffffffffffffffffffffffffffffff1673ffffffffffffffffffffffffffffffffffffffff166340c10f1984876040518363ffffffff1660e01b8152600401610ed6929190613835565b600060405180830381600087803b158015610ef057600080fd5b505af1158015610f04573d6000803e3d6000fd5b505050508373ffffffffffffffffffffffffffffffffffffffff168373ffffffffffffffffffffffffffffffffffffffff167ff3f9b81b1aa7af42b83e33d01a22621ecf67d5ebeb4587a4d63e3737276076818785604051610f6792919061385e565b60405180910390a3505050610f7a611e0f565b5050565b610f86611d4a565b60008403610fc0576040517f2aa244fe00000000000000000000000000000000000000000000000000000000815260040160405180910390fd5b600454841115610ffc576040517fcaeeffdb00000000000000000000000000000000000000000000000000000000815260040160405180910390fd5b600073ffffffffffffffffffffffffffffffffffffffff168373ffffffffffffffffffffffffffffffffffffffff1603611062576040517faa15487e00000000000000000000000000000000000000000000000000000000815260040160405180910390fd5b6000801b600660008573ffffffffffffffffffffffffffffffffffffffff1673ffffffffffffffffffffffffffffffffffffffff16815260200190815260200160002054036110dd576040517f2aa244fe00000000000000000000000000000000000000000000000000000000815260040160405180910390fd5b60006110e7611edc565b90506000836040516020016110fc91906138a8565b604051602081830303815290604052805190602001209050600061111f82611f66565b90506000611150600260009054906101000a900473ffffffffffffffffffffffffffffffffffffffff168387611f9c565b905080611189576040517f8baa579f00000000000000000000000000000000000000000000000000000000815260040160405180910390fd5b6000611195898961044d565b905060006064600860009054906101000a900460ff1660ff16836111b99190613699565b6111c3919061370a565b90508781836111d291906138c3565b10806111e857508781836111e691906138f7565b115b1561121f576040517f76d2539a00000000000000000000000000000000000000000000000000000000815260040160405180910390fd5b61124c8630848c73ffffffffffffffffffffffffffffffffffffffff16611ee4909392919063ffffffff16565b600360009054906101000a900473ffffffffffffffffffffffffffffffffffffffff1673ffffffffffffffffffffffffffffffffffffffff166340c10f19878c6040518363ffffffff1660e01b81526004016112a9929190613835565b600060405180830381600087803b1580156112c357600080fd5b505af11580156112d7573d6000803e3d6000fd5b505050506112e5828a61202c565b8873ffffffffffffffffffffffffffffffffffffffff168673ffffffffffffffffffffffffffffffffffffffff167ff3f9b81b1aa7af42b83e33d01a22621ecf67d5ebeb4587a4d63e3737276076818c8560405161134492919061385e565b60405180910390a350505050505061135a611e0f565b50505050565b6113686119c2565b60008251036113a3576040517ff950c6c400000000000000000000000000000000000000000000000000000000815260040160405180910390fd5b60008151036113de576040517ff950c6c400000000000000000000000000000000000000000000000000000000815260040160405180910390fd5b8051825114611419576040517ff950c6c400000000000000000000000000000000000000000000000000000000815260040160405180910390fd5b60005b82518160ff16101561159557600073ffffffffffffffffffffffffffffffffffffffff16838260ff16815181106114565761145561373b565b5b602002602001015173ffffffffffffffffffffffffffffffffffffffff16036114ab576040517faa15487e00000000000000000000000000000000000000000000000000000000815260040160405180910390fd5b6000801b828260ff16815181106114c5576114c461373b565b5b602002602001015103611504576040517f2aa244fe00000000000000000000000000000000000000000000000000000000815260040160405180910390fd5b818160ff168151811061151a5761151961373b565b5b602002602001015160066000858460ff168151811061153c5761153b61373b565b5b602002602001015173ffffffffffffffffffffffffffffffffffffffff1673ffffffffffffffffffffffffffffffffffffffff16815260200190815260200160002081905550808061158d9061376a565b91505061141c565b505050565b60066020528060005260406000206000915090505481565b6115ba6119c2565b600073ffffffffffffffffffffffffffffffffffffffff168173ffffffffffffffffffffffffffffffffffffffff160361162c5760006040517f1e4fbdf70000000000000000000000000000000000000000000000000000000081526004016116239190612e36565b60405180910390fd5b61163581611e18565b50565b600260009054906101000a900473ffffffffffffffffffffffffffffffffffffffff1681565b611666611d4a565b600082036116a0576040517f2aa244fe00000000000000000000000000000000000000000000000000000000815260040160405180910390fd5b600073ffffffffffffffffffffffffffffffffffffffff168173ffffffffffffffffffffffffffffffffffffffff1603611706576040517faa15487e00000000000000000000000000000000000000000000000000000000815260040160405180910390fd5b6000600560008373ffffffffffffffffffffffffffffffffffffffff1673ffffffffffffffffffffffffffffffffffffffff168152602001908152602001600020540361177f576040517f2aa244fe00000000000000000000000000000000000000000000000000000000815260040160405180910390fd5b6000611789611edc565b9050600083600560008573ffffffffffffffffffffffffffffffffffffffff1673ffffffffffffffffffffffffffffffffffffffff168152602001908152602001600020546117d89190613699565b90506000839050818173ffffffffffffffffffffffffffffffffffffffff166370a08231306040518263ffffffff1660e01b81526004016118199190612e36565b602060405180830381865afa158015611836573d6000803e3d6000fd5b505050506040513d601f19601f8201168201806040525081019061185a91906137a8565b1015611892576040517f81b5ad6800000000000000000000000000000000000000000000000000000000815260040160405180910390fd5b600360009054906101000a900473ffffffffffffffffffffffffffffffffffffffff1673ffffffffffffffffffffffffffffffffffffffff16639dc29fac84876040518363ffffffff1660e01b81526004016118ef929190613835565b600060405180830381600087803b15801561190957600080fd5b505af115801561191d573d6000803e3d6000fd5b5050505061194c83838373ffffffffffffffffffffffffffffffffffffffff16611d909092919063ffffffff16565b8373ffffffffffffffffffffffffffffffffffffffff168373ffffffffffffffffffffffffffffffffffffffff167f9eaa2feeb3b37bf70a72e15de2e6e61b6f2060b2fb40839961c26bbc238dd20287856040516119ab92919061385e565b60405180910390a35050506119be611e0f565b5050565b6119ca611edc565b73ffffffffffffffffffffffffffffffffffffffff166119e8610bb1565b73ffffffffffffffffffffffffffffffffffffffff1614611a4757611a0b611edc565b6040517f118cdaa7000000000000000000000000000000000000000000000000000000008152600401611a3e9190612e36565b60405180910390fd5b565b6000808503611a84576040517f2aa244fe00000000000000000000000000000000000000000000000000000000815260040160405180910390fd5b6000801b8403611ac0576040517f2aa244fe00000000000000000000000000000000000000000000000000000000815260040160405180910390fd5b600073ffffffffffffffffffffffffffffffffffffffff168373ffffffffffffffffffffffffffffffffffffffff1603611b26576040517faa15487e00000000000000000000000000000000000000000000000000000000815260040160405180910390fd5b600073ffffffffffffffffffffffffffffffffffffffff168273ffffffffffffffffffffffffffffffffffffffff1603611b8c576040517faa15487e00000000000000000000000000000000000000000000000000000000815260040160405180910390fd5b60006040518060c0016040528086815260200160006001811115611bb357611bb261392b565b5b81526020018573ffffffffffffffffffffffffffffffffffffffff1681526020018473ffffffffffffffffffffffffffffffffffffffff168152602001878152602001600067ffffffffffffffff811115611c1157611c10612ed3565b5b6040519080825280601f01601f191660200182016040528015611c435781602001600182028036833780820191505090505b508152509050600060405180608001604052803073ffffffffffffffffffffffffffffffffffffffff1681526020016000151581526020013073ffffffffffffffffffffffffffffffffffffffff1681526020016000151581525090507f000000000000000000000000000000000000000000000000000000000000000073ffffffffffffffffffffffffffffffffffffffff1663e969f6b383836040518363ffffffff1660e01b8152600401611cfb929190613bc7565b6020604051808303816000875af1158015611d1a573d6000803e3d6000fd5b505050506040513d601f19601f82011682018060405250810190611d3e91906137a8565b92505050949350505050565b600260015403611d86576040517f3ee5aeb500000000000000000000000000000000000000000000000000000000815260040160405180910390fd5b6002600181905550565b611e0a838473ffffffffffffffffffffffffffffffffffffffff1663a9059cbb8585604051602401611dc3929190613835565b604051602081830303815290604052915060e01b6020820180517bffffffffffffffffffffffffffffffffffffffffffffffffffffffff8381831617835250505050612181565b505050565b60018081905550565b60008060009054906101000a900473ffffffffffffffffffffffffffffffffffffffff169050816000806101000a81548173ffffffffffffffffffffffffffffffffffffffff021916908373ffffffffffffffffffffffffffffffffffffffff1602179055508173ffffffffffffffffffffffffffffffffffffffff168173ffffffffffffffffffffffffffffffffffffffff167f8be0079c531659141344cd1fd0a4f28419497f9722a3daafe3b4186f6b6457e060405160405180910390a35050565b600033905090565b611f60848573ffffffffffffffffffffffffffffffffffffffff166323b872dd868686604051602401611f1993929190613bf7565b604051602081830303815290604052915060e01b6020820180517bffffffffffffffffffffffffffffffffffffffffffffffffffffffff8381831617835250505050612181565b50505050565b60007f19457468657265756d205369676e6564204d6573736167653a0a33320000000060005281601c52603c6000209050919050565b6000806000611fab8585612218565b509150915060006003811115611fc457611fc361392b565b5b816003811115611fd757611fd661392b565b5b14801561200f57508573ffffffffffffffffffffffffffffffffffffffff168273ffffffffffffffffffffffffffffffffffffffff16145b806120215750612020868686612274565b5b925050509392505050565b60008203612066576040517f2aa244fe00000000000000000000000000000000000000000000000000000000815260040160405180910390fd5b60006064604d846120779190613699565b612081919061370a565b90507f000000000000000000000000000000000000000000000000000000000000000073ffffffffffffffffffffffffffffffffffffffff168273ffffffffffffffffffffffffffffffffffffffff161461212f5761212d81846120e591906138f7565b837f00000000000000000000000000000000000000000000000000000000000000007f0000000000000000000000000000000000000000000000000000000000000000612398565b505b61217b81837f00000000000000000000000000000000000000000000000000000000000000007f0000000000000000000000000000000000000000000000000000000000000000612398565b50505050565b60006121ac828473ffffffffffffffffffffffffffffffffffffffff1661299990919063ffffffff16565b905060008151141580156121d15750808060200190518101906121cf9190613c5a565b155b1561221357826040517f5274afe700000000000000000000000000000000000000000000000000000000815260040161220a9190612e36565b60405180910390fd5b505050565b6000806000604184510361225d5760008060006020870151925060408701519150606087015160001a905061224f888285856129af565b95509550955050505061226d565b60006002855160001b9250925092505b9250925092565b60008060008573ffffffffffffffffffffffffffffffffffffffff1685856040516024016122a3929190613cd1565b604051602081830303815290604052631626ba7e60e01b6020820180517bffffffffffffffffffffffffffffffffffffffffffffffffffffffff83818316178352505050506040516122f59190613d3d565b600060405180830381855afa9150503d8060008114612330576040519150601f19603f3d011682016040523d82523d6000602084013e612335565b606091505b509150915081801561234957506020815110155b801561238d5750631626ba7e60e01b7bffffffffffffffffffffffffffffffffffffffffffffffffffffffff19168180602001905181019061238b9190613d69565b145b925050509392505050565b60608373ffffffffffffffffffffffffffffffffffffffff1663095ea7b37f0000000000000000000000000000000000000000000000000000000000000000876040518363ffffffff1660e01b81526004016123f5929190613835565b6020604051808303816000875af1158015612414573d6000803e3d6000fd5b505050506040513d601f19601f820116820180604052508101906124389190613c5a565b506000600267ffffffffffffffff81111561245657612455612ed3565b5b60405190808252806020026020018201604052801561248f57816020015b61247c612cce565b8152602001906001900390816124745790505b5090506040518060a00160405280600660008873ffffffffffffffffffffffffffffffffffffffff1673ffffffffffffffffffffffffffffffffffffffff1681526020019081526020016000205481526020016000815260200160018152602001878152602001600067ffffffffffffffff81111561251157612510612ed3565b5b6040519080825280601f01601f1916602001820160405280156125435781602001600182028036833780820191505090505b508152508160008151811061255b5761255a61373b565b5b60200260200101819052506040518060a00160405280848152602001600181526020016002815260200160008152602001600067ffffffffffffffff8111156125a7576125a6612ed3565b5b6040519080825280601f01601f1916602001820160405280156125d95781602001600182028036833780820191505090505b50815250816001815181106125f1576125f061373b565b5b60200260200101819052506000600367ffffffffffffffff81111561261957612618612ed3565b5b6040519080825280602002602001820160405280156126475781602001602082028036833780820191505090505b509050858160008151811061265f5761265e61373b565b5b602002602001019073ffffffffffffffffffffffffffffffffffffffff16908173ffffffffffffffffffffffffffffffffffffffff16815250507f0000000000000000000000000000000000000000000000000000000000000000816001815181106126ce576126cd61373b565b5b602002602001019073ffffffffffffffffffffffffffffffffffffffff16908173ffffffffffffffffffffffffffffffffffffffff1681525050848160028151811061271d5761271c61373b565b5b602002602001019073ffffffffffffffffffffffffffffffffffffffff16908173ffffffffffffffffffffffffffffffffffffffff1681525050600060405180608001604052803073ffffffffffffffffffffffffffffffffffffffff1681526020016000151581526020013073ffffffffffffffffffffffffffffffffffffffff1681526020016000151581525090506000600367ffffffffffffffff8111156127cb576127ca612ed3565b5b6040519080825280602002602001820160405280156127f95781602001602082028036833780820191505090505b5090507f7fffffffffffffffffffffffffffffffffffffffffffffffffffffffffffffff816000815181106128315761283061373b565b5b6020026020010181815250507f7fffffffffffffffffffffffffffffffffffffffffffffffffffffffffffffff816001815181106128725761287161373b565b5b6020026020010181815250507f7fffffffffffffffffffffffffffffffffffffffffffffffffffffffffffffff816002815181106128b3576128b261373b565b5b6020026020010181815250507f000000000000000000000000000000000000000000000000000000000000000073ffffffffffffffffffffffffffffffffffffffff1663945bcec96000868686867fffffffffffffffffffffffffffffffffffffffffffffffffffffffffffffffff6040518763ffffffff1660e01b815260040161294396959493929190614054565b6000604051808303816000875af1158015612962573d6000803e3d6000fd5b505050506040513d6000823e3d601f19601f8201168201806040525081019061298b91906141bb565b945050505050949350505050565b60606129a783836000612aa3565b905092915050565b60008060007f7fffffffffffffffffffffffffffffff5d576e7357a4501ddfe92f46681b20a08460001c11156129ef576000600385925092509250612a99565b600060018888888860405160008152602001604052604051612a149493929190614204565b6020604051602081039080840390855afa158015612a36573d6000803e3d6000fd5b505050602060405103519050600073ffffffffffffffffffffffffffffffffffffffff168173ffffffffffffffffffffffffffffffffffffffff1603612a8a57600060016000801b93509350935050612a99565b8060008060001b935093509350505b9450945094915050565b606081471015612aea57306040517fcd786059000000000000000000000000000000000000000000000000000000008152600401612ae19190612e36565b60405180910390fd5b6000808573ffffffffffffffffffffffffffffffffffffffff168486604051612b139190613d3d565b60006040518083038185875af1925050503d8060008114612b50576040519150601f19603f3d011682016040523d82523d6000602084013e612b55565b606091505b5091509150612b65868383612b70565b925050509392505050565b606082612b8557612b8082612bff565b612bf7565b60008251148015612bad575060008473ffffffffffffffffffffffffffffffffffffffff163b145b15612bef57836040517f9996b315000000000000000000000000000000000000000000000000000000008152600401612be69190612e36565b60405180910390fd5b819050612bf8565b5b9392505050565b600081511115612c125780518082602001fd5b6040517f1425ea4200000000000000000000000000000000000000000000000000000000815260040160405180910390fd5b828054828255906000526020600020908101928215612cbd579160200282015b82811115612cbc5782518260006101000a81548173ffffffffffffffffffffffffffffffffffffffff021916908373ffffffffffffffffffffffffffffffffffffffff16021790555091602001919060010190612c64565b5b509050612cca9190612d00565b5090565b6040518060a0016040528060008019168152602001600081526020016000815260200160008152602001606081525090565b5b80821115612d19576000816000905550600101612d01565b5090565b6000604051905090565b600080fd5b600080fd5b6000819050919050565b612d4481612d31565b8114612d4f57600080fd5b50565b600081359050612d6181612d3b565b92915050565b600060208284031215612d7d57612d7c612d27565b5b6000612d8b84828501612d52565b91505092915050565b600060ff82169050919050565b612daa81612d94565b82525050565b6000602082019050612dc56000830184612da1565b92915050565b612dd481612d31565b82525050565b6000602082019050612def6000830184612dcb565b92915050565b600073ffffffffffffffffffffffffffffffffffffffff82169050919050565b6000612e2082612df5565b9050919050565b612e3081612e15565b82525050565b6000602082019050612e4b6000830184612e27565b92915050565b612e5a81612e15565b8114612e6557600080fd5b50565b600081359050612e7781612e51565b92915050565b60008060408385031215612e9457612e93612d27565b5b6000612ea285828601612d52565b9250506020612eb385828601612e68565b9150509250929050565b600080fd5b6000601f19601f8301169050919050565b7f4e487b7100000000000000000000000000000000000000000000000000000000600052604160045260246000fd5b612f0b82612ec2565b810181811067ffffffffffffffff82111715612f2a57612f29612ed3565b5b80604052505050565b6000612f3d612d1d565b9050612f498282612f02565b919050565b600067ffffffffffffffff821115612f6957612f68612ed3565b5b602082029050602081019050919050565b600080fd5b6000612f92612f8d84612f4e565b612f33565b90508083825260208201905060208402830185811115612fb557612fb4612f7a565b5b835b81811015612fde5780612fca8882612e68565b845260208401935050602081019050612fb7565b5050509392505050565b600082601f830112612ffd57612ffc612ebd565b5b813561300d848260208601612f7f565b91505092915050565b600067ffffffffffffffff82111561303157613030612ed3565b5b602082029050602081019050919050565b600061305561305084613016565b612f33565b9050808382526020820190506020840283018581111561307857613077612f7a565b5b835b818110156130a1578061308d8882612d52565b84526020840193505060208101905061307a565b5050509392505050565b600082601f8301126130c0576130bf612ebd565b5b81356130d0848260208601613042565b91505092915050565b600080604083850312156130f0576130ef612d27565b5b600083013567ffffffffffffffff81111561310e5761310d612d2c565b5b61311a85828601612fe8565b925050602083013567ffffffffffffffff81111561313b5761313a612d2c565b5b613147858286016130ab565b9150509250929050565b60006020828403121561316757613166612d27565b5b600061317584828501612e68565b91505092915050565b61318781612d94565b811461319257600080fd5b50565b6000813590506131a48161317e565b92915050565b6000602082840312156131c0576131bf612d27565b5b60006131ce84828501613195565b91505092915050565b600080fd5b600067ffffffffffffffff8211156131f7576131f6612ed3565b5b61320082612ec2565b9050602081019050919050565b82818337600083830152505050565b600061322f61322a846131dc565b612f33565b90508281526020810184848401111561324b5761324a6131d7565b5b61325684828561320d565b509392505050565b600082601f83011261327357613272612ebd565b5b813561328384826020860161321c565b91505092915050565b600080600080608085870312156132a6576132a5612d27565b5b60006132b487828801612d52565b94505060206132c587828801612e68565b93505060406132d687828801612d52565b925050606085013567ffffffffffffffff8111156132f7576132f6612d2c565b5b6133038782880161325e565b91505092959194509250565b600067ffffffffffffffff82111561332a57613329612ed3565b5b602082029050602081019050919050565b6000819050919050565b61334e8161333b565b811461335957600080fd5b50565b60008135905061336b81613345565b92915050565b600061338461337f8461330f565b612f33565b905080838252602082019050602084028301858111156133a7576133a6612f7a565b5b835b818110156133d057806133bc888261335c565b8452602084019350506020810190506133a9565b5050509392505050565b600082601f8301126133ef576133ee612ebd565b5b81356133ff848260208601613371565b91505092915050565b6000806040838503121561341f5761341e612d27565b5b600083013567ffffffffffffffff81111561343d5761343c612d2c565b5b61344985828601612fe8565b925050602083013567ffffffffffffffff81111561346a57613469612d2c565b5b613476858286016133da565b9150509250929050565b6134898161333b565b82525050565b60006020820190506134a46000830184613480565b92915050565b6000815190506134b98161317e565b92915050565b6000602082840312156134d5576134d4612d27565b5b60006134e3848285016134aa565b91505092915050565b7f4e487b7100000000000000000000000000000000000000000000000000000000600052601160045260246000fd5b60008160011c9050919050565b6000808291508390505b60018511156135725780860481111561354e5761354d6134ec565b5b600185161561355d5780820291505b808102905061356b8561351b565b9450613532565b94509492505050565b60008261358b5760019050613647565b816135995760009050613647565b81600181146135af57600281146135b9576135e8565b6001915050613647565b60ff8411156135cb576135ca6134ec565b5b8360020a9150848211156135e2576135e16134ec565b5b50613647565b5060208310610133831016604e8410600b841016171561361d5782820a905083811115613618576136176134ec565b5b613647565b61362a8484846001613528565b92509050818404811115613641576136406134ec565b5b81810290505b9392505050565b600061365982612d31565b915061366483612d94565b92506136917fffffffffffffffffffffffffffffffffffffffffffffffffffffffffffffffff848461357b565b905092915050565b60006136a482612d31565b91506136af83612d31565b92508282026136bd81612d31565b915082820484148315176136d4576136d36134ec565b5b5092915050565b7f4e487b7100000000000000000000000000000000000000000000000000000000600052601260045260246000fd5b600061371582612d31565b915061372083612d31565b9250826137305761372f6136db565b5b828204905092915050565b7f4e487b7100000000000000000000000000000000000000000000000000000000600052603260045260246000fd5b600061377582612d94565b915060ff8203613788576137876134ec565b5b600182019050919050565b6000815190506137a281612d3b565b92915050565b6000602082840312156137be576137bd612d27565b5b60006137cc84828501613793565b91505092915050565b60006060820190506137ea6000830186612dcb565b6137f76020830185612e27565b6138046040830184612dcb565b949350505050565b60006040820190506138216000830185612e27565b61382e6020830184612e27565b9392505050565b600060408201905061384a6000830185612e27565b6138576020830184612dcb565b9392505050565b60006040820190506138736000830185612dcb565b6138806020830184612dcb565b9392505050565b6000819050919050565b6138a261389d82612d31565b613887565b82525050565b60006138b48284613891565b60208201915081905092915050565b60006138ce82612d31565b91506138d983612d31565b92508282019050808211156138f1576138f06134ec565b5b92915050565b600061390282612d31565b915061390d83612d31565b9250828203905081811115613925576139246134ec565b5b92915050565b7f4e487b7100000000000000000000000000000000000000000000000000000000600052602160045260246000fd5b6139638161333b565b82525050565b6002811061397a5761397961392b565b5b50565b600081905061398b82613969565b919050565b600061399b8261397d565b9050919050565b6139ab81613990565b82525050565b6000819050919050565b60006139d66139d16139cc84612df5565b6139b1565b612df5565b9050919050565b60006139e8826139bb565b9050919050565b60006139fa826139dd565b9050919050565b613a0a816139ef565b82525050565b613a1981612d31565b82525050565b600081519050919050565b600082825260208201905092915050565b60005b83811015613a59578082015181840152602081019050613a3e565b60008484015250505050565b6000613a7082613a1f565b613a7a8185613a2a565b9350613a8a818560208601613a3b565b613a9381612ec2565b840191505092915050565b600060c083016000830151613ab6600086018261395a565b506020830151613ac960208601826139a2565b506040830151613adc6040860182613a01565b506060830151613aef6060860182613a01565b506080830151613b026080860182613a10565b5060a083015184820360a0860152613b1a8282613a65565b9150508091505092915050565b613b3081612e15565b82525050565b60008115159050919050565b613b4b81613b36565b82525050565b6000613b5c82612df5565b9050919050565b613b6c81613b51565b82525050565b608082016000820151613b886000850182613b27565b506020820151613b9b6020850182613b42565b506040820151613bae6040850182613b63565b506060820151613bc16060850182613b42565b50505050565b600060a0820190508181036000830152613be18185613a9e565b9050613bf06020830184613b72565b9392505050565b6000606082019050613c0c6000830186612e27565b613c196020830185612e27565b613c266040830184612dcb565b949350505050565b613c3781613b36565b8114613c4257600080fd5b50565b600081519050613c5481613c2e565b92915050565b600060208284031215613c7057613c6f612d27565b5b6000613c7e84828501613c45565b91505092915050565b600082825260208201905092915050565b6000613ca382613a1f565b613cad8185613c87565b9350613cbd818560208601613a3b565b613cc681612ec2565b840191505092915050565b6000604082019050613ce66000830185613480565b8181036020830152613cf88184613c98565b90509392505050565b600081905092915050565b6000613d1782613a1f565b613d218185613d01565b9350613d31818560208601613a3b565b80840191505092915050565b6000613d498284613d0c565b915081905092915050565b600081519050613d6381613345565b92915050565b600060208284031215613d7f57613d7e612d27565b5b6000613d8d84828501613d54565b91505092915050565b613d9f81613990565b82525050565b600081519050919050565b600082825260208201905092915050565b6000819050602082019050919050565b600060a083016000830151613de9600086018261395a565b506020830151613dfc6020860182613a10565b506040830151613e0f6040860182613a10565b506060830151613e226060860182613a10565b5060808301518482036080860152613e3a8282613a65565b9150508091505092915050565b6000613e538383613dd1565b905092915050565b6000602082019050919050565b6000613e7382613da5565b613e7d8185613db0565b935083602082028501613e8f85613dc1565b8060005b85811015613ecb5784840389528151613eac8582613e47565b9450613eb783613e5b565b925060208a01995050600181019050613e93565b50829750879550505050505092915050565b600081519050919050565b600082825260208201905092915050565b6000819050602082019050919050565b6000613f158383613a01565b60208301905092915050565b6000602082019050919050565b6000613f3982613edd565b613f438185613ee8565b9350613f4e83613ef9565b8060005b83811015613f7f578151613f668882613f09565b9750613f7183613f21565b925050600181019050613f52565b5085935050505092915050565b600081519050919050565b600082825260208201905092915050565b6000819050602082019050919050565b6000819050919050565b613fcb81613fb8565b82525050565b6000613fdd8383613fc2565b60208301905092915050565b6000602082019050919050565b600061400182613f8c565b61400b8185613f97565b935061401683613fa8565b8060005b8381101561404757815161402e8882613fd1565b975061403983613fe9565b92505060018101905061401a565b5085935050505092915050565b60006101208201905061406a6000830189613d96565b818103602083015261407c8188613e68565b905081810360408301526140908187613f2e565b905061409f6060830186613b72565b81810360e08301526140b18185613ff6565b90506140c1610100830184612dcb565b979650505050505050565b600067ffffffffffffffff8211156140e7576140e6612ed3565b5b602082029050602081019050919050565b61410181613fb8565b811461410c57600080fd5b50565b60008151905061411e816140f8565b92915050565b6000614137614132846140cc565b612f33565b9050808382526020820190506020840283018581111561415a57614159612f7a565b5b835b81811015614183578061416f888261410f565b84526020840193505060208101905061415c565b5050509392505050565b600082601f8301126141a2576141a1612ebd565b5b81516141b2848260208601614124565b91505092915050565b6000602082840312156141d1576141d0612d27565b5b600082015167ffffffffffffffff8111156141ef576141ee612d2c565b5b6141fb8482850161418d565b91505092915050565b60006080820190506142196000830187613480565b6142266020830186612da1565b6142336040830185613480565b6142406060830184613480565b9594505050505056fea264697066735822122033378f82370afbec9d14419114ed5526f2ffbce32f3e2e0d5d424d6642c7908c64736f6c63430008150033",
  "devdoc": {
    "errors": {
      "AddressEmptyCode(address)": [
        {
          "details": "There's no code at `target` (it is not a contract)."
        }
      ],
      "AddressInsufficientBalance(address)": [
        {
          "details": "The ETH balance of the account is not enough to perform the operation."
        }
      ],
      "FailedInnerCall()": [
        {
          "details": "A call to an address target failed. The target may have reverted."
        }
      ],
      "OwnableInvalidOwner(address)": [
        {
          "details": "The owner is not a valid owner account. (eg. `address(0)`)"
        }
      ],
      "OwnableUnauthorizedAccount(address)": [
        {
          "details": "The caller account is not authorized to perform an operation."
        }
      ],
      "ReentrancyGuardReentrantCall()": [
        {
          "details": "Unauthorized reentrant call."
        }
      ],
      "SafeERC20FailedOperation(address)": [
        {
          "details": "An operation with an ERC20 token failed."
        }
      ]
    },
    "kind": "dev",
    "methods": {
      "burn(uint256,address)": {
        "params": {
          "_amount": "ENRG to be burned",
          "_paymentTokenAddress": "token to receive as payment"
        }
      },
      "getPrice(uint256,address)": {
        "params": {
          "_amount": "of energy to be minted",
          "_paymentTokenAddress": "to be used for payment"
        }
      },
      "mint(uint256,address)": {
        "params": {
          "_amount": "to be minted",
          "_paymentTokenAddress": "to be used for payment"
        }
      },
      "mintWithDynamic(uint256,address,uint256,bytes)": {
        "params": {
          "_amount": "to be minted",
          "_offlinePrice": "provided by an offline Oracle",
          "_paymentTokenAddress": "to be used for payment",
          "_signature": "that proves the Oracle's price data was provided by the owner"
        }
      },
      "owner()": {
        "details": "Returns the address of the current owner."
      },
      "renounceOwnership()": {
        "details": "Leaves the contract without owner. It will not be possible to call `onlyOwner` functions. Can only be called by the current owner. NOTE: Renouncing ownership will leave the contract without an owner, thereby disabling any functionality that is only available to the owner."
      },
      "setDynamicExchangeAcceptedDeviationPercentage(uint8)": {
        "params": {
          "_dynamicExchangeAcceptedDeviationPercentage": "percentage of deviation"
        }
      },
      "setDynamicExchangeTokens(address[],bytes32[])": {
        "params": {
          "_dynamicExchangePools": "array of Balancer pool ids (WETH-Token pools)",
          "_dynamicExchangeTokens": "array of token addresses"
        }
      },
      "setFixedExchangeRates(address[],uint256[])": {
        "params": {
          "_fixedExchangeRates": "array of exchage rates (price per 1 ENRG token)",
          "_fixedExchangeTokens": "array of token addresses"
        }
      },
      "setMaxMintAmount(uint256)": {
        "details": "Throws if called by any account other than the energy token."
      },
      "setTrustedSigner(address)": {
        "params": {
          "_trustedSigner": "address of the trusted signer"
        }
      },
      "transferOwnership(address)": {
        "details": "Transfers ownership of the contract to a new account (`newOwner`). Can only be called by the current owner."
      },
      "withdraw(address)": {
        "params": {
          "_erc20": "token to withdraw"
        }
      }
    },
    "version": 1
  },
  "userdoc": {
    "kind": "user",
    "methods": {
      "burn(uint256,address)": {
        "notice": "Burns the desired ENRG amount, receiving the desired payment token in exchange (if available). "
      },
      "getPrice(uint256,address)": {
        "notice": "Calculates the price for the amount of ENRG in the payment token. Can be used from any external actor to calculate the price before minting. "
      },
      "mint(uint256,address)": {
        "notice": "Minting with fixed exchange rate (stablecoin) "
      },
      "mintWithDynamic(uint256,address,uint256,bytes)": {
        "notice": "Minting with dynamic exchange rate (HDAO, BAL, AAVE, etc.). Sent tokens will be exchanged for WETH and then for USDC and HDAO. "
      },
      "setDynamicExchangeAcceptedDeviationPercentage(uint8)": {
        "notice": "Set the deviation percentage from the provided price and the price from Balancer.  If the deviation is higher than the provided percentage, the transaction will be reverted. "
      },
      "setDynamicExchangeTokens(address[],bytes32[])": {
        "notice": "Set the tokens that can be used for minting, with a dynamic exchange rate, from a Balancer pool. "
      },
      "setFixedExchangeRates(address[],uint256[])": {
        "notice": "Sets the fixed exchange rates for the tokens. "
      },
      "setMaxMintAmount(uint256)": {
        "notice": "Sets the amount of energy that can be minted per transaction. "
      },
      "setTrustedSigner(address)": {
        "notice": "Set the trusted signer address. Will be used for offline price signature verification "
      },
      "withdraw(address)": {
        "notice": "Lets the contract owner to withdraw any ERC20 token from the contract. "
      }
    },
    "version": 1
  },
  "storageLayout": {
    "storage": [
      {
        "astId": 846,
        "contract": "contracts/Factory.sol:Factory",
        "label": "_owner",
        "offset": 0,
        "slot": "0",
        "type": "t_address"
      },
      {
        "astId": 2811,
        "contract": "contracts/Factory.sol:Factory",
        "label": "_status",
        "offset": 0,
        "slot": "1",
        "type": "t_uint256"
      },
      {
        "astId": 5588,
        "contract": "contracts/Factory.sol:Factory",
        "label": "trustedSigner",
        "offset": 0,
        "slot": "2",
        "type": "t_address"
      },
      {
        "astId": 5590,
        "contract": "contracts/Factory.sol:Factory",
        "label": "energyToken",
        "offset": 0,
        "slot": "3",
        "type": "t_address"
      },
      {
        "astId": 5592,
        "contract": "contracts/Factory.sol:Factory",
        "label": "maxMintAmount",
        "offset": 0,
        "slot": "4",
        "type": "t_uint256"
      },
      {
        "astId": 5596,
        "contract": "contracts/Factory.sol:Factory",
        "label": "fixedExchangeRate",
        "offset": 0,
        "slot": "5",
        "type": "t_mapping(t_address,t_uint256)"
      },
      {
        "astId": 5600,
        "contract": "contracts/Factory.sol:Factory",
        "label": "dynamicExchangeTokens",
        "offset": 0,
        "slot": "6",
        "type": "t_mapping(t_address,t_bytes32)"
      },
      {
        "astId": 5603,
        "contract": "contracts/Factory.sol:Factory",
        "label": "fixedExchangeTokens",
        "offset": 0,
        "slot": "7",
        "type": "t_array(t_address)dyn_storage"
      },
      {
        "astId": 5605,
        "contract": "contracts/Factory.sol:Factory",
        "label": "dynamicExchangeAcceptedDeviationPercentage",
        "offset": 0,
        "slot": "8",
        "type": "t_uint8"
      }
    ],
    "types": {
      "t_address": {
        "encoding": "inplace",
        "label": "address",
        "numberOfBytes": "20"
      },
      "t_array(t_address)dyn_storage": {
        "base": "t_address",
        "encoding": "dynamic_array",
        "label": "address[]",
        "numberOfBytes": "32"
      },
      "t_bytes32": {
        "encoding": "inplace",
        "label": "bytes32",
        "numberOfBytes": "32"
      },
      "t_mapping(t_address,t_bytes32)": {
        "encoding": "mapping",
        "key": "t_address",
        "label": "mapping(address => bytes32)",
        "numberOfBytes": "32",
        "value": "t_bytes32"
      },
      "t_mapping(t_address,t_uint256)": {
        "encoding": "mapping",
        "key": "t_address",
        "label": "mapping(address => uint256)",
        "numberOfBytes": "32",
        "value": "t_uint256"
      },
      "t_uint256": {
        "encoding": "inplace",
        "label": "uint256",
        "numberOfBytes": "32"
      },
      "t_uint8": {
        "encoding": "inplace",
        "label": "uint8",
        "numberOfBytes": "1"
      }
    }
  }
}