{
  "address": "0x2b097bA58C19416a1566B48900ac848AA84FD09f",
  "abi": [
    {
      "inputs": [
        {
          "internalType": "address",
          "name": "_initialOwner",
          "type": "address"
        },
        {
          "internalType": "address",
          "name": "_energyToken",
          "type": "address"
        },
        {
          "internalType": "uint256",
          "name": "_maxMint",
          "type": "uint256"
        },
        {
          "internalType": "address[]",
          "name": "_fixedExchangeTokens",
          "type": "address[]"
        },
        {
          "internalType": "uint256[]",
          "name": "_fixedExchangeRates",
          "type": "uint256[]"
        },
        {
          "internalType": "address[]",
          "name": "_dynamicExchangeTokens",
          "type": "address[]"
        },
        {
          "internalType": "bytes32[]",
          "name": "_dynamicExchangePools",
          "type": "bytes32[]"
        },
        {
          "internalType": "address[]",
          "name": "_stableExchangeTokens",
          "type": "address[]"
        },
        {
          "internalType": "bytes32[]",
          "name": "_stableExchangePools",
          "type": "bytes32[]"
        }
      ],
      "stateMutability": "nonpayable",
      "type": "constructor"
    },
    {
      "inputs": [
        {
          "internalType": "address",
          "name": "target",
          "type": "address"
        }
      ],
      "name": "AddressEmptyCode",
      "type": "error"
    },
    {
      "inputs": [
        {
          "internalType": "address",
          "name": "account",
          "type": "address"
        }
      ],
      "name": "AddressInsufficientBalance",
      "type": "error"
    },
    {
      "inputs": [],
      "name": "FailedInnerCall",
      "type": "error"
    },
    {
      "inputs": [
        {
          "internalType": "string",
          "name": "message",
          "type": "string"
        }
      ],
      "name": "InvalidAmount",
      "type": "error"
    },
    {
      "inputs": [],
      "name": "InvalidParams",
      "type": "error"
    },
    {
      "inputs": [],
      "name": "InvalidParamsLength",
      "type": "error"
    },
    {
      "inputs": [],
      "name": "InvalidParamsZeroAddress",
      "type": "error"
    },
    {
      "inputs": [],
      "name": "InvalidParamsZeroValue",
      "type": "error"
    },
    {
      "inputs": [],
      "name": "InvalidSignature",
      "type": "error"
    },
    {
      "inputs": [],
      "name": "MaxMintAmount",
      "type": "error"
    },
    {
      "inputs": [],
      "name": "NotEnoughFunds",
      "type": "error"
    },
    {
      "inputs": [],
      "name": "OnlyEnergy",
      "type": "error"
    },
    {
      "inputs": [
        {
          "internalType": "address",
          "name": "owner",
          "type": "address"
        }
      ],
      "name": "OwnableInvalidOwner",
      "type": "error"
    },
    {
      "inputs": [
        {
          "internalType": "address",
          "name": "account",
          "type": "address"
        }
      ],
      "name": "OwnableUnauthorizedAccount",
      "type": "error"
    },
    {
      "inputs": [],
      "name": "ReentrancyGuardReentrantCall",
      "type": "error"
    },
    {
      "inputs": [
        {
          "internalType": "address",
          "name": "token",
          "type": "address"
        }
      ],
      "name": "SafeERC20FailedOperation",
      "type": "error"
    },
    {
      "inputs": [],
      "name": "UnacceptablePriceDeviation",
      "type": "error"
    },
    {
      "inputs": [],
      "name": "Underpaid",
      "type": "error"
    },
    {
      "anonymous": false,
      "inputs": [
        {
          "indexed": true,
          "internalType": "address",
          "name": "_from",
          "type": "address"
        },
        {
          "indexed": false,
          "internalType": "uint256",
          "name": "_amount",
          "type": "uint256"
        },
        {
          "indexed": true,
          "internalType": "address",
          "name": "_paymentToken",
          "type": "address"
        },
        {
          "indexed": false,
          "internalType": "uint256",
          "name": "_price",
          "type": "uint256"
        }
      ],
      "name": "Burn",
      "type": "event"
    },
    {
      "anonymous": false,
      "inputs": [
        {
          "indexed": true,
          "internalType": "address",
          "name": "_to",
          "type": "address"
        },
        {
          "indexed": false,
          "internalType": "uint256",
          "name": "_amount",
          "type": "uint256"
        },
        {
          "indexed": true,
          "internalType": "address",
          "name": "_paymentToken",
          "type": "address"
        },
        {
          "indexed": false,
          "internalType": "uint256",
          "name": "_price",
          "type": "uint256"
        }
      ],
      "name": "Mint",
      "type": "event"
    },
    {
      "anonymous": false,
      "inputs": [
        {
          "indexed": true,
          "internalType": "address",
          "name": "previousOwner",
          "type": "address"
        },
        {
          "indexed": true,
          "internalType": "address",
          "name": "newOwner",
          "type": "address"
        }
      ],
      "name": "OwnershipTransferred",
      "type": "event"
    },
    {
      "anonymous": false,
      "inputs": [
        {
          "indexed": false,
          "internalType": "uint256",
          "name": "amount",
          "type": "uint256"
        },
        {
          "indexed": false,
          "internalType": "address",
          "name": "paymentAddress",
          "type": "address"
        },
        {
          "indexed": false,
          "internalType": "uint256",
          "name": "price",
          "type": "uint256"
        }
      ],
      "name": "Price",
      "type": "event"
    },
    {
      "anonymous": false,
      "inputs": [
        {
          "indexed": false,
          "internalType": "uint256",
          "name": "amount",
          "type": "uint256"
        },
        {
          "indexed": false,
          "internalType": "address",
          "name": "erc20",
          "type": "address"
        },
        {
          "indexed": false,
          "internalType": "uint256",
          "name": "when",
          "type": "uint256"
        }
      ],
      "name": "Withdrawal",
      "type": "event"
    },
    {
      "inputs": [
        {
          "internalType": "uint256",
          "name": "_amount",
          "type": "uint256"
        },
        {
          "internalType": "address",
          "name": "_paymentTokenAddress",
          "type": "address"
        }
      ],
      "name": "burn",
      "outputs": [],
      "stateMutability": "nonpayable",
      "type": "function"
    },
    {
      "inputs": [],
      "name": "burningPrice",
      "outputs": [
        {
          "internalType": "uint256",
          "name": "",
          "type": "uint256"
        }
      ],
      "stateMutability": "view",
      "type": "function"
    },
    {
      "inputs": [],
      "name": "dynamicExchangeAcceptedDeviationPercentage",
      "outputs": [
        {
          "internalType": "uint8",
          "name": "",
          "type": "uint8"
        }
      ],
      "stateMutability": "view",
      "type": "function"
    },
    {
      "inputs": [
        {
          "internalType": "address",
          "name": "",
          "type": "address"
        }
      ],
      "name": "dynamicExchangeTokens",
      "outputs": [
        {
          "internalType": "bytes32",
          "name": "",
          "type": "bytes32"
        }
      ],
      "stateMutability": "view",
      "type": "function"
    },
    {
      "inputs": [],
      "name": "energyToken",
      "outputs": [
        {
          "internalType": "address",
          "name": "",
          "type": "address"
        }
      ],
      "stateMutability": "view",
      "type": "function"
    },
    {
      "inputs": [
        {
          "internalType": "address",
          "name": "",
          "type": "address"
        }
      ],
      "name": "fixedExchangeRate",
      "outputs": [
        {
          "internalType": "uint256",
          "name": "",
          "type": "uint256"
        }
      ],
      "stateMutability": "view",
      "type": "function"
    },
    {
      "inputs": [
        {
          "internalType": "uint256",
          "name": "",
          "type": "uint256"
        }
      ],
      "name": "fixedExchangeTokens",
      "outputs": [
        {
          "internalType": "address",
          "name": "",
          "type": "address"
        }
      ],
      "stateMutability": "view",
      "type": "function"
    },
    {
      "inputs": [
        {
          "internalType": "uint256",
          "name": "_amount",
          "type": "uint256"
        },
        {
          "internalType": "address",
          "name": "_paymentTokenAddress",
          "type": "address"
        }
      ],
      "name": "getPrice",
      "outputs": [
        {
          "internalType": "uint256",
          "name": "",
          "type": "uint256"
        }
      ],
      "stateMutability": "nonpayable",
      "type": "function"
    },
    {
      "inputs": [],
      "name": "maxMintAmount",
      "outputs": [
        {
          "internalType": "uint256",
          "name": "",
          "type": "uint256"
        }
      ],
      "stateMutability": "view",
      "type": "function"
    },
    {
      "inputs": [
        {
          "internalType": "uint256",
          "name": "_amount",
          "type": "uint256"
        },
        {
          "internalType": "address",
          "name": "_paymentTokenAddress",
          "type": "address"
        }
      ],
      "name": "mint",
      "outputs": [],
      "stateMutability": "nonpayable",
      "type": "function"
    },
    {
      "inputs": [
        {
          "internalType": "uint256",
          "name": "_amount",
          "type": "uint256"
        },
        {
          "internalType": "address",
          "name": "_paymentTokenAddress",
          "type": "address"
        },
        {
          "internalType": "uint256",
          "name": "_offlinePrice",
          "type": "uint256"
        },
        {
          "internalType": "bytes",
          "name": "_signature",
          "type": "bytes"
        }
      ],
      "name": "mintWithDynamic",
      "outputs": [],
      "stateMutability": "nonpayable",
      "type": "function"
    },
    {
      "inputs": [],
      "name": "owner",
      "outputs": [
        {
          "internalType": "address",
          "name": "",
          "type": "address"
        }
      ],
      "stateMutability": "view",
      "type": "function"
    },
    {
      "inputs": [],
      "name": "renounceOwnership",
      "outputs": [],
      "stateMutability": "nonpayable",
      "type": "function"
    },
    {
      "inputs": [
        {
          "internalType": "uint256",
          "name": "_burningPrice",
          "type": "uint256"
        }
      ],
      "name": "setBurningPrice",
      "outputs": [],
      "stateMutability": "nonpayable",
      "type": "function"
    },
    {
      "inputs": [
        {
          "internalType": "uint8",
          "name": "_dynamicExchangeAcceptedDeviationPercentage",
          "type": "uint8"
        }
      ],
      "name": "setDynamicExchangeAcceptedDeviationPercentage",
      "outputs": [],
      "stateMutability": "nonpayable",
      "type": "function"
    },
    {
      "inputs": [
        {
          "internalType": "address[]",
          "name": "_dynamicExchangeTokens",
          "type": "address[]"
        },
        {
          "internalType": "bytes32[]",
          "name": "_dynamicExchangePools",
          "type": "bytes32[]"
        }
      ],
      "name": "setDynamicExchangeTokens",
      "outputs": [],
      "stateMutability": "nonpayable",
      "type": "function"
    },
    {
      "inputs": [
        {
          "internalType": "address[]",
          "name": "_fixedExchangeTokens",
          "type": "address[]"
        },
        {
          "internalType": "uint256[]",
          "name": "_fixedExchangeRates",
          "type": "uint256[]"
        }
      ],
      "name": "setFixedExchangeRates",
      "outputs": [],
      "stateMutability": "nonpayable",
      "type": "function"
    },
    {
      "inputs": [
        {
          "internalType": "address[]",
          "name": "_fixedExchangeTokens",
          "type": "address[]"
        },
        {
          "internalType": "uint256[]",
          "name": "_fixedExchangeRates",
          "type": "uint256[]"
        }
      ],
      "name": "setFixedExchangeTokens",
      "outputs": [],
      "stateMutability": "nonpayable",
      "type": "function"
    },
    {
      "inputs": [
        {
          "internalType": "uint256",
          "name": "_maxMintAmount",
          "type": "uint256"
        }
      ],
      "name": "setMaxMintAmount",
      "outputs": [],
      "stateMutability": "nonpayable",
      "type": "function"
    },
    {
      "inputs": [
        {
          "internalType": "address[]",
          "name": "_stableExchangeTokens",
          "type": "address[]"
        },
        {
          "internalType": "bytes32[]",
          "name": "_stableExchangePools",
          "type": "bytes32[]"
        }
      ],
      "name": "setStableExchangeTokens",
      "outputs": [],
      "stateMutability": "nonpayable",
      "type": "function"
    },
    {
      "inputs": [
        {
          "internalType": "address",
          "name": "_trustedSigner",
          "type": "address"
        }
      ],
      "name": "setTrustedSigner",
      "outputs": [],
      "stateMutability": "nonpayable",
      "type": "function"
    },
    {
      "inputs": [
        {
          "internalType": "address",
          "name": "",
          "type": "address"
        }
      ],
      "name": "stableExchangeTokens",
      "outputs": [
        {
          "internalType": "bytes32",
          "name": "",
          "type": "bytes32"
        }
      ],
      "stateMutability": "view",
      "type": "function"
    },
    {
      "inputs": [
        {
          "internalType": "address",
          "name": "newOwner",
          "type": "address"
        }
      ],
      "name": "transferOwnership",
      "outputs": [],
      "stateMutability": "nonpayable",
      "type": "function"
    },
    {
      "inputs": [],
      "name": "trustedSigner",
      "outputs": [
        {
          "internalType": "address",
          "name": "",
          "type": "address"
        }
      ],
      "stateMutability": "view",
      "type": "function"
    },
    {
      "inputs": [
        {
          "internalType": "address",
          "name": "_erc20",
          "type": "address"
        }
      ],
      "name": "withdraw",
      "outputs": [],
      "stateMutability": "nonpayable",
      "type": "function"
    }
  ],
  "transactionHash": "0xabafb9a0db239d18e3b6246a42470d549af07422e50716c7c072e6486d930d02",
  "args": [
    "0x77693a5D3881dD7F99964219e2827883e66D7E9e",
    "0xfd3820c8f73d9692DD2E43093b44b18a95065bF1",
    "30000",
    [
      "0x7e09999FC7F4997Ef747365d8E1fdc5fD872b7aA",
      "0x5499f8a9C38a85f0078F9D880e5336736111e52b"
    ],
    [
      "2500000",
      "2500000"
    ],
    [
      "0xDdb5Dc0E4B3f008227cA93F330Ad4932a1680277",
      "0xfa8449189744799ad2ace7e0ebac8bb7575eff47"
    ],
    [
      "0x34eb7a37aabcb12a68531338a742b964d4445506000200000000000000000942",
      "0x9ca319ec0cfd8a40e865f955f91ca7224be2135400020000000000000000091d"
    ],
    [
      "0x7e09999FC7F4997Ef747365d8E1fdc5fD872b7aA",
      "0x5499f8a9C38a85f0078F9D880e5336736111e52b"
    ],
    [
      "0xefed1e8b816e245847230368c302dd97791a5964000200000000000000000940",
      "0x4209bcfcc4faf674c49564869507e7835844036b00020000000000000000095f"
    ]
  ],
  "numDeployments": 4,
  "solcInputHash": "f53616f9bc299477574c9dc4ed8963d6",
  "bytecode": "0x61018060405273ddb5dc0e4b3f008227ca93f330ad4932a168027773ffffffffffffffffffffffffffffffffffffffff1660809073ffffffffffffffffffffffffffffffffffffffff16815250737e09999fc7f4997ef747365d8e1fdc5fd872b7aa73ffffffffffffffffffffffffffffffffffffffff1660a09073ffffffffffffffffffffffffffffffffffffffff16815250735d86c1076710d91720679e423d4dd0ba58dc568473ffffffffffffffffffffffffffffffffffffffff1660c09073ffffffffffffffffffffffffffffffffffffffff168152507fefed1e8b816e245847230368c302dd97791a596400020000000000000000094060001b60e0908152507f34eb7a37aabcb12a68531338a742b964d444550600020000000000000000094260001b6101009081525073e39b5e3b6d74016b2f6a9673d7d7493b6df549d573ffffffffffffffffffffffffffffffffffffffff166101209073ffffffffffffffffffffffffffffffffffffffff1681525073ba12222222228d8ba445958a75a0704d566bf2c873ffffffffffffffffffffffffffffffffffffffff166101409073ffffffffffffffffffffffffffffffffffffffff16815250622625a061016090815250348015620001d757600080fd5b5060405162006643380380620066438339818101604052810190620001fd9190620010d6565b88600073ffffffffffffffffffffffffffffffffffffffff168173ffffffffffffffffffffffffffffffffffffffff1603620002735760006040517f1e4fbdf70000000000000000000000000000000000000000000000000000000081526004016200026a919062001280565b60405180910390fd5b62000284816200038860201b60201c565b506001808190555087600360006101000a81548173ffffffffffffffffffffffffffffffffffffffff021916908373ffffffffffffffffffffffffffffffffffffffff160217905550620002de876200044c60201b60201c565b620002f08686620004a160201b60201c565b6200030284846200069760201b60201c565b600a600960006101000a81548160ff021916908360ff16021790555088600260006101000a81548173ffffffffffffffffffffffffffffffffffffffff021916908373ffffffffffffffffffffffffffffffffffffffff1602179055506002600a81905550620003798282620008ee60201b60201c565b50505050505050505062001336565b60008060009054906101000a900473ffffffffffffffffffffffffffffffffffffffff169050816000806101000a81548173ffffffffffffffffffffffffffffffffffffffff021916908373ffffffffffffffffffffffffffffffffffffffff1602179055508173ffffffffffffffffffffffffffffffffffffffff168173ffffffffffffffffffffffffffffffffffffffff167f8be0079c531659141344cd1fd0a4f28419497f9722a3daafe3b4186f6b6457e060405160405180910390a35050565b6200045c62000b4560201b60201c565b6000810362000497576040517f2aa244fe00000000000000000000000000000000000000000000000000000000815260040160405180910390fd5b8060048190555050565b620004b162000b4560201b60201c565b8051825114620004ed576040517ff950c6c400000000000000000000000000000000000000000000000000000000815260040160405180910390fd5b81600890805190602001906200050592919062000c18565b5060005b82518160ff1610156200069257600073ffffffffffffffffffffffffffffffffffffffff16838260ff16815181106200054757620005466200129d565b5b602002602001015173ffffffffffffffffffffffffffffffffffffffff16036200059d576040517faa15487e00000000000000000000000000000000000000000000000000000000815260040160405180910390fd5b6000828260ff1681518110620005b857620005b76200129d565b5b602002602001015103620005f8576040517f2aa244fe00000000000000000000000000000000000000000000000000000000815260040160405180910390fd5b818160ff16815181106200061157620006106200129d565b5b602002602001015160056000858460ff16815181106200063657620006356200129d565b5b602002602001015173ffffffffffffffffffffffffffffffffffffffff1673ffffffffffffffffffffffffffffffffffffffff168152602001908152602001600020819055508080620006899062001308565b91505062000509565b505050565b620006a762000b4560201b60201c565b6000825103620006e3576040517ff950c6c400000000000000000000000000000000000000000000000000000000815260040160405180910390fd5b60008151036200071f576040517ff950c6c400000000000000000000000000000000000000000000000000000000815260040160405180910390fd5b80518251146200075b576040517ff950c6c400000000000000000000000000000000000000000000000000000000815260040160405180910390fd5b60005b82518160ff161015620008e957600073ffffffffffffffffffffffffffffffffffffffff16838260ff16815181106200079c576200079b6200129d565b5b602002602001015173ffffffffffffffffffffffffffffffffffffffff1603620007f2576040517faa15487e00000000000000000000000000000000000000000000000000000000815260040160405180910390fd5b6000801b828260ff16815181106200080f576200080e6200129d565b5b6020026020010151036200084f576040517f2aa244fe00000000000000000000000000000000000000000000000000000000815260040160405180910390fd5b818160ff16815181106200086857620008676200129d565b5b602002602001015160066000858460ff16815181106200088d576200088c6200129d565b5b602002602001015173ffffffffffffffffffffffffffffffffffffffff1673ffffffffffffffffffffffffffffffffffffffff168152602001908152602001600020819055508080620008e09062001308565b9150506200075e565b505050565b620008fe62000b4560201b60201c565b60008251036200093a576040517ff950c6c400000000000000000000000000000000000000000000000000000000815260040160405180910390fd5b600081510362000976576040517ff950c6c400000000000000000000000000000000000000000000000000000000815260040160405180910390fd5b8051825114620009b2576040517ff950c6c400000000000000000000000000000000000000000000000000000000815260040160405180910390fd5b60005b82518160ff16101562000b4057600073ffffffffffffffffffffffffffffffffffffffff16838260ff1681518110620009f357620009f26200129d565b5b602002602001015173ffffffffffffffffffffffffffffffffffffffff160362000a49576040517faa15487e00000000000000000000000000000000000000000000000000000000815260040160405180910390fd5b6000801b828260ff168151811062000a665762000a656200129d565b5b60200260200101510362000aa6576040517f2aa244fe00000000000000000000000000000000000000000000000000000000815260040160405180910390fd5b818160ff168151811062000abf5762000abe6200129d565b5b602002602001015160076000858460ff168151811062000ae45762000ae36200129d565b5b602002602001015173ffffffffffffffffffffffffffffffffffffffff1673ffffffffffffffffffffffffffffffffffffffff16815260200190815260200160002081905550808062000b379062001308565b915050620009b5565b505050565b62000b5562000be760201b60201c565b73ffffffffffffffffffffffffffffffffffffffff1662000b7b62000bef60201b60201c565b73ffffffffffffffffffffffffffffffffffffffff161462000be55762000ba762000be760201b60201c565b6040517f118cdaa700000000000000000000000000000000000000000000000000000000815260040162000bdc919062001280565b60405180910390fd5b565b600033905090565b60008060009054906101000a900473ffffffffffffffffffffffffffffffffffffffff16905090565b82805482825590600052602060002090810192821562000c94579160200282015b8281111562000c935782518260006101000a81548173ffffffffffffffffffffffffffffffffffffffff021916908373ffffffffffffffffffffffffffffffffffffffff1602179055509160200191906001019062000c39565b5b50905062000ca3919062000ca7565b5090565b5b8082111562000cc257600081600090555060010162000ca8565b5090565b6000604051905090565b600080fd5b600080fd5b600073ffffffffffffffffffffffffffffffffffffffff82169050919050565b600062000d078262000cda565b9050919050565b62000d198162000cfa565b811462000d2557600080fd5b50565b60008151905062000d398162000d0e565b92915050565b6000819050919050565b62000d548162000d3f565b811462000d6057600080fd5b50565b60008151905062000d748162000d49565b92915050565b600080fd5b6000601f19601f8301169050919050565b7f4e487b7100000000000000000000000000000000000000000000000000000000600052604160045260246000fd5b62000dca8262000d7f565b810181811067ffffffffffffffff8211171562000dec5762000deb62000d90565b5b80604052505050565b600062000e0162000cc6565b905062000e0f828262000dbf565b919050565b600067ffffffffffffffff82111562000e325762000e3162000d90565b5b602082029050602081019050919050565b600080fd5b600062000e5f62000e598462000e14565b62000df5565b9050808382526020820190506020840283018581111562000e855762000e8462000e43565b5b835b8181101562000eb2578062000e9d888262000d28565b84526020840193505060208101905062000e87565b5050509392505050565b600082601f83011262000ed45762000ed362000d7a565b5b815162000ee684826020860162000e48565b91505092915050565b600067ffffffffffffffff82111562000f0d5762000f0c62000d90565b5b602082029050602081019050919050565b600062000f3562000f2f8462000eef565b62000df5565b9050808382526020820190506020840283018581111562000f5b5762000f5a62000e43565b5b835b8181101562000f88578062000f73888262000d63565b84526020840193505060208101905062000f5d565b5050509392505050565b600082601f83011262000faa5762000fa962000d7a565b5b815162000fbc84826020860162000f1e565b91505092915050565b600067ffffffffffffffff82111562000fe35762000fe262000d90565b5b602082029050602081019050919050565b6000819050919050565b620010098162000ff4565b81146200101557600080fd5b50565b600081519050620010298162000ffe565b92915050565b600062001046620010408462000fc5565b62000df5565b905080838252602082019050602084028301858111156200106c576200106b62000e43565b5b835b8181101562001099578062001084888262001018565b8452602084019350506020810190506200106e565b5050509392505050565b600082601f830112620010bb57620010ba62000d7a565b5b8151620010cd8482602086016200102f565b91505092915050565b60008060008060008060008060006101208a8c031215620010fc57620010fb62000cd0565b5b60006200110c8c828d0162000d28565b99505060206200111f8c828d0162000d28565b9850506040620011328c828d0162000d63565b97505060608a015167ffffffffffffffff81111562001156576200115562000cd5565b5b620011648c828d0162000ebc565b96505060808a015167ffffffffffffffff81111562001188576200118762000cd5565b5b620011968c828d0162000f92565b95505060a08a015167ffffffffffffffff811115620011ba57620011b962000cd5565b5b620011c88c828d0162000ebc565b94505060c08a015167ffffffffffffffff811115620011ec57620011eb62000cd5565b5b620011fa8c828d01620010a3565b93505060e08a015167ffffffffffffffff8111156200121e576200121d62000cd5565b5b6200122c8c828d0162000ebc565b9250506101008a015167ffffffffffffffff81111562001251576200125062000cd5565b5b6200125f8c828d01620010a3565b9150509295985092959850929598565b6200127a8162000cfa565b82525050565b60006020820190506200129760008301846200126f565b92915050565b7f4e487b7100000000000000000000000000000000000000000000000000000000600052603260045260246000fd5b7f4e487b7100000000000000000000000000000000000000000000000000000000600052601160045260246000fd5b600060ff82169050919050565b60006200131582620012fb565b915060ff82036200132b576200132a620012cc565b5b600182019050919050565b60805160a05160c05160e0516101005161012051610140516101605161525a620013e960003960006108180152600081816127b401528181612cbd015281816131e701526136f0015260006124d001526000818161107d0152612f380152600081816107680152612f8601526000818161072c0152818161078901528181612a9701526134ca0152600081816107aa0152612f6501526000818161105c01528181612eb40152612f17015261525a6000f3fe608060405234801561001057600080fd5b50600436106101735760003560e01c8063813e47bf116100de578063c61a20f311610097578063f2fde38b11610071578063f2fde38b14610420578063f74d54801461043c578063f95a1f5c1461045a578063fcd3533c1461047657610173565b8063c61a20f3146103a4578063cd5edd34146103c0578063d6757783146103f057610173565b8063813e47bf146102e65780638da5cb5b1461031657806394bf804d14610334578063a4f8476714610350578063b6895b5f1461036c578063be5e56291461038857610173565b80633db211e8116101305780633db211e81461024e5780634ec7fb811461026a57806351cff8d91461028857806356a1c701146102a4578063715018a6146102c057806378884dfb146102ca57610173565b806301f19a5314610178578063088a4ed0146101965780630d22282b146101b2578063239c70ae146101d057806328297b3a146101ee5780632b57cfbb1461021e575b600080fd5b610180610492565b60405161018d9190613b65565b60405180910390f35b6101b060048036038101906101ab9190613bc0565b610498565b005b6101ba6104e4565b6040516101c79190613c09565b60405180910390f35b6101d86104f7565b6040516101e59190613b65565b60405180910390f35b61020860048036038101906102039190613bc0565b6104fd565b6040516102159190613c65565b60405180910390f35b61023860048036038101906102339190613cac565b61053c565b6040516102459190613b65565b60405180910390f35b61026860048036038101906102639190613f08565b610888565b005b610272610a61565b60405161027f9190613c65565b60405180910390f35b6102a2600480360381019061029d9190613f80565b610a87565b005b6102be60048036038101906102b99190613f80565b610b94565b005b6102c8610c46565b005b6102e460048036038101906102df9190613fd9565b610c5a565b005b61030060048036038101906102fb9190613f80565b610cbd565b60405161030d9190613b65565b60405180910390f35b61031e610cd5565b60405161032b9190613c65565b60405180910390f35b61034e60048036038101906103499190613cac565b610cfe565b005b61036a60048036038101906103659190613f08565b6111b6565b005b610386600480360381019061038191906140bb565b611405565b005b6103a2600480360381019061039d9190614237565b61187a565b005b6103be60048036038101906103b99190614237565b611ab4565b005b6103da60048036038101906103d59190613f80565b611cee565b6040516103e791906142be565b60405180910390f35b61040a60048036038101906104059190613f80565b611d06565b60405161041791906142be565b60405180910390f35b61043a60048036038101906104359190613f80565b611d1e565b005b610444611da4565b6040516104519190613c65565b60405180910390f35b610474600480360381019061046f9190613bc0565b611dca565b005b610490600480360381019061048b9190613cac565b611e16565b005b600a5481565b6104a06121f0565b600081036104da576040517f2aa244fe00000000000000000000000000000000000000000000000000000000815260040160405180910390fd5b8060048190555050565b600960009054906101000a900460ff1681565b60045481565b6008818154811061050d57600080fd5b906000526020600020016000915054906101000a900473ffffffffffffffffffffffffffffffffffffffff1681565b6000808303610577576040517f2aa244fe00000000000000000000000000000000000000000000000000000000815260040160405180910390fd5b600073ffffffffffffffffffffffffffffffffffffffff168273ffffffffffffffffffffffffffffffffffffffff16036105dd576040517faa15487e00000000000000000000000000000000000000000000000000000000815260040160405180910390fd5b6000801b600660008473ffffffffffffffffffffffffffffffffffffffff1673ffffffffffffffffffffffffffffffffffffffff1681526020019081526020016000205403610658576040517f2aa244fe00000000000000000000000000000000000000000000000000000000815260040160405180910390fd5b60008273ffffffffffffffffffffffffffffffffffffffff1663313ce5676040518163ffffffff1660e01b8152600401602060405180830381865afa1580156106a5573d6000803e3d6000fd5b505050506040513d601f19601f820116820180604052508101906106c991906142ee565b9050600061075082600a6106dd919061447d565b60016106e991906144c8565b600660008773ffffffffffffffffffffffffffffffffffffffff1673ffffffffffffffffffffffffffffffffffffffff16815260200190815260200160002054867f0000000000000000000000000000000000000000000000000000000000000000612277565b9050600064e8d4a510006107ce670de0b6b3a76400007f00000000000000000000000000000000000000000000000000000000000000007f00000000000000000000000000000000000000000000000000000000000000007f0000000000000000000000000000000000000000000000000000000000000000612277565b6107d891906144c8565b90506000670de0b6b3a764000082846107f191906144c8565b6107fb9190614539565b9050670de0b6b3a764000081670de0b6b3a764000064e8d4a510007f000000000000000000000000000000000000000000000000000000000000000061084191906144c8565b662386f26fc100008b61085491906144c8565b61085e91906144c8565b6108689190614539565b6108729190614539565b61087c91906144c8565b94505050505092915050565b6108906121f0565b80518251146108cb576040517ff950c6c400000000000000000000000000000000000000000000000000000000815260040160405180910390fd5b81600890805190602001906108e1929190613a73565b5060005b82518160ff161015610a5c57600073ffffffffffffffffffffffffffffffffffffffff16838260ff168151811061091f5761091e61456a565b5b602002602001015173ffffffffffffffffffffffffffffffffffffffff1603610974576040517faa15487e00000000000000000000000000000000000000000000000000000000815260040160405180910390fd5b6000828260ff168151811061098c5761098b61456a565b5b6020026020010151036109cb576040517f2aa244fe00000000000000000000000000000000000000000000000000000000815260040160405180910390fd5b818160ff16815181106109e1576109e061456a565b5b602002602001015160056000858460ff1681518110610a0357610a0261456a565b5b602002602001015173ffffffffffffffffffffffffffffffffffffffff1673ffffffffffffffffffffffffffffffffffffffff168152602001908152602001600020819055508080610a5490614599565b9150506108e5565b505050565b600360009054906101000a900473ffffffffffffffffffffffffffffffffffffffff1681565b610a8f6121f0565b610a97612578565b600081905060008173ffffffffffffffffffffffffffffffffffffffff166370a08231306040518263ffffffff1660e01b8152600401610ad79190613c65565b602060405180830381865afa158015610af4573d6000803e3d6000fd5b505050506040513d601f19601f82011682018060405250810190610b1891906145d7565b9050610b4c610b25610cd5565b828473ffffffffffffffffffffffffffffffffffffffff166125be9092919063ffffffff16565b7f37e8063b72a944a76de602f32b82fd8c2a1c6f99564c727ffaf913c7762cd420818442604051610b7f93929190614604565b60405180910390a15050610b9161263d565b50565b610b9c6121f0565b600073ffffffffffffffffffffffffffffffffffffffff168173ffffffffffffffffffffffffffffffffffffffff1603610c02576040517faa15487e00000000000000000000000000000000000000000000000000000000815260040160405180910390fd5b80600260006101000a81548173ffffffffffffffffffffffffffffffffffffffff021916908373ffffffffffffffffffffffffffffffffffffffff16021790555050565b610c4e6121f0565b610c586000612646565b565b610c626121f0565b60008160ff1603610c9f576040517f2aa244fe00000000000000000000000000000000000000000000000000000000815260040160405180910390fd5b80600960006101000a81548160ff021916908360ff16021790555050565b60056020528060005260406000206000915090505481565b60008060009054906101000a900473ffffffffffffffffffffffffffffffffffffffff16905090565b610d06612578565b6005821015610d4a576040517fb132ad4a000000000000000000000000000000000000000000000000000000008152600401610d41906146be565b60405180910390fd5b600454821115610d86576040517fcaeeffdb00000000000000000000000000000000000000000000000000000000815260040160405180910390fd5b6000600583610d9591906146de565b14610dd5576040517fb132ad4a000000000000000000000000000000000000000000000000000000008152600401610dcc9061475b565b60405180910390fd5b600073ffffffffffffffffffffffffffffffffffffffff168173ffffffffffffffffffffffffffffffffffffffff1603610e3b576040517faa15487e00000000000000000000000000000000000000000000000000000000815260040160405180910390fd5b6000600560008373ffffffffffffffffffffffffffffffffffffffff1673ffffffffffffffffffffffffffffffffffffffff1681526020019081526020016000205403610eb4576040517f2aa244fe00000000000000000000000000000000000000000000000000000000815260040160405180910390fd5b60008190506000610ec361270a565b9050600084600560008673ffffffffffffffffffffffffffffffffffffffff1673ffffffffffffffffffffffffffffffffffffffff16815260200190815260200160002054610f1291906144c8565b905060006064605083610f2591906144c8565b610f2f9190614539565b905060008183610f3f919061477b565b905060008573ffffffffffffffffffffffffffffffffffffffff1663dd62ed3e86306040518363ffffffff1660e01b8152600401610f7e9291906147af565b602060405180830381865afa158015610f9b573d6000803e3d6000fd5b505050506040513d601f19601f82011682018060405250810190610fbf91906145d7565b9050606484610fce9190614539565b811015611010576040517f08c379a000000000000000000000000000000000000000000000000000000000815260040161100790614824565b60405180910390fd5b61104985306064876110229190614539565b8973ffffffffffffffffffffffffffffffffffffffff16612712909392919063ffffffff16565b6110a16064836110599190614539565b887f00000000000000000000000000000000000000000000000000000000000000007f0000000000000000000000000000000000000000000000000000000000000000612794565b50600360009054906101000a900473ffffffffffffffffffffffffffffffffffffffff1673ffffffffffffffffffffffffffffffffffffffff166340c10f19868a6040518363ffffffff1660e01b81526004016110ff929190614844565b600060405180830381600087803b15801561111957600080fd5b505af115801561112d573d6000803e3d6000fd5b505050508673ffffffffffffffffffffffffffffffffffffffff168573ffffffffffffffffffffffffffffffffffffffff167ff3f9b81b1aa7af42b83e33d01a22621ecf67d5ebeb4587a4d63e3737276076818a60648861118e9190614539565b60405161119c92919061486d565b60405180910390a35050505050506111b261263d565b5050565b6111be6121f0565b60008251036111f9576040517ff950c6c400000000000000000000000000000000000000000000000000000000815260040160405180910390fd5b6000815103611234576040517ff950c6c400000000000000000000000000000000000000000000000000000000815260040160405180910390fd5b815181511461126f576040517ff950c6c400000000000000000000000000000000000000000000000000000000815260040160405180910390fd5b8160089080519060200190611285929190613a73565b5060005b82518160ff16101561140057600073ffffffffffffffffffffffffffffffffffffffff16838260ff16815181106112c3576112c261456a565b5b602002602001015173ffffffffffffffffffffffffffffffffffffffff1603611318576040517faa15487e00000000000000000000000000000000000000000000000000000000815260040160405180910390fd5b6000828260ff16815181106113305761132f61456a565b5b60200260200101510361136f576040517f2aa244fe00000000000000000000000000000000000000000000000000000000815260040160405180910390fd5b818160ff16815181106113855761138461456a565b5b602002602001015160056000858460ff16815181106113a7576113a661456a565b5b602002602001015173ffffffffffffffffffffffffffffffffffffffff1673ffffffffffffffffffffffffffffffffffffffff1681526020019081526020016000208190555080806113f890614599565b915050611289565b505050565b61140d612578565b60008403611447576040517f2aa244fe00000000000000000000000000000000000000000000000000000000815260040160405180910390fd5b600454841115611483576040517fcaeeffdb00000000000000000000000000000000000000000000000000000000815260040160405180910390fd5b60058410156114c7576040517fb132ad4a0000000000000000000000000000000000000000000000000000000081526004016114be906146be565b60405180910390fd5b60006005856114d691906146de565b14611516576040517fb132ad4a00000000000000000000000000000000000000000000000000000000815260040161150d9061475b565b60405180910390fd5b600073ffffffffffffffffffffffffffffffffffffffff168373ffffffffffffffffffffffffffffffffffffffff160361157c576040517faa15487e00000000000000000000000000000000000000000000000000000000815260040160405180910390fd5b6000801b600660008573ffffffffffffffffffffffffffffffffffffffff1673ffffffffffffffffffffffffffffffffffffffff16815260200190815260200160002054036115f7576040517f2aa244fe00000000000000000000000000000000000000000000000000000000815260040160405180910390fd5b600061160161270a565b905060008360405160200161161691906148b7565b604051602081830303815290604052805190602001209050600061163982612d95565b9050600061166a600260009054906101000a900473ffffffffffffffffffffffffffffffffffffffff168387612dcb565b9050806116a3576040517f8baa579f00000000000000000000000000000000000000000000000000000000815260040160405180910390fd5b60006116af898961053c565b905060006064600960009054906101000a900460ff1660ff16836116d391906144c8565b6116dd9190614539565b90508781836116ec91906148d2565b10806117025750878183611700919061477b565b115b15611739576040517f76d2539a00000000000000000000000000000000000000000000000000000000815260040160405180910390fd5b6117668630848c73ffffffffffffffffffffffffffffffffffffffff16612712909392919063ffffffff16565b600360009054906101000a900473ffffffffffffffffffffffffffffffffffffffff1673ffffffffffffffffffffffffffffffffffffffff166340c10f19878c6040518363ffffffff1660e01b81526004016117c3929190614844565b600060405180830381600087803b1580156117dd57600080fd5b505af11580156117f1573d6000803e3d6000fd5b505050506117ff828a612e5b565b8873ffffffffffffffffffffffffffffffffffffffff168673ffffffffffffffffffffffffffffffffffffffff167ff3f9b81b1aa7af42b83e33d01a22621ecf67d5ebeb4587a4d63e3737276076818c8560405161185e92919061486d565b60405180910390a350505050505061187461263d565b50505050565b6118826121f0565b60008251036118bd576040517ff950c6c400000000000000000000000000000000000000000000000000000000815260040160405180910390fd5b60008151036118f8576040517ff950c6c400000000000000000000000000000000000000000000000000000000815260040160405180910390fd5b8051825114611933576040517ff950c6c400000000000000000000000000000000000000000000000000000000815260040160405180910390fd5b60005b82518160ff161015611aaf57600073ffffffffffffffffffffffffffffffffffffffff16838260ff16815181106119705761196f61456a565b5b602002602001015173ffffffffffffffffffffffffffffffffffffffff16036119c5576040517faa15487e00000000000000000000000000000000000000000000000000000000815260040160405180910390fd5b6000801b828260ff16815181106119df576119de61456a565b5b602002602001015103611a1e576040517f2aa244fe00000000000000000000000000000000000000000000000000000000815260040160405180910390fd5b818160ff1681518110611a3457611a3361456a565b5b602002602001015160076000858460ff1681518110611a5657611a5561456a565b5b602002602001015173ffffffffffffffffffffffffffffffffffffffff1673ffffffffffffffffffffffffffffffffffffffff168152602001908152602001600020819055508080611aa790614599565b915050611936565b505050565b611abc6121f0565b6000825103611af7576040517ff950c6c400000000000000000000000000000000000000000000000000000000815260040160405180910390fd5b6000815103611b32576040517ff950c6c400000000000000000000000000000000000000000000000000000000815260040160405180910390fd5b8051825114611b6d576040517ff950c6c400000000000000000000000000000000000000000000000000000000815260040160405180910390fd5b60005b82518160ff161015611ce957600073ffffffffffffffffffffffffffffffffffffffff16838260ff1681518110611baa57611ba961456a565b5b602002602001015173ffffffffffffffffffffffffffffffffffffffff1603611bff576040517faa15487e00000000000000000000000000000000000000000000000000000000815260040160405180910390fd5b6000801b828260ff1681518110611c1957611c1861456a565b5b602002602001015103611c58576040517f2aa244fe00000000000000000000000000000000000000000000000000000000815260040160405180910390fd5b818160ff1681518110611c6e57611c6d61456a565b5b602002602001015160066000858460ff1681518110611c9057611c8f61456a565b5b602002602001015173ffffffffffffffffffffffffffffffffffffffff1673ffffffffffffffffffffffffffffffffffffffff168152602001908152602001600020819055508080611ce190614599565b915050611b70565b505050565b60066020528060005260406000206000915090505481565b60076020528060005260406000206000915090505481565b611d266121f0565b600073ffffffffffffffffffffffffffffffffffffffff168173ffffffffffffffffffffffffffffffffffffffff1603611d985760006040517f1e4fbdf7000000000000000000000000000000000000000000000000000000008152600401611d8f9190613c65565b60405180910390fd5b611da181612646565b50565b600260009054906101000a900473ffffffffffffffffffffffffffffffffffffffff1681565b611dd26121f0565b60008103611e0c576040517f2aa244fe00000000000000000000000000000000000000000000000000000000815260040160405180910390fd5b80600a8190555050565b611e1e612578565b60008203611e58576040517f2aa244fe00000000000000000000000000000000000000000000000000000000815260040160405180910390fd5b600073ffffffffffffffffffffffffffffffffffffffff168173ffffffffffffffffffffffffffffffffffffffff1603611ebe576040517faa15487e00000000000000000000000000000000000000000000000000000000815260040160405180910390fd5b6000611ec861270a565b905060008290506000600360009054906101000a900473ffffffffffffffffffffffffffffffffffffffff1673ffffffffffffffffffffffffffffffffffffffff1663313ce5676040518163ffffffff1660e01b8152600401602060405180830381865afa158015611f3e573d6000803e3d6000fd5b505050506040513d601f19601f82011682018060405250810190611f6291906142ee565b600a611f6e919061447d565b8273ffffffffffffffffffffffffffffffffffffffff1663313ce5676040518163ffffffff1660e01b8152600401602060405180830381865afa158015611fb9573d6000803e3d6000fd5b505050506040513d601f19601f82011682018060405250810190611fdd91906142ee565b600a611fe9919061447d565b86600a54611ff791906144c8565b61200191906144c8565b61200b9190614539565b9050808273ffffffffffffffffffffffffffffffffffffffff166370a08231306040518263ffffffff1660e01b81526004016120479190613c65565b602060405180830381865afa158015612064573d6000803e3d6000fd5b505050506040513d601f19601f8201168201806040525081019061208891906145d7565b10156120c0576040517f81b5ad6800000000000000000000000000000000000000000000000000000000815260040160405180910390fd5b600360009054906101000a900473ffffffffffffffffffffffffffffffffffffffff1673ffffffffffffffffffffffffffffffffffffffff16639dc29fac84876040518363ffffffff1660e01b815260040161211d929190614844565b600060405180830381600087803b15801561213757600080fd5b505af115801561214b573d6000803e3d6000fd5b5050505061217a83828473ffffffffffffffffffffffffffffffffffffffff166125be9092919063ffffffff16565b8373ffffffffffffffffffffffffffffffffffffffff168373ffffffffffffffffffffffffffffffffffffffff167f9eaa2feeb3b37bf70a72e15de2e6e61b6f2060b2fb40839961c26bbc238dd20287846040516121d992919061486d565b60405180910390a35050506121ec61263d565b5050565b6121f861270a565b73ffffffffffffffffffffffffffffffffffffffff16612216610cd5565b73ffffffffffffffffffffffffffffffffffffffff16146122755761223961270a565b6040517f118cdaa700000000000000000000000000000000000000000000000000000000815260040161226c9190613c65565b60405180910390fd5b565b60008085036122b2576040517f2aa244fe00000000000000000000000000000000000000000000000000000000815260040160405180910390fd5b6000801b84036122ee576040517f2aa244fe00000000000000000000000000000000000000000000000000000000815260040160405180910390fd5b600073ffffffffffffffffffffffffffffffffffffffff168373ffffffffffffffffffffffffffffffffffffffff1603612354576040517faa15487e00000000000000000000000000000000000000000000000000000000815260040160405180910390fd5b600073ffffffffffffffffffffffffffffffffffffffff168273ffffffffffffffffffffffffffffffffffffffff16036123ba576040517faa15487e00000000000000000000000000000000000000000000000000000000815260040160405180910390fd5b60006040518060c00160405280868152602001600060018111156123e1576123e0614906565b5b81526020018573ffffffffffffffffffffffffffffffffffffffff1681526020018473ffffffffffffffffffffffffffffffffffffffff168152602001878152602001600067ffffffffffffffff81111561243f5761243e613d02565b5b6040519080825280601f01601f1916602001820160405280156124715781602001600182028036833780820191505090505b508152509050600060405180608001604052803073ffffffffffffffffffffffffffffffffffffffff1681526020016000151581526020013073ffffffffffffffffffffffffffffffffffffffff1681526020016000151581525090507f000000000000000000000000000000000000000000000000000000000000000073ffffffffffffffffffffffffffffffffffffffff1663e969f6b383836040518363ffffffff1660e01b8152600401612529929190614ba2565b6020604051808303816000875af1158015612548573d6000803e3d6000fd5b505050506040513d601f19601f8201168201806040525081019061256c91906145d7565b92505050949350505050565b6002600154036125b4576040517f3ee5aeb500000000000000000000000000000000000000000000000000000000815260040160405180910390fd5b6002600181905550565b612638838473ffffffffffffffffffffffffffffffffffffffff1663a9059cbb85856040516024016125f1929190614844565b604051602081830303815290604052915060e01b6020820180517bffffffffffffffffffffffffffffffffffffffffffffffffffffffff8381831617835250505050612fb0565b505050565b60018081905550565b60008060009054906101000a900473ffffffffffffffffffffffffffffffffffffffff169050816000806101000a81548173ffffffffffffffffffffffffffffffffffffffff021916908373ffffffffffffffffffffffffffffffffffffffff1602179055508173ffffffffffffffffffffffffffffffffffffffff168173ffffffffffffffffffffffffffffffffffffffff167f8be0079c531659141344cd1fd0a4f28419497f9722a3daafe3b4186f6b6457e060405160405180910390a35050565b600033905090565b61278e848573ffffffffffffffffffffffffffffffffffffffff166323b872dd86868660405160240161274793929190614bd2565b604051602081830303815290604052915060e01b6020820180517bffffffffffffffffffffffffffffffffffffffffffffffffffffffff8381831617835250505050612fb0565b50505050565b60608373ffffffffffffffffffffffffffffffffffffffff1663095ea7b37f0000000000000000000000000000000000000000000000000000000000000000876040518363ffffffff1660e01b81526004016127f1929190614844565b6020604051808303816000875af1158015612810573d6000803e3d6000fd5b505050506040513d601f19601f820116820180604052508101906128349190614c35565b506000600267ffffffffffffffff81111561285257612851613d02565b5b60405190808252806020026020018201604052801561288b57816020015b612878613afd565b8152602001906001900390816128705790505b5090506040518060a00160405280600760008873ffffffffffffffffffffffffffffffffffffffff1673ffffffffffffffffffffffffffffffffffffffff1681526020019081526020016000205481526020016000815260200160018152602001878152602001600067ffffffffffffffff81111561290d5761290c613d02565b5b6040519080825280601f01601f19166020018201604052801561293f5781602001600182028036833780820191505090505b50815250816000815181106129575761295661456a565b5b60200260200101819052506040518060a00160405280848152602001600181526020016002815260200160008152602001600067ffffffffffffffff8111156129a3576129a2613d02565b5b6040519080825280601f01601f1916602001820160405280156129d55781602001600182028036833780820191505090505b50815250816001815181106129ed576129ec61456a565b5b60200260200101819052506000600367ffffffffffffffff811115612a1557612a14613d02565b5b604051908082528060200260200182016040528015612a435781602001602082028036833780820191505090505b5090508581600081518110612a5b57612a5a61456a565b5b602002602001019073ffffffffffffffffffffffffffffffffffffffff16908173ffffffffffffffffffffffffffffffffffffffff16815250507f000000000000000000000000000000000000000000000000000000000000000081600181518110612aca57612ac961456a565b5b602002602001019073ffffffffffffffffffffffffffffffffffffffff16908173ffffffffffffffffffffffffffffffffffffffff16815250508481600281518110612b1957612b1861456a565b5b602002602001019073ffffffffffffffffffffffffffffffffffffffff16908173ffffffffffffffffffffffffffffffffffffffff1681525050600060405180608001604052803073ffffffffffffffffffffffffffffffffffffffff1681526020016000151581526020013073ffffffffffffffffffffffffffffffffffffffff1681526020016000151581525090506000600367ffffffffffffffff811115612bc757612bc6613d02565b5b604051908082528060200260200182016040528015612bf55781602001602082028036833780820191505090505b5090507f7fffffffffffffffffffffffffffffffffffffffffffffffffffffffffffffff81600081518110612c2d57612c2c61456a565b5b6020026020010181815250507f7fffffffffffffffffffffffffffffffffffffffffffffffffffffffffffffff81600181518110612c6e57612c6d61456a565b5b6020026020010181815250507f7fffffffffffffffffffffffffffffffffffffffffffffffffffffffffffffff81600281518110612caf57612cae61456a565b5b6020026020010181815250507f000000000000000000000000000000000000000000000000000000000000000073ffffffffffffffffffffffffffffffffffffffff1663945bcec96000868686867fffffffffffffffffffffffffffffffffffffffffffffffffffffffffffffffff6040518763ffffffff1660e01b8152600401612d3f96959493929190614f20565b6000604051808303816000875af1158015612d5e573d6000803e3d6000fd5b505050506040513d6000823e3d601f19601f82011682018060405250810190612d879190615087565b945050505050949350505050565b60007f19457468657265756d205369676e6564204d6573736167653a0a33320000000060005281601c52603c6000209050919050565b6000806000612dda8585613047565b509150915060006003811115612df357612df2614906565b5b816003811115612e0657612e05614906565b5b148015612e3e57508573ffffffffffffffffffffffffffffffffffffffff168273ffffffffffffffffffffffffffffffffffffffff16145b80612e505750612e4f8686866130a3565b5b925050509392505050565b60008203612e95576040517f2aa244fe00000000000000000000000000000000000000000000000000000000815260040160405180910390fd5b60006064605084612ea691906144c8565b612eb09190614539565b90507f000000000000000000000000000000000000000000000000000000000000000073ffffffffffffffffffffffffffffffffffffffff168273ffffffffffffffffffffffffffffffffffffffff1614612f5e57612f5c8184612f14919061477b565b837f00000000000000000000000000000000000000000000000000000000000000007f00000000000000000000000000000000000000000000000000000000000000006131c7565b505b612faa81837f00000000000000000000000000000000000000000000000000000000000000007f00000000000000000000000000000000000000000000000000000000000000006131c7565b50505050565b6000612fdb828473ffffffffffffffffffffffffffffffffffffffff166137c890919063ffffffff16565b90506000815114158015613000575080806020019051810190612ffe9190614c35565b155b1561304257826040517f5274afe70000000000000000000000000000000000000000000000000000000081526004016130399190613c65565b60405180910390fd5b505050565b6000806000604184510361308c5760008060006020870151925060408701519150606087015160001a905061307e888285856137de565b95509550955050505061309c565b60006002855160001b9250925092505b9250925092565b60008060008573ffffffffffffffffffffffffffffffffffffffff1685856040516024016130d292919061511a565b604051602081830303815290604052631626ba7e60e01b6020820180517bffffffffffffffffffffffffffffffffffffffffffffffffffffffff83818316178352505050506040516131249190615186565b600060405180830381855afa9150503d806000811461315f576040519150601f19603f3d011682016040523d82523d6000602084013e613164565b606091505b509150915081801561317857506020815110155b80156131bc5750631626ba7e60e01b7bffffffffffffffffffffffffffffffffffffffffffffffffffffffff1916818060200190518101906131ba91906151b2565b145b925050509392505050565b60608373ffffffffffffffffffffffffffffffffffffffff1663095ea7b37f0000000000000000000000000000000000000000000000000000000000000000876040518363ffffffff1660e01b8152600401613224929190614844565b6020604051808303816000875af1158015613243573d6000803e3d6000fd5b505050506040513d601f19601f820116820180604052508101906132679190614c35565b506000600267ffffffffffffffff81111561328557613284613d02565b5b6040519080825280602002602001820160405280156132be57816020015b6132ab613afd565b8152602001906001900390816132a35790505b5090506040518060a00160405280600660008873ffffffffffffffffffffffffffffffffffffffff1673ffffffffffffffffffffffffffffffffffffffff1681526020019081526020016000205481526020016000815260200160018152602001878152602001600067ffffffffffffffff8111156133405761333f613d02565b5b6040519080825280601f01601f1916602001820160405280156133725781602001600182028036833780820191505090505b508152508160008151811061338a5761338961456a565b5b60200260200101819052506040518060a00160405280848152602001600181526020016002815260200160008152602001600067ffffffffffffffff8111156133d6576133d5613d02565b5b6040519080825280601f01601f1916602001820160405280156134085781602001600182028036833780820191505090505b50815250816001815181106134205761341f61456a565b5b60200260200101819052506000600367ffffffffffffffff81111561344857613447613d02565b5b6040519080825280602002602001820160405280156134765781602001602082028036833780820191505090505b509050858160008151811061348e5761348d61456a565b5b602002602001019073ffffffffffffffffffffffffffffffffffffffff16908173ffffffffffffffffffffffffffffffffffffffff16815250507f0000000000000000000000000000000000000000000000000000000000000000816001815181106134fd576134fc61456a565b5b602002602001019073ffffffffffffffffffffffffffffffffffffffff16908173ffffffffffffffffffffffffffffffffffffffff1681525050848160028151811061354c5761354b61456a565b5b602002602001019073ffffffffffffffffffffffffffffffffffffffff16908173ffffffffffffffffffffffffffffffffffffffff1681525050600060405180608001604052803073ffffffffffffffffffffffffffffffffffffffff1681526020016000151581526020013073ffffffffffffffffffffffffffffffffffffffff1681526020016000151581525090506000600367ffffffffffffffff8111156135fa576135f9613d02565b5b6040519080825280602002602001820160405280156136285781602001602082028036833780820191505090505b5090507f7fffffffffffffffffffffffffffffffffffffffffffffffffffffffffffffff816000815181106136605761365f61456a565b5b6020026020010181815250507f7fffffffffffffffffffffffffffffffffffffffffffffffffffffffffffffff816001815181106136a1576136a061456a565b5b6020026020010181815250507f7fffffffffffffffffffffffffffffffffffffffffffffffffffffffffffffff816002815181106136e2576136e161456a565b5b6020026020010181815250507f000000000000000000000000000000000000000000000000000000000000000073ffffffffffffffffffffffffffffffffffffffff1663945bcec96000868686867fffffffffffffffffffffffffffffffffffffffffffffffffffffffffffffffff6040518763ffffffff1660e01b815260040161377296959493929190614f20565b6000604051808303816000875af1158015613791573d6000803e3d6000fd5b505050506040513d6000823e3d601f19601f820116820180604052508101906137ba9190615087565b945050505050949350505050565b60606137d6838360006138d2565b905092915050565b60008060007f7fffffffffffffffffffffffffffffff5d576e7357a4501ddfe92f46681b20a08460001c111561381e5760006003859250925092506138c8565b60006001888888886040516000815260200160405260405161384394939291906151df565b6020604051602081039080840390855afa158015613865573d6000803e3d6000fd5b505050602060405103519050600073ffffffffffffffffffffffffffffffffffffffff168173ffffffffffffffffffffffffffffffffffffffff16036138b957600060016000801b935093509350506138c8565b8060008060001b935093509350505b9450945094915050565b60608147101561391957306040517fcd7860590000000000000000000000000000000000000000000000000000000081526004016139109190613c65565b60405180910390fd5b6000808573ffffffffffffffffffffffffffffffffffffffff1684866040516139429190615186565b60006040518083038185875af1925050503d806000811461397f576040519150601f19603f3d011682016040523d82523d6000602084013e613984565b606091505b509150915061399486838361399f565b925050509392505050565b6060826139b4576139af82613a2e565b613a26565b600082511480156139dc575060008473ffffffffffffffffffffffffffffffffffffffff163b145b15613a1e57836040517f9996b315000000000000000000000000000000000000000000000000000000008152600401613a159190613c65565b60405180910390fd5b819050613a27565b5b9392505050565b600081511115613a415780518082602001fd5b6040517f1425ea4200000000000000000000000000000000000000000000000000000000815260040160405180910390fd5b828054828255906000526020600020908101928215613aec579160200282015b82811115613aeb5782518260006101000a81548173ffffffffffffffffffffffffffffffffffffffff021916908373ffffffffffffffffffffffffffffffffffffffff16021790555091602001919060010190613a93565b5b509050613af99190613b2f565b5090565b6040518060a0016040528060008019168152602001600081526020016000815260200160008152602001606081525090565b5b80821115613b48576000816000905550600101613b30565b5090565b6000819050919050565b613b5f81613b4c565b82525050565b6000602082019050613b7a6000830184613b56565b92915050565b6000604051905090565b600080fd5b600080fd5b613b9d81613b4c565b8114613ba857600080fd5b50565b600081359050613bba81613b94565b92915050565b600060208284031215613bd657613bd5613b8a565b5b6000613be484828501613bab565b91505092915050565b600060ff82169050919050565b613c0381613bed565b82525050565b6000602082019050613c1e6000830184613bfa565b92915050565b600073ffffffffffffffffffffffffffffffffffffffff82169050919050565b6000613c4f82613c24565b9050919050565b613c5f81613c44565b82525050565b6000602082019050613c7a6000830184613c56565b92915050565b613c8981613c44565b8114613c9457600080fd5b50565b600081359050613ca681613c80565b92915050565b60008060408385031215613cc357613cc2613b8a565b5b6000613cd185828601613bab565b9250506020613ce285828601613c97565b9150509250929050565b600080fd5b6000601f19601f8301169050919050565b7f4e487b7100000000000000000000000000000000000000000000000000000000600052604160045260246000fd5b613d3a82613cf1565b810181811067ffffffffffffffff82111715613d5957613d58613d02565b5b80604052505050565b6000613d6c613b80565b9050613d788282613d31565b919050565b600067ffffffffffffffff821115613d9857613d97613d02565b5b602082029050602081019050919050565b600080fd5b6000613dc1613dbc84613d7d565b613d62565b90508083825260208201905060208402830185811115613de457613de3613da9565b5b835b81811015613e0d5780613df98882613c97565b845260208401935050602081019050613de6565b5050509392505050565b600082601f830112613e2c57613e2b613cec565b5b8135613e3c848260208601613dae565b91505092915050565b600067ffffffffffffffff821115613e6057613e5f613d02565b5b602082029050602081019050919050565b6000613e84613e7f84613e45565b613d62565b90508083825260208201905060208402830185811115613ea757613ea6613da9565b5b835b81811015613ed05780613ebc8882613bab565b845260208401935050602081019050613ea9565b5050509392505050565b600082601f830112613eef57613eee613cec565b5b8135613eff848260208601613e71565b91505092915050565b60008060408385031215613f1f57613f1e613b8a565b5b600083013567ffffffffffffffff811115613f3d57613f3c613b8f565b5b613f4985828601613e17565b925050602083013567ffffffffffffffff811115613f6a57613f69613b8f565b5b613f7685828601613eda565b9150509250929050565b600060208284031215613f9657613f95613b8a565b5b6000613fa484828501613c97565b91505092915050565b613fb681613bed565b8114613fc157600080fd5b50565b600081359050613fd381613fad565b92915050565b600060208284031215613fef57613fee613b8a565b5b6000613ffd84828501613fc4565b91505092915050565b600080fd5b600067ffffffffffffffff82111561402657614025613d02565b5b61402f82613cf1565b9050602081019050919050565b82818337600083830152505050565b600061405e6140598461400b565b613d62565b90508281526020810184848401111561407a57614079614006565b5b61408584828561403c565b509392505050565b600082601f8301126140a2576140a1613cec565b5b81356140b284826020860161404b565b91505092915050565b600080600080608085870312156140d5576140d4613b8a565b5b60006140e387828801613bab565b94505060206140f487828801613c97565b935050604061410587828801613bab565b925050606085013567ffffffffffffffff81111561412657614125613b8f565b5b6141328782880161408d565b91505092959194509250565b600067ffffffffffffffff82111561415957614158613d02565b5b602082029050602081019050919050565b6000819050919050565b61417d8161416a565b811461418857600080fd5b50565b60008135905061419a81614174565b92915050565b60006141b36141ae8461413e565b613d62565b905080838252602082019050602084028301858111156141d6576141d5613da9565b5b835b818110156141ff57806141eb888261418b565b8452602084019350506020810190506141d8565b5050509392505050565b600082601f83011261421e5761421d613cec565b5b813561422e8482602086016141a0565b91505092915050565b6000806040838503121561424e5761424d613b8a565b5b600083013567ffffffffffffffff81111561426c5761426b613b8f565b5b61427885828601613e17565b925050602083013567ffffffffffffffff81111561429957614298613b8f565b5b6142a585828601614209565b9150509250929050565b6142b88161416a565b82525050565b60006020820190506142d360008301846142af565b92915050565b6000815190506142e881613fad565b92915050565b60006020828403121561430457614303613b8a565b5b6000614312848285016142d9565b91505092915050565b7f4e487b7100000000000000000000000000000000000000000000000000000000600052601160045260246000fd5b60008160011c9050919050565b6000808291508390505b60018511156143a15780860481111561437d5761437c61431b565b5b600185161561438c5780820291505b808102905061439a8561434a565b9450614361565b94509492505050565b6000826143ba5760019050614476565b816143c85760009050614476565b81600181146143de57600281146143e857614417565b6001915050614476565b60ff8411156143fa576143f961431b565b5b8360020a9150848211156144115761441061431b565b5b50614476565b5060208310610133831016604e8410600b841016171561444c5782820a9050838111156144475761444661431b565b5b614476565b6144598484846001614357565b925090508184048111156144705761446f61431b565b5b81810290505b9392505050565b600061448882613b4c565b915061449383613bed565b92506144c07fffffffffffffffffffffffffffffffffffffffffffffffffffffffffffffffff84846143aa565b905092915050565b60006144d382613b4c565b91506144de83613b4c565b92508282026144ec81613b4c565b915082820484148315176145035761450261431b565b5b5092915050565b7f4e487b7100000000000000000000000000000000000000000000000000000000600052601260045260246000fd5b600061454482613b4c565b915061454f83613b4c565b92508261455f5761455e61450a565b5b828204905092915050565b7f4e487b7100000000000000000000000000000000000000000000000000000000600052603260045260246000fd5b60006145a482613bed565b915060ff82036145b7576145b661431b565b5b600182019050919050565b6000815190506145d181613b94565b92915050565b6000602082840312156145ed576145ec613b8a565b5b60006145fb848285016145c2565b91505092915050565b60006060820190506146196000830186613b56565b6146266020830185613c56565b6146336040830184613b56565b949350505050565b600082825260208201905092915050565b7f416d6f756e74206d757374206265206174206c6561737420302e303520454e5260008201527f4700000000000000000000000000000000000000000000000000000000000000602082015250565b60006146a860218361463b565b91506146b38261464c565b604082019050919050565b600060208201905081810360008301526146d78161469b565b9050919050565b60006146e982613b4c565b91506146f483613b4c565b9250826147045761470361450a565b5b828206905092915050565b7f416d6f756e74206d75737420626520646976697369626c652062792035000000600082015250565b6000614745601d8361463b565b91506147508261470f565b602082019050919050565b6000602082019050818103600083015261477481614738565b9050919050565b600061478682613b4c565b915061479183613b4c565b92508282039050818111156147a9576147a861431b565b5b92915050565b60006040820190506147c46000830185613c56565b6147d16020830184613c56565b9392505050565b7f556e646572706169640000000000000000000000000000000000000000000000600082015250565b600061480e60098361463b565b9150614819826147d8565b602082019050919050565b6000602082019050818103600083015261483d81614801565b9050919050565b60006040820190506148596000830185613c56565b6148666020830184613b56565b9392505050565b60006040820190506148826000830185613b56565b61488f6020830184613b56565b9392505050565b6000819050919050565b6148b16148ac82613b4c565b614896565b82525050565b60006148c382846148a0565b60208201915081905092915050565b60006148dd82613b4c565b91506148e883613b4c565b9250828201905080821115614900576148ff61431b565b5b92915050565b7f4e487b7100000000000000000000000000000000000000000000000000000000600052602160045260246000fd5b61493e8161416a565b82525050565b6002811061495557614954614906565b5b50565b600081905061496682614944565b919050565b600061497682614958565b9050919050565b6149868161496b565b82525050565b6000819050919050565b60006149b16149ac6149a784613c24565b61498c565b613c24565b9050919050565b60006149c382614996565b9050919050565b60006149d5826149b8565b9050919050565b6149e5816149ca565b82525050565b6149f481613b4c565b82525050565b600081519050919050565b600082825260208201905092915050565b60005b83811015614a34578082015181840152602081019050614a19565b60008484015250505050565b6000614a4b826149fa565b614a558185614a05565b9350614a65818560208601614a16565b614a6e81613cf1565b840191505092915050565b600060c083016000830151614a916000860182614935565b506020830151614aa4602086018261497d565b506040830151614ab760408601826149dc565b506060830151614aca60608601826149dc565b506080830151614add60808601826149eb565b5060a083015184820360a0860152614af58282614a40565b9150508091505092915050565b614b0b81613c44565b82525050565b60008115159050919050565b614b2681614b11565b82525050565b6000614b3782613c24565b9050919050565b614b4781614b2c565b82525050565b608082016000820151614b636000850182614b02565b506020820151614b766020850182614b1d565b506040820151614b896040850182614b3e565b506060820151614b9c6060850182614b1d565b50505050565b600060a0820190508181036000830152614bbc8185614a79565b9050614bcb6020830184614b4d565b9392505050565b6000606082019050614be76000830186613c56565b614bf46020830185613c56565b614c016040830184613b56565b949350505050565b614c1281614b11565b8114614c1d57600080fd5b50565b600081519050614c2f81614c09565b92915050565b600060208284031215614c4b57614c4a613b8a565b5b6000614c5984828501614c20565b91505092915050565b614c6b8161496b565b82525050565b600081519050919050565b600082825260208201905092915050565b6000819050602082019050919050565b600060a083016000830151614cb56000860182614935565b506020830151614cc860208601826149eb565b506040830151614cdb60408601826149eb565b506060830151614cee60608601826149eb565b5060808301518482036080860152614d068282614a40565b9150508091505092915050565b6000614d1f8383614c9d565b905092915050565b6000602082019050919050565b6000614d3f82614c71565b614d498185614c7c565b935083602082028501614d5b85614c8d565b8060005b85811015614d975784840389528151614d788582614d13565b9450614d8383614d27565b925060208a01995050600181019050614d5f565b50829750879550505050505092915050565b600081519050919050565b600082825260208201905092915050565b6000819050602082019050919050565b6000614de183836149dc565b60208301905092915050565b6000602082019050919050565b6000614e0582614da9565b614e0f8185614db4565b9350614e1a83614dc5565b8060005b83811015614e4b578151614e328882614dd5565b9750614e3d83614ded565b925050600181019050614e1e565b5085935050505092915050565b600081519050919050565b600082825260208201905092915050565b6000819050602082019050919050565b6000819050919050565b614e9781614e84565b82525050565b6000614ea98383614e8e565b60208301905092915050565b6000602082019050919050565b6000614ecd82614e58565b614ed78185614e63565b9350614ee283614e74565b8060005b83811015614f13578151614efa8882614e9d565b9750614f0583614eb5565b925050600181019050614ee6565b5085935050505092915050565b600061012082019050614f366000830189614c62565b8181036020830152614f488188614d34565b90508181036040830152614f5c8187614dfa565b9050614f6b6060830186614b4d565b81810360e0830152614f7d8185614ec2565b9050614f8d610100830184613b56565b979650505050505050565b600067ffffffffffffffff821115614fb357614fb2613d02565b5b602082029050602081019050919050565b614fcd81614e84565b8114614fd857600080fd5b50565b600081519050614fea81614fc4565b92915050565b6000615003614ffe84614f98565b613d62565b9050808382526020820190506020840283018581111561502657615025613da9565b5b835b8181101561504f578061503b8882614fdb565b845260208401935050602081019050615028565b5050509392505050565b600082601f83011261506e5761506d613cec565b5b815161507e848260208601614ff0565b91505092915050565b60006020828403121561509d5761509c613b8a565b5b600082015167ffffffffffffffff8111156150bb576150ba613b8f565b5b6150c784828501615059565b91505092915050565b600082825260208201905092915050565b60006150ec826149fa565b6150f681856150d0565b9350615106818560208601614a16565b61510f81613cf1565b840191505092915050565b600060408201905061512f60008301856142af565b818103602083015261514181846150e1565b90509392505050565b600081905092915050565b6000615160826149fa565b61516a818561514a565b935061517a818560208601614a16565b80840191505092915050565b60006151928284615155565b915081905092915050565b6000815190506151ac81614174565b92915050565b6000602082840312156151c8576151c7613b8a565b5b60006151d68482850161519d565b91505092915050565b60006080820190506151f460008301876142af565b6152016020830186613bfa565b61520e60408301856142af565b61521b60608301846142af565b9594505050505056fea26469706673582212203b36362e27afe31d1d3f5b38069ce62e749300950a4295a9f547070248cb90ef64736f6c63430008150033",
  "devdoc": {
    "errors": {
      "AddressEmptyCode(address)": [
        {
          "details": "There's no code at `target` (it is not a contract)."
        }
      ],
      "AddressInsufficientBalance(address)": [
        {
          "details": "The ETH balance of the account is not enough to perform the operation."
        }
      ],
      "FailedInnerCall()": [
        {
          "details": "A call to an address target failed. The target may have reverted."
        }
      ],
      "OwnableInvalidOwner(address)": [
        {
          "details": "The owner is not a valid owner account. (eg. `address(0)`)"
        }
      ],
      "OwnableUnauthorizedAccount(address)": [
        {
          "details": "The caller account is not authorized to perform an operation."
        }
      ],
      "ReentrancyGuardReentrantCall()": [
        {
          "details": "Unauthorized reentrant call."
        }
      ],
      "SafeERC20FailedOperation(address)": [
        {
          "details": "An operation with an ERC20 token failed."
        }
      ]
    },
    "kind": "dev",
    "methods": {
      "burn(uint256,address)": {
        "params": {
          "_amount": "ENRG to be burned",
          "_paymentTokenAddress": "token to receive as payment"
        }
      },
      "getPrice(uint256,address)": {
        "params": {
          "_amount": "of energy to be minted",
          "_paymentTokenAddress": "to be used for payment"
        }
      },
      "mint(uint256,address)": {
        "params": {
          "_amount": "to be minted",
          "_paymentTokenAddress": "to be used for payment"
        }
      },
      "mintWithDynamic(uint256,address,uint256,bytes)": {
        "params": {
          "_amount": "to be minted",
          "_offlinePrice": "provided by an offline Oracle",
          "_paymentTokenAddress": "to be used for payment",
          "_signature": "that proves the Oracle's price data was provided by the owner"
        }
      },
      "owner()": {
        "details": "Returns the address of the current owner."
      },
      "renounceOwnership()": {
        "details": "Leaves the contract without owner. It will not be possible to call `onlyOwner` functions. Can only be called by the current owner. NOTE: Renouncing ownership will leave the contract without an owner, thereby disabling any functionality that is only available to the owner."
      },
      "setDynamicExchangeAcceptedDeviationPercentage(uint8)": {
        "params": {
          "_dynamicExchangeAcceptedDeviationPercentage": "percentage of deviation"
        }
      },
      "setDynamicExchangeTokens(address[],bytes32[])": {
        "params": {
          "_dynamicExchangePools": "array of Balancer pool ids (WETH-Token pools)",
          "_dynamicExchangeTokens": "array of token addresses"
        }
      },
      "setFixedExchangeRates(address[],uint256[])": {
        "params": {
          "_fixedExchangeRates": "array of exchage rates (price per 1 ENRG token)",
          "_fixedExchangeTokens": "array of token addresses"
        }
      },
      "setFixedExchangeTokens(address[],uint256[])": {
        "params": {
          "_fixedExchangeRates": "array of Balancer pool ids (WETH-Token pools)",
          "_fixedExchangeTokens": "array of token addresses"
        }
      },
      "setMaxMintAmount(uint256)": {
        "details": "Throws if called by any account other than the energy token."
      },
      "setStableExchangeTokens(address[],bytes32[])": {
        "params": {
          "_stableExchangePools": "array of Balancer pool ids (WETH-Token pools)",
          "_stableExchangeTokens": "array of token addresses"
        }
      },
      "setTrustedSigner(address)": {
        "params": {
          "_trustedSigner": "address of the trusted signer"
        }
      },
      "transferOwnership(address)": {
        "details": "Transfers ownership of the contract to a new account (`newOwner`). Can only be called by the current owner."
      },
      "withdraw(address)": {
        "params": {
          "_erc20": "token to withdraw"
        }
      }
    },
    "version": 1
  },
  "userdoc": {
    "kind": "user",
    "methods": {
      "burn(uint256,address)": {
        "notice": "Burns the desired ENRG amount, receiving the desired payment token in exchange (if available). "
      },
      "getPrice(uint256,address)": {
        "notice": "Calculates the price for the amount of ENRG in the payment token. Can be used from any external actor to calculate the price before minting. "
      },
      "mint(uint256,address)": {
        "notice": "Minting with fixed exchange rate (stablecoin) "
      },
      "mintWithDynamic(uint256,address,uint256,bytes)": {
        "notice": "Minting with dynamic exchange rate (HDAO, BAL, AAVE, etc.). Sent tokens will be exchanged for WETH and then for USDC and HDAO. "
      },
      "setDynamicExchangeAcceptedDeviationPercentage(uint8)": {
        "notice": "Set the deviation percentage from the provided price and the price from Balancer.  If the deviation is higher than the provided percentage, the transaction will be reverted. "
      },
      "setDynamicExchangeTokens(address[],bytes32[])": {
        "notice": "Set the tokens that can be used for minting, with a dynamic exchange rate, from a Balancer pool. "
      },
      "setFixedExchangeRates(address[],uint256[])": {
        "notice": "Sets the fixed exchange rates for the tokens. "
      },
      "setFixedExchangeTokens(address[],uint256[])": {
        "notice": "Set the stablecoins that can be used for minting "
      },
      "setMaxMintAmount(uint256)": {
        "notice": "Sets the amount of energy that can be minted per transaction. "
      },
      "setStableExchangeTokens(address[],bytes32[])": {
        "notice": "Set the tokens that can be used for minting, with a dynamic exchange rate, from a Balancer pool. "
      },
      "setTrustedSigner(address)": {
        "notice": "Set the trusted signer address. Will be used for offline price signature verification "
      },
      "withdraw(address)": {
        "notice": "Lets the contract owner to withdraw any ERC20 token from the contract. "
      }
    },
    "version": 1
  },
  "storageLayout": {
    "storage": [
      {
        "astId": 846,
        "contract": "contracts/Factory.sol:Factory",
        "label": "_owner",
        "offset": 0,
        "slot": "0",
        "type": "t_address"
      },
      {
        "astId": 2811,
        "contract": "contracts/Factory.sol:Factory",
        "label": "_status",
        "offset": 0,
        "slot": "1",
        "type": "t_uint256"
      },
      {
        "astId": 5588,
        "contract": "contracts/Factory.sol:Factory",
        "label": "trustedSigner",
        "offset": 0,
        "slot": "2",
        "type": "t_address"
      },
      {
        "astId": 5590,
        "contract": "contracts/Factory.sol:Factory",
        "label": "energyToken",
        "offset": 0,
        "slot": "3",
        "type": "t_address"
      },
      {
        "astId": 5592,
        "contract": "contracts/Factory.sol:Factory",
        "label": "maxMintAmount",
        "offset": 0,
        "slot": "4",
        "type": "t_uint256"
      },
      {
        "astId": 5596,
        "contract": "contracts/Factory.sol:Factory",
        "label": "fixedExchangeRate",
        "offset": 0,
        "slot": "5",
        "type": "t_mapping(t_address,t_uint256)"
      },
      {
        "astId": 5600,
        "contract": "contracts/Factory.sol:Factory",
        "label": "dynamicExchangeTokens",
        "offset": 0,
        "slot": "6",
        "type": "t_mapping(t_address,t_bytes32)"
      },
      {
        "astId": 5604,
        "contract": "contracts/Factory.sol:Factory",
        "label": "stableExchangeTokens",
        "offset": 0,
        "slot": "7",
        "type": "t_mapping(t_address,t_bytes32)"
      },
      {
        "astId": 5607,
        "contract": "contracts/Factory.sol:Factory",
        "label": "fixedExchangeTokens",
        "offset": 0,
        "slot": "8",
        "type": "t_array(t_address)dyn_storage"
      },
      {
        "astId": 5609,
        "contract": "contracts/Factory.sol:Factory",
        "label": "dynamicExchangeAcceptedDeviationPercentage",
        "offset": 0,
        "slot": "9",
        "type": "t_uint8"
      },
      {
        "astId": 5611,
        "contract": "contracts/Factory.sol:Factory",
        "label": "burningPrice",
        "offset": 0,
        "slot": "10",
        "type": "t_uint256"
      }
    ],
    "types": {
      "t_address": {
        "encoding": "inplace",
        "label": "address",
        "numberOfBytes": "20"
      },
      "t_array(t_address)dyn_storage": {
        "base": "t_address",
        "encoding": "dynamic_array",
        "label": "address[]",
        "numberOfBytes": "32"
      },
      "t_bytes32": {
        "encoding": "inplace",
        "label": "bytes32",
        "numberOfBytes": "32"
      },
      "t_mapping(t_address,t_bytes32)": {
        "encoding": "mapping",
        "key": "t_address",
        "label": "mapping(address => bytes32)",
        "numberOfBytes": "32",
        "value": "t_bytes32"
      },
      "t_mapping(t_address,t_uint256)": {
        "encoding": "mapping",
        "key": "t_address",
        "label": "mapping(address => uint256)",
        "numberOfBytes": "32",
        "value": "t_uint256"
      },
      "t_uint256": {
        "encoding": "inplace",
        "label": "uint256",
        "numberOfBytes": "32"
      },
      "t_uint8": {
        "encoding": "inplace",
        "label": "uint8",
        "numberOfBytes": "1"
      }
    }
  }
}